{
  "_format": "hh-sol-artifact-1",
  "contractName": "PoolMock",
  "sourceName": "contracts/fake/PoolMock.sol",
  "abi": [
    {
      "inputs": [
        {
          "internalType": "contract PoolDataProviderMock",
          "name": "_poolDataProvider",
          "type": "address"
        }
      ],
      "stateMutability": "nonpayable",
      "type": "constructor"
    },
    {
      "inputs": [
        {
          "internalType": "address",
          "name": "_weth",
          "type": "address"
        },
        {
          "internalType": "uint256",
          "name": "_amount",
          "type": "uint256"
        },
        {
          "internalType": "address",
          "name": "_onBehalf",
          "type": "address"
        },
        {
          "internalType": "uint16",
          "name": "_referal",
          "type": "uint16"
        }
      ],
      "name": "deposit",
      "outputs": [],
      "stateMutability": "nonpayable",
      "type": "function"
    },
    {
      "inputs": [
        {
          "internalType": "address",
          "name": "_weth",
          "type": "address"
        },
        {
          "internalType": "uint256",
          "name": "_amount",
          "type": "uint256"
        },
        {
          "internalType": "address",
          "name": "_to",
          "type": "address"
        }
      ],
      "name": "withdraw",
      "outputs": [
        {
          "internalType": "uint256",
          "name": "",
          "type": "uint256"
        }
      ],
      "stateMutability": "nonpayable",
      "type": "function"
    }
  ],
  "bytecode": "0x60a060405234801561001057600080fd5b5060405161040b38038061040b83398101604081905261002f91610040565b6001600160a01b0316608052610070565b60006020828403121561005257600080fd5b81516001600160a01b038116811461006957600080fd5b9392505050565b60805161038061008b600039600061020401526103806000f3fe608060405234801561001057600080fd5b50600436106100365760003560e01c806369328dec1461003b578063e8eda9df14610060575b600080fd5b61004e61004936600461028f565b610075565b60405190815260200160405180910390f35b61007361006e3660046102cb565b61011a565b005b6040517fa9059cbb00000000000000000000000000000000000000000000000000000000815273ffffffffffffffffffffffffffffffffffffffff8281166004830152602482018490526000919085169063a9059cbb906044016020604051808303816000875af11580156100ee573d6000803e3d6000fd5b505050506040513d601f19601f820116820180604052508101906101129190610321565b509392505050565b6040517f23b872dd0000000000000000000000000000000000000000000000000000000081523360048201523060248201526044810184905273ffffffffffffffffffffffffffffffffffffffff8516906323b872dd906064016020604051808303816000875af1158015610193573d6000803e3d6000fd5b505050506040513d601f19601f820116820180604052508101906101b79190610321565b506040517fd6a7882100000000000000000000000000000000000000000000000000000000815273ffffffffffffffffffffffffffffffffffffffff8381166004830152602482018590527f0000000000000000000000000000000000000000000000000000000000000000169063d6a7882190604401600060405180830381600087803b15801561024857600080fd5b505af115801561025c573d6000803e3d6000fd5b5050505050505050565b803573ffffffffffffffffffffffffffffffffffffffff8116811461028a57600080fd5b919050565b6000806000606084860312156102a457600080fd5b6102ad84610266565b9250602084013591506102c260408501610266565b90509250925092565b600080600080608085870312156102e157600080fd5b6102ea85610266565b9350602085013592506102ff60408601610266565b9150606085013561ffff8116811461031657600080fd5b939692955090935050565b60006020828403121561033357600080fd5b8151801515811461034357600080fd5b939250505056fea264697066735822122073ae2c0522b6963c9408ae5ed8d9ac7259d746df3c036f88dd9e2217acdef08664736f6c634300080a0033",
  "linkReferences": {},
  "deployedLinkReferences": {}
}