{
  "_format": "hh-sol-artifact-1",
  "contractName": "RewardsControllerStub",
  "sourceName": "contracts/fake/RewardsControllerStub.sol",
  "abi": [
    {
      "inputs": [
        {
          "internalType": "address[]",
          "name": "assets",
          "type": "address[]"
        },
        {
          "internalType": "address",
          "name": "to",
          "type": "address"
        }
      ],
      "name": "claimAllRewards",
      "outputs": [
        {
          "internalType": "address[]",
          "name": "",
          "type": "address[]"
        },
        {
          "internalType": "uint256[]",
          "name": "",
          "type": "uint256[]"
        }
      ],
      "stateMutability": "nonpayable",
      "type": "function"
    }
  ],
  "bytecode": "0x608060405234801561001057600080fd5b50610254806100206000396000f3fe608060405234801561001057600080fd5b506004361061002b5760003560e01c8063bb492bf514610030575b600080fd5b61004761003e3660046100b6565b50606091829150565b60405161005592919061018d565b60405180910390f35b7f4e487b7100000000000000000000000000000000000000000000000000000000600052604160045260246000fd5b803573ffffffffffffffffffffffffffffffffffffffff811681146100b157600080fd5b919050565b600080604083850312156100c957600080fd5b823567ffffffffffffffff808211156100e157600080fd5b818501915085601f8301126100f557600080fd5b81356020828211156101095761010961005e565b8160051b604051601f19603f8301168101818110868211171561012e5761012e61005e565b60405292835281830193508481018201928984111561014c57600080fd5b948201945b83861015610171576101628661008d565b85529482019493820193610151565b9650610180905087820161008d565b9450505050509250929050565b604080825283519082018190526000906020906060840190828701845b828110156101dc57815173ffffffffffffffffffffffffffffffffffffffff16845292840192908401906001016101aa565b5050508381038285015284518082528583019183019060005b81811015610211578351835292840192918401916001016101f5565b509097965050505050505056fea2646970667358221220d6992b6e468a033087548b00121430fbf993f235275f516ff730dc3d014b854e64736f6c634300080a0033",
  "linkReferences": {},
  "deployedLinkReferences": {}
}