{
  "_format": "hh-sol-artifact-1",
  "contractName": "PoolDataProviderMock",
  "sourceName": "contracts/fake/PoolDataProviderMock.sol",
  "abi": [
    {
      "inputs": [
        {
          "internalType": "address",
          "name": "asset",
          "type": "address"
        }
      ],
      "name": "getReserveTokensAddresses",
      "outputs": [
        {
          "internalType": "address",
          "name": "aTokenAddress",
          "type": "address"
        },
        {
          "internalType": "address",
          "name": "",
          "type": "address"
        },
        {
          "internalType": "address",
          "name": "",
          "type": "address"
        }
      ],
      "stateMutability": "view",
      "type": "function"
    },
    {
      "inputs": [
        {
          "internalType": "address",
          "name": "",
          "type": "address"
        },
        {
          "internalType": "address",
          "name": "_owner",
          "type": "address"
        }
      ],
      "name": "getUserReserveData",
      "outputs": [
        {
          "internalType": "uint256",
          "name": "currentATokenBalance",
          "type": "uint256"
        },
        {
          "internalType": "uint256",
          "name": "",
          "type": "uint256"
        },
        {
          "internalType": "uint256",
          "name": "",
          "type": "uint256"
        },
        {
          "internalType": "uint256",
          "name": "",
          "type": "uint256"
        },
        {
          "internalType": "uint256",
          "name": "",
          "type": "uint256"
        },
        {
          "internalType": "uint256",
          "name": "",
          "type": "uint256"
        },
        {
          "internalType": "uint256",
          "name": "",
          "type": "uint256"
        },
        {
          "internalType": "uint40",
          "name": "",
          "type": "uint40"
        },
        {
          "internalType": "bool",
          "name": "",
          "type": "bool"
        }
      ],
      "stateMutability": "view",
      "type": "function"
    },
    {
      "inputs": [
        {
          "internalType": "address",
          "name": "_owner",
          "type": "address"
        },
        {
          "internalType": "uint256",
          "name": "_amount",
          "type": "uint256"
        }
      ],
      "name": "setOwnerBalance",
      "outputs": [],
      "stateMutability": "nonpayable",
      "type": "function"
    },
    {
      "inputs": [
        {
          "internalType": "address",
          "name": "_reserveTokenAddress",
          "type": "address"
        }
      ],
      "name": "setReserveTokensAddresses",
      "outputs": [],
      "stateMutability": "nonpayable",
      "type": "function"
    }
  ],
  "bytecode": "0x608060405234801561001057600080fd5b506102c3806100206000396000f3fe608060405234801561001057600080fd5b506004361061004c5760003560e01c806328dd2d0114610051578063bda1a71e146100dd578063d2493b6c14610127578063d6a7882114610174575b600080fd5b61008b61005f3660046101cf565b6001600160a01b0316600090815260208190526040812054929091508190819081908190819081908190565b60408051998a5260208a0198909852968801959095526060870193909352608086019190915260a085015260c084015264ffffffffff1660e08301521515610100820152610120015b60405180910390f35b6101256100eb366004610202565b600180547fffffffffffffffffffffffff0000000000000000000000000000000000000000166001600160a01b0392909216919091179055565b005b61014a610135366004610202565b506001546001600160a01b0316906000908190565b604080516001600160a01b03948516815292841660208401529216918101919091526060016100d4565b610125610182366004610224565b6001600160a01b038216600090815260208190526040812080548392906101aa90849061024e565b90915550505050565b80356001600160a01b03811681146101ca57600080fd5b919050565b600080604083850312156101e257600080fd5b6101eb836101b3565b91506101f9602084016101b3565b90509250929050565b60006020828403121561021457600080fd5b61021d826101b3565b9392505050565b6000806040838503121561023757600080fd5b610240836101b3565b946020939093013593505050565b60008219821115610288577f4e487b7100000000000000000000000000000000000000000000000000000000600052601160045260246000fd5b50019056fea264697066735822122023dc16dcc30c8dcc31edab0a05c23e073c4fa16d302a057ac33fe43355ccad9364736f6c634300080a0033",
  "linkReferences": {},
  "deployedLinkReferences": {}
}