{
  "_format": "hh-sol-artifact-1",
  "contractName": "AaveProtocolDataProvider",
  "sourceName": "@aave/core-v3/contracts/misc/AaveProtocolDataProvider.sol",
  "abi": [
    {
      "inputs": [
        {
          "internalType": "contract IPoolAddressesProvider",
          "name": "addressesProvider",
          "type": "address"
        }
      ],
      "stateMutability": "nonpayable",
      "type": "constructor"
    },
    {
      "inputs": [],
      "name": "ADDRESSES_PROVIDER",
      "outputs": [
        {
          "internalType": "contract IPoolAddressesProvider",
          "name": "",
          "type": "address"
        }
      ],
      "stateMutability": "view",
      "type": "function"
    },
    {
      "inputs": [
        {
          "internalType": "address",
          "name": "asset",
          "type": "address"
        }
      ],
      "name": "getATokenTotalSupply",
      "outputs": [
        {
          "internalType": "uint256",
          "name": "",
          "type": "uint256"
        }
      ],
      "stateMutability": "view",
      "type": "function"
    },
    {
      "inputs": [],
      "name": "getAllATokens",
      "outputs": [
        {
          "components": [
            {
              "internalType": "string",
              "name": "symbol",
              "type": "string"
            },
            {
              "internalType": "address",
              "name": "tokenAddress",
              "type": "address"
            }
          ],
          "internalType": "struct AaveProtocolDataProvider.TokenData[]",
          "name": "",
          "type": "tuple[]"
        }
      ],
      "stateMutability": "view",
      "type": "function"
    },
    {
      "inputs": [],
      "name": "getAllReservesTokens",
      "outputs": [
        {
          "components": [
            {
              "internalType": "string",
              "name": "symbol",
              "type": "string"
            },
            {
              "internalType": "address",
              "name": "tokenAddress",
              "type": "address"
            }
          ],
          "internalType": "struct AaveProtocolDataProvider.TokenData[]",
          "name": "",
          "type": "tuple[]"
        }
      ],
      "stateMutability": "view",
      "type": "function"
    },
    {
      "inputs": [
        {
          "internalType": "address",
          "name": "asset",
          "type": "address"
        }
      ],
      "name": "getDebtCeiling",
      "outputs": [
        {
          "internalType": "uint256",
          "name": "",
          "type": "uint256"
        }
      ],
      "stateMutability": "view",
      "type": "function"
    },
    {
      "inputs": [],
      "name": "getDebtCeilingDecimals",
      "outputs": [
        {
          "internalType": "uint256",
          "name": "",
          "type": "uint256"
        }
      ],
      "stateMutability": "pure",
      "type": "function"
    },
    {
      "inputs": [
        {
          "internalType": "address",
          "name": "asset",
          "type": "address"
        }
      ],
      "name": "getInterestRateStrategyAddress",
      "outputs": [
        {
          "internalType": "address",
          "name": "irStrategyAddress",
          "type": "address"
        }
      ],
      "stateMutability": "view",
      "type": "function"
    },
    {
      "inputs": [
        {
          "internalType": "address",
          "name": "asset",
          "type": "address"
        }
      ],
      "name": "getLiquidationProtocolFee",
      "outputs": [
        {
          "internalType": "uint256",
          "name": "",
          "type": "uint256"
        }
      ],
      "stateMutability": "view",
      "type": "function"
    },
    {
      "inputs": [
        {
          "internalType": "address",
          "name": "asset",
          "type": "address"
        }
      ],
      "name": "getPaused",
      "outputs": [
        {
          "internalType": "bool",
          "name": "isPaused",
          "type": "bool"
        }
      ],
      "stateMutability": "view",
      "type": "function"
    },
    {
      "inputs": [
        {
          "internalType": "address",
          "name": "asset",
          "type": "address"
        }
      ],
      "name": "getReserveCaps",
      "outputs": [
        {
          "internalType": "uint256",
          "name": "borrowCap",
          "type": "uint256"
        },
        {
          "internalType": "uint256",
          "name": "supplyCap",
          "type": "uint256"
        }
      ],
      "stateMutability": "view",
      "type": "function"
    },
    {
      "inputs": [
        {
          "internalType": "address",
          "name": "asset",
          "type": "address"
        }
      ],
      "name": "getReserveConfigurationData",
      "outputs": [
        {
          "internalType": "uint256",
          "name": "decimals",
          "type": "uint256"
        },
        {
          "internalType": "uint256",
          "name": "ltv",
          "type": "uint256"
        },
        {
          "internalType": "uint256",
          "name": "liquidationThreshold",
          "type": "uint256"
        },
        {
          "internalType": "uint256",
          "name": "liquidationBonus",
          "type": "uint256"
        },
        {
          "internalType": "uint256",
          "name": "reserveFactor",
          "type": "uint256"
        },
        {
          "internalType": "bool",
          "name": "usageAsCollateralEnabled",
          "type": "bool"
        },
        {
          "internalType": "bool",
          "name": "borrowingEnabled",
          "type": "bool"
        },
        {
          "internalType": "bool",
          "name": "stableBorrowRateEnabled",
          "type": "bool"
        },
        {
          "internalType": "bool",
          "name": "isActive",
          "type": "bool"
        },
        {
          "internalType": "bool",
          "name": "isFrozen",
          "type": "bool"
        }
      ],
      "stateMutability": "view",
      "type": "function"
    },
    {
      "inputs": [
        {
          "internalType": "address",
          "name": "asset",
          "type": "address"
        }
      ],
      "name": "getReserveData",
      "outputs": [
        {
          "internalType": "uint256",
          "name": "unbacked",
          "type": "uint256"
        },
        {
          "internalType": "uint256",
          "name": "accruedToTreasuryScaled",
          "type": "uint256"
        },
        {
          "internalType": "uint256",
          "name": "totalAToken",
          "type": "uint256"
        },
        {
          "internalType": "uint256",
          "name": "totalStableDebt",
          "type": "uint256"
        },
        {
          "internalType": "uint256",
          "name": "totalVariableDebt",
          "type": "uint256"
        },
        {
          "internalType": "uint256",
          "name": "liquidityRate",
          "type": "uint256"
        },
        {
          "internalType": "uint256",
          "name": "variableBorrowRate",
          "type": "uint256"
        },
        {
          "internalType": "uint256",
          "name": "stableBorrowRate",
          "type": "uint256"
        },
        {
          "internalType": "uint256",
          "name": "averageStableBorrowRate",
          "type": "uint256"
        },
        {
          "internalType": "uint256",
          "name": "liquidityIndex",
          "type": "uint256"
        },
        {
          "internalType": "uint256",
          "name": "variableBorrowIndex",
          "type": "uint256"
        },
        {
          "internalType": "uint40",
          "name": "lastUpdateTimestamp",
          "type": "uint40"
        }
      ],
      "stateMutability": "view",
      "type": "function"
    },
    {
      "inputs": [
        {
          "internalType": "address",
          "name": "asset",
          "type": "address"
        }
      ],
      "name": "getReserveEModeCategory",
      "outputs": [
        {
          "internalType": "uint256",
          "name": "",
          "type": "uint256"
        }
      ],
      "stateMutability": "view",
      "type": "function"
    },
    {
      "inputs": [
        {
          "internalType": "address",
          "name": "asset",
          "type": "address"
        }
      ],
      "name": "getReserveTokensAddresses",
      "outputs": [
        {
          "internalType": "address",
          "name": "aTokenAddress",
          "type": "address"
        },
        {
          "internalType": "address",
          "name": "stableDebtTokenAddress",
          "type": "address"
        },
        {
          "internalType": "address",
          "name": "variableDebtTokenAddress",
          "type": "address"
        }
      ],
      "stateMutability": "view",
      "type": "function"
    },
    {
      "inputs": [
        {
          "internalType": "address",
          "name": "asset",
          "type": "address"
        }
      ],
      "name": "getSiloedBorrowing",
      "outputs": [
        {
          "internalType": "bool",
          "name": "",
          "type": "bool"
        }
      ],
      "stateMutability": "view",
      "type": "function"
    },
    {
      "inputs": [
        {
          "internalType": "address",
          "name": "asset",
          "type": "address"
        }
      ],
      "name": "getTotalDebt",
      "outputs": [
        {
          "internalType": "uint256",
          "name": "",
          "type": "uint256"
        }
      ],
      "stateMutability": "view",
      "type": "function"
    },
    {
      "inputs": [
        {
          "internalType": "address",
          "name": "asset",
          "type": "address"
        }
      ],
      "name": "getUnbackedMintCap",
      "outputs": [
        {
          "internalType": "uint256",
          "name": "",
          "type": "uint256"
        }
      ],
      "stateMutability": "view",
      "type": "function"
    },
    {
      "inputs": [
        {
          "internalType": "address",
          "name": "asset",
          "type": "address"
        },
        {
          "internalType": "address",
          "name": "user",
          "type": "address"
        }
      ],
      "name": "getUserReserveData",
      "outputs": [
        {
          "internalType": "uint256",
          "name": "currentATokenBalance",
          "type": "uint256"
        },
        {
          "internalType": "uint256",
          "name": "currentStableDebt",
          "type": "uint256"
        },
        {
          "internalType": "uint256",
          "name": "currentVariableDebt",
          "type": "uint256"
        },
        {
          "internalType": "uint256",
          "name": "principalStableDebt",
          "type": "uint256"
        },
        {
          "internalType": "uint256",
          "name": "scaledVariableDebt",
          "type": "uint256"
        },
        {
          "internalType": "uint256",
          "name": "stableBorrowRate",
          "type": "uint256"
        },
        {
          "internalType": "uint256",
          "name": "liquidityRate",
          "type": "uint256"
        },
        {
          "internalType": "uint40",
          "name": "stableRateLastUpdated",
          "type": "uint40"
        },
        {
          "internalType": "bool",
          "name": "usageAsCollateralEnabled",
          "type": "bool"
        }
      ],
      "stateMutability": "view",
      "type": "function"
    }
  ],
  "bytecode": "0x60a06040523480156200001157600080fd5b506040516200291d3803806200291d833981016040819052620000349162000046565b6001600160a01b031660805262000078565b6000602082840312156200005957600080fd5b81516001600160a01b03811681146200007157600080fd5b9392505050565b6080516128126200010b6000396000818161014001528181610410015281816105200152818161061301528181610aec01528181610e3301528181610f3a01528181611044015281816111ac015281816112c00152818161148c015281816115e7015281816116e7015281816117e701528181611bac01528181611cf201528181611e0501526120c101526128126000f3fe608060405234801561001057600080fd5b50600436106101365760003560e01c806351460e25116100b2578063b316ff8911610081578063d2493b6c11610066578063d2493b6c146103b3578063f561ae41146103f0578063fcf40a62146103f857600080fd5b8063b316ff891461037b578063b55d99041461039057600080fd5b806351460e251461033b5780636744362a1461034e57806369b169e1146103615780637ba1ae361461036857600080fd5b80633c798109116101095780633e150141116100ee5780633e1501411461029957806346fbe558146103005780634d44ac4f1461032857600080fd5b80633c798109146102735780633cb8a6221461028657600080fd5b80630542975c1461013b578063163a0f201461017f57806328dd2d01146101a057806335ea6a7514610200575b600080fd5b6101627f000000000000000000000000000000000000000000000000000000000000000081565b6040516001600160a01b0390911681526020015b60405180910390f35b61019261018d366004612262565b61040b565b604051908152602001610176565b6101b36101ae36600461227f565b61050f565b60408051998a5260208a0198909852968801959095526060870193909352608086019190915260a085015260c084015264ffffffffff1660e0830152151561010082015261012001610176565b61021361020e366004612262565b610ad6565b604080519c8d5260208d019b909b52998b019890985260608a0196909652608089019490945260a088019290925260c087015260e086015261010085015261012084015261014083015264ffffffffff1661016082015261018001610176565b610192610281366004612262565b610e2c565b610192610294366004612262565b610f33565b6102ac6102a7366004612262565b611031565b604080519a8b5260208b01999099529789019690965260608801949094526080870192909252151560a0860152151560c0850152151560e08401521515610100830152151561012082015261014001610176565b61031361030e366004612262565b6111a4565b60408051928352602083019190915201610176565b610192610336366004612262565b6112bb565b610192610349366004612262565b611487565b61016261035c366004612262565b6115e2565b6002610192565b610192610376366004612262565b6116e0565b6103836117e1565b6040516101769190612314565b6103a361039e366004612262565b611ba5565b6040519015158152602001610176565b6103c66103c1366004612262565b611cea565b604080516001600160a01b0394851681529284166020840152921691810191909152606001610176565b610383611dff565b6103a3610406366004612262565b6120ba565b6000807f00000000000000000000000000000000000000000000000000000000000000006001600160a01b031663026b1d5f6040518163ffffffff1660e01b8152600401602060405180830381865afa15801561046c573d6000803e3d6000fd5b505050506040513d601f19601f8201168201806040525081019061049091906123a3565b60405163c44b11f760e01b81526001600160a01b038581166004830152919091169063c44b11f790602401602060405180830381865afa1580156104d8573d6000803e3d6000fd5b505050506040513d601f19601f820116820180604052508101906104fc9190612473565b805190915060a81c60ff165b9392505050565b6000806000806000806000806000807f00000000000000000000000000000000000000000000000000000000000000006001600160a01b031663026b1d5f6040518163ffffffff1660e01b8152600401602060405180830381865afa15801561057c573d6000803e3d6000fd5b505050506040513d601f19601f820116820180604052508101906105a091906123a3565b6040516335ea6a7560e01b81526001600160a01b038e8116600483015291909116906335ea6a75906024016101e060405180830381865afa1580156105e9573d6000803e3d6000fd5b505050506040513d601f19601f8201168201806040525081019061060d91906124cd565b905060007f00000000000000000000000000000000000000000000000000000000000000006001600160a01b031663026b1d5f6040518163ffffffff1660e01b8152600401602060405180830381865afa15801561066f573d6000803e3d6000fd5b505050506040513d601f19601f8201168201806040525081019061069391906123a3565b6040517f4417a5830000000000000000000000000000000000000000000000000000000081526001600160a01b038e811660048301529190911690634417a58390602401602060405180830381865afa1580156106f4573d6000803e3d6000fd5b505050506040513d601f19601f820116820180604052508101906107189190612473565b6101008301516040516370a0823160e01b81526001600160a01b038f811660048301529293509116906370a0823190602401602060405180830381865afa158015610767573d6000803e3d6000fd5b505050506040513d601f19601f8201168201806040525081019061078b91906125f0565b6101408301516040516370a0823160e01b81526001600160a01b038f81166004830152929d509116906370a0823190602401602060405180830381865afa1580156107da573d6000803e3d6000fd5b505050506040513d601f19601f820116820180604052508101906107fe91906125f0565b6101208301516040516370a0823160e01b81526001600160a01b038f81166004830152929b509116906370a0823190602401602060405180830381865afa15801561084d573d6000803e3d6000fd5b505050506040513d601f19601f8201168201806040525081019061087191906125f0565b6101208301516040517fc634dfaa0000000000000000000000000000000000000000000000000000000081526001600160a01b038f81166004830152929c5091169063c634dfaa90602401602060405180830381865afa1580156108d9573d6000803e3d6000fd5b505050506040513d601f19601f820116820180604052508101906108fd91906125f0565b6101408301516040517f1da24f3e0000000000000000000000000000000000000000000000000000000081526001600160a01b038f81166004830152929a50911690631da24f3e90602401602060405180830381865afa158015610965573d6000803e3d6000fd5b505050506040513d601f19601f8201168201806040525081019061098991906125f0565b965081604001516001600160801b031694508161012001516001600160a01b031663e78c9b3b8d6040518263ffffffff1660e01b81526004016109db91906001600160a01b0391909116815260200190565b602060405180830381865afa1580156109f8573d6000803e3d6000fd5b505050506040513d601f19601f82011682018060405250810190610a1c91906125f0565b6101208301516040517f79ce6b8c0000000000000000000000000000000000000000000000000000000081526001600160a01b038f811660048301529298509116906379ce6b8c90602401602060405180830381865afa158015610a84573d6000803e3d6000fd5b505050506040513d601f19601f82011682018060405250810190610aa89190612609565b9350610ac58260e0015161ffff16826121bd90919063ffffffff16565b925050509295985092959850929598565b60008060008060008060008060008060008060007f00000000000000000000000000000000000000000000000000000000000000006001600160a01b031663026b1d5f6040518163ffffffff1660e01b8152600401602060405180830381865afa158015610b48573d6000803e3d6000fd5b505050506040513d601f19601f82011682018060405250810190610b6c91906123a3565b6001600160a01b03166335ea6a758f6040518263ffffffff1660e01b8152600401610ba691906001600160a01b0391909116815260200190565b6101e060405180830381865afa158015610bc4573d6000803e3d6000fd5b505050506040513d601f19601f82011682018060405250810190610be891906124cd565b9050806101a001518161018001518261010001516001600160a01b03166318160ddd6040518163ffffffff1660e01b8152600401602060405180830381865afa158015610c39573d6000803e3d6000fd5b505050506040513d601f19601f82011682018060405250810190610c5d91906125f0565b8361012001516001600160a01b03166318160ddd6040518163ffffffff1660e01b8152600401602060405180830381865afa158015610ca0573d6000803e3d6000fd5b505050506040513d601f19601f82011682018060405250810190610cc491906125f0565b8461014001516001600160a01b03166318160ddd6040518163ffffffff1660e01b8152600401602060405180830381865afa158015610d07573d6000803e3d6000fd5b505050506040513d601f19601f82011682018060405250810190610d2b91906125f0565b856040015186608001518760a001518861012001516001600160a01b03166390f6fcf26040518163ffffffff1660e01b8152600401602060405180830381865afa158015610d7d573d6000803e3d6000fd5b505050506040513d601f19601f82011682018060405250810190610da191906125f0565b89602001518a606001518b60c001518b6001600160801b03169b508a6001600160801b03169a50866001600160801b03169650856001600160801b03169550846001600160801b03169450826001600160801b03169250816001600160801b031691509c509c509c509c509c509c509c509c509c509c509c509c505091939597999b5091939597999b565b6000610f2d7f00000000000000000000000000000000000000000000000000000000000000006001600160a01b031663026b1d5f6040518163ffffffff1660e01b8152600401602060405180830381865afa158015610e8f573d6000803e3d6000fd5b505050506040513d601f19601f82011682018060405250810190610eb391906123a3565b60405163c44b11f760e01b81526001600160a01b038581166004830152919091169063c44b11f790602401602060405180830381865afa158015610efb573d6000803e3d6000fd5b505050506040513d601f19601f82011682018060405250810190610f1f9190612473565b5160d41c64ffffffffff1690565b92915050565b6000610f2d7f00000000000000000000000000000000000000000000000000000000000000006001600160a01b031663026b1d5f6040518163ffffffff1660e01b8152600401602060405180830381865afa158015610f96573d6000803e3d6000fd5b505050506040513d601f19601f82011682018060405250810190610fba91906123a3565b60405163c44b11f760e01b81526001600160a01b038581166004830152919091169063c44b11f790602401602060405180830381865afa158015611002573d6000803e3d6000fd5b505050506040513d601f19601f820116820180604052508101906110269190612473565b5160981c61ffff1690565b60008060008060008060008060008060007f00000000000000000000000000000000000000000000000000000000000000006001600160a01b031663026b1d5f6040518163ffffffff1660e01b8152600401602060405180830381865afa1580156110a0573d6000803e3d6000fd5b505050506040513d601f19601f820116820180604052508101906110c491906123a3565b60405163c44b11f760e01b81526001600160a01b038e81166004830152919091169063c44b11f790602401602060405180830381865afa15801561110c573d6000803e3d6000fd5b505050506040513d601f19601f820116820180604052508101906111309190612473565b5160ff603082901c169d61ffff8083169e50601083901c81169d50602083901c81169c50604083901c169a508c151599506704000000000000008216151598506708000000000000008216151597506701000000000000008216151596506702000000000000009091161515945092505050565b6000806112b17f00000000000000000000000000000000000000000000000000000000000000006001600160a01b031663026b1d5f6040518163ffffffff1660e01b8152600401602060405180830381865afa158015611208573d6000803e3d6000fd5b505050506040513d601f19601f8201168201806040525081019061122c91906123a3565b60405163c44b11f760e01b81526001600160a01b038681166004830152919091169063c44b11f790602401602060405180830381865afa158015611274573d6000803e3d6000fd5b505050506040513d601f19601f820116820180604052508101906112989190612473565b51640fffffffff605082901c81169260749290921c1690565b9094909350915050565b6000807f00000000000000000000000000000000000000000000000000000000000000006001600160a01b031663026b1d5f6040518163ffffffff1660e01b8152600401602060405180830381865afa15801561131c573d6000803e3d6000fd5b505050506040513d601f19601f8201168201806040525081019061134091906123a3565b6040516335ea6a7560e01b81526001600160a01b03858116600483015291909116906335ea6a75906024016101e060405180830381865afa158015611389573d6000803e3d6000fd5b505050506040513d601f19601f820116820180604052508101906113ad91906124cd565b90508061014001516001600160a01b03166318160ddd6040518163ffffffff1660e01b8152600401602060405180830381865afa1580156113f2573d6000803e3d6000fd5b505050506040513d601f19601f8201168201806040525081019061141691906125f0565b8161012001516001600160a01b03166318160ddd6040518163ffffffff1660e01b8152600401602060405180830381865afa158015611459573d6000803e3d6000fd5b505050506040513d601f19601f8201168201806040525081019061147d91906125f0565b610508919061263a565b6000807f00000000000000000000000000000000000000000000000000000000000000006001600160a01b031663026b1d5f6040518163ffffffff1660e01b8152600401602060405180830381865afa1580156114e8573d6000803e3d6000fd5b505050506040513d601f19601f8201168201806040525081019061150c91906123a3565b6040516335ea6a7560e01b81526001600160a01b03858116600483015291909116906335ea6a75906024016101e060405180830381865afa158015611555573d6000803e3d6000fd5b505050506040513d601f19601f8201168201806040525081019061157991906124cd565b90508061010001516001600160a01b03166318160ddd6040518163ffffffff1660e01b8152600401602060405180830381865afa1580156115be573d6000803e3d6000fd5b505050506040513d601f19601f8201168201806040525081019061050891906125f0565b6000807f00000000000000000000000000000000000000000000000000000000000000006001600160a01b031663026b1d5f6040518163ffffffff1660e01b8152600401602060405180830381865afa158015611643573d6000803e3d6000fd5b505050506040513d601f19601f8201168201806040525081019061166791906123a3565b6040516335ea6a7560e01b81526001600160a01b03858116600483015291909116906335ea6a75906024016101e060405180830381865afa1580156116b0573d6000803e3d6000fd5b505050506040513d601f19601f820116820180604052508101906116d491906124cd565b61016001519392505050565b6000610f2d7f00000000000000000000000000000000000000000000000000000000000000006001600160a01b031663026b1d5f6040518163ffffffff1660e01b8152600401602060405180830381865afa158015611743573d6000803e3d6000fd5b505050506040513d601f19601f8201168201806040525081019061176791906123a3565b60405163c44b11f760e01b81526001600160a01b038581166004830152919091169063c44b11f790602401602060405180830381865afa1580156117af573d6000803e3d6000fd5b505050506040513d601f19601f820116820180604052508101906117d39190612473565b5160b01c640fffffffff1690565b606060007f00000000000000000000000000000000000000000000000000000000000000006001600160a01b031663026b1d5f6040518163ffffffff1660e01b8152600401602060405180830381865afa158015611843573d6000803e3d6000fd5b505050506040513d601f19601f8201168201806040525081019061186791906123a3565b90506000816001600160a01b031663d1946dbc6040518163ffffffff1660e01b8152600401600060405180830381865afa1580156118a9573d6000803e3d6000fd5b505050506040513d6000823e601f3d908101601f191682016040526118d19190810190612652565b90506000815167ffffffffffffffff8111156118ef576118ef6123c0565b60405190808252806020026020018201604052801561193557816020015b60408051808201909152606081526000602082015281526020019060019003908161190d5790505b50905060005b8251811015611b9d57739f8f72aa9304c8b593d555f12ef6589cc3a579a26001600160a01b031683828151811061197457611974612704565b60200260200101516001600160a01b03161415611a195760405180604001604052806040518060400160405280600381526020017f4d4b52000000000000000000000000000000000000000000000000000000000081525081526020018483815181106119e3576119e3612704565b60200260200101516001600160a01b0316815250828281518110611a0957611a09612704565b6020026020010181905250611b8b565b73eeeeeeeeeeeeeeeeeeeeeeeeeeeeeeeeeeeeeeee6001600160a01b0316838281518110611a4957611a49612704565b60200260200101516001600160a01b03161415611ab85760405180604001604052806040518060400160405280600381526020017f455448000000000000000000000000000000000000000000000000000000000081525081526020018483815181106119e3576119e3612704565b6040518060400160405280848381518110611ad557611ad5612704565b60200260200101516001600160a01b03166395d89b416040518163ffffffff1660e01b8152600401600060405180830381865afa158015611b1a573d6000803e3d6000fd5b505050506040513d6000823e601f3d908101601f19168201604052611b42919081019061271a565b8152602001848381518110611b5957611b59612704565b60200260200101516001600160a01b0316815250828281518110611b7f57611b7f612704565b60200260200101819052505b80611b95816127ae565b91505061193b565b509392505050565b6000611ce07f00000000000000000000000000000000000000000000000000000000000000006001600160a01b031663026b1d5f6040518163ffffffff1660e01b8152600401602060405180830381865afa158015611c08573d6000803e3d6000fd5b505050506040513d601f19601f82011682018060405250810190611c2c91906123a3565b60405163c44b11f760e01b81526001600160a01b038581166004830152919091169063c44b11f790602401602060405180830381865afa158015611c74573d6000803e3d6000fd5b505050506040513d601f19601f82011682018060405250810190611c989190612473565b51670100000000000000811615159167020000000000000082161515916704000000000000008116151591670800000000000000821615159167100000000000000016151590565b9695505050505050565b6000806000807f00000000000000000000000000000000000000000000000000000000000000006001600160a01b031663026b1d5f6040518163ffffffff1660e01b8152600401602060405180830381865afa158015611d4e573d6000803e3d6000fd5b505050506040513d601f19601f82011682018060405250810190611d7291906123a3565b6040516335ea6a7560e01b81526001600160a01b03878116600483015291909116906335ea6a75906024016101e060405180830381865afa158015611dbb573d6000803e3d6000fd5b505050506040513d601f19601f82011682018060405250810190611ddf91906124cd565b610100810151610120820151610140909201519097919650945092505050565b606060007f00000000000000000000000000000000000000000000000000000000000000006001600160a01b031663026b1d5f6040518163ffffffff1660e01b8152600401602060405180830381865afa158015611e61573d6000803e3d6000fd5b505050506040513d601f19601f82011682018060405250810190611e8591906123a3565b90506000816001600160a01b031663d1946dbc6040518163ffffffff1660e01b8152600401600060405180830381865afa158015611ec7573d6000803e3d6000fd5b505050506040513d6000823e601f3d908101601f19168201604052611eef9190810190612652565b90506000815167ffffffffffffffff811115611f0d57611f0d6123c0565b604051908082528060200260200182016040528015611f5357816020015b604080518082019091526060815260006020820152815260200190600190039081611f2b5790505b50905060005b8251811015611b9d576000846001600160a01b03166335ea6a75858481518110611f8557611f85612704565b60200260200101516040518263ffffffff1660e01b8152600401611fb891906001600160a01b0391909116815260200190565b6101e060405180830381865afa158015611fd6573d6000803e3d6000fd5b505050506040513d601f19601f82011682018060405250810190611ffa91906124cd565b905060405180604001604052808261010001516001600160a01b03166395d89b416040518163ffffffff1660e01b8152600401600060405180830381865afa15801561204a573d6000803e3d6000fd5b505050506040513d6000823e601f3d908101601f19168201604052612072919081019061271a565b81526020018261010001516001600160a01b031681525083838151811061209b5761209b612704565b60200260200101819052505080806120b2906127ae565b915050611f59565b6000610f2d7f00000000000000000000000000000000000000000000000000000000000000006001600160a01b031663026b1d5f6040518163ffffffff1660e01b8152600401602060405180830381865afa15801561211d573d6000803e3d6000fd5b505050506040513d601f19601f8201168201806040525081019061214191906123a3565b60405163c44b11f760e01b81526001600160a01b038581166004830152919091169063c44b11f790602401602060405180830381865afa158015612189573d6000803e3d6000fd5b505050506040513d601f19601f820116820180604052508101906121ad9190612473565b5167400000000000000016151590565b60408051808201909152600281527f3734000000000000000000000000000000000000000000000000000000000000602082015260009060808310612238576040517f08c379a000000000000000000000000000000000000000000000000000000000815260040161222f91906127c9565b60405180910390fd5b50509051600191821b82011c16151590565b6001600160a01b038116811461225f57600080fd5b50565b60006020828403121561227457600080fd5b81356105088161224a565b6000806040838503121561229257600080fd5b823561229d8161224a565b915060208301356122ad8161224a565b809150509250929050565b60005b838110156122d35781810151838201526020016122bb565b838111156122e2576000848401525b50505050565b600081518084526123008160208601602086016122b8565b601f01601f19169290920160200192915050565b60006020808301818452808551808352604092508286019150828160051b87010184880160005b8381101561238557888303603f190185528151805187855261235f888601826122e8565b918901516001600160a01b0316948901949094529487019492509086019060010161233b565b509098975050505050505050565b805161239e8161224a565b919050565b6000602082840312156123b557600080fd5b81516105088161224a565b634e487b7160e01b600052604160045260246000fd5b6040516101e0810167ffffffffffffffff811182821017156123fa576123fa6123c0565b60405290565b604051601f8201601f1916810167ffffffffffffffff81118282101715612429576124296123c0565b604052919050565b60006020828403121561244357600080fd5b6040516020810181811067ffffffffffffffff82111715612466576124666123c0565b6040529151825250919050565b60006020828403121561248557600080fd5b6105088383612431565b80516001600160801b038116811461239e57600080fd5b805164ffffffffff8116811461239e57600080fd5b805161ffff8116811461239e57600080fd5b60006101e082840312156124e057600080fd5b6124e86123d6565b6124f28484612431565b81526125006020840161248f565b60208201526125116040840161248f565b60408201526125226060840161248f565b60608201526125336080840161248f565b608082015261254460a0840161248f565b60a082015261255560c084016124a6565b60c082015261256660e084016124bb565b60e0820152610100612579818501612393565b9082015261012061258b848201612393565b9082015261014061259d848201612393565b908201526101606125af848201612393565b908201526101806125c184820161248f565b908201526101a06125d384820161248f565b908201526101c06125e584820161248f565b908201529392505050565b60006020828403121561260257600080fd5b5051919050565b60006020828403121561261b57600080fd5b610508826124a6565b634e487b7160e01b600052601160045260246000fd5b6000821982111561264d5761264d612624565b500190565b6000602080838503121561266557600080fd5b825167ffffffffffffffff8082111561267d57600080fd5b818501915085601f83011261269157600080fd5b8151818111156126a3576126a36123c0565b8060051b91506126b4848301612400565b81815291830184019184810190888411156126ce57600080fd5b938501935b838510156126f857845192506126e88361224a565b82825293850193908501906126d3565b98975050505050505050565b634e487b7160e01b600052603260045260246000fd5b60006020828403121561272c57600080fd5b815167ffffffffffffffff8082111561274457600080fd5b818401915084601f83011261275857600080fd5b81518181111561276a5761276a6123c0565b61277d601f8201601f1916602001612400565b915080825285602082850101111561279457600080fd5b6127a58160208401602086016122b8565b50949350505050565b60006000198214156127c2576127c2612624565b5060010190565b60208152600061050860208301846122e856fea26469706673582212209e567604b68874e9c866b94045ea9c376f64b379d556e8c10739cfcdd56cbc1f64736f6c634300080a0033",
  "linkReferences": {},
  "deployedLinkReferences": {}
}