{
  "_format": "hh-sol-artifact-1",
  "contractName": "VaultFactory",
  "sourceName": "contracts/VaultFactory.sol",
  "abi": [
    {
      "inputs": [
        {
          "internalType": "address",
          "name": "_padlock",
          "type": "address"
        },
        {
          "internalType": "contract IERC20",
          "name": "_weth",
          "type": "address"
        },
        {
          "internalType": "contract IPoolAddressesProvider",
          "name": "_poolAddressProvider",
          "type": "address"
        },
        {
          "internalType": "contract IRewardsController",
          "name": "_incentives",
          "type": "address"
        }
      ],
      "stateMutability": "nonpayable",
      "type": "constructor"
    },
    {
      "inputs": [],
      "name": "create",
      "outputs": [
        {
          "internalType": "contract Vault",
          "name": "vault",
          "type": "address"
        }
      ],
      "stateMutability": "nonpayable",
      "type": "function"
    },
    {
      "inputs": [],
      "name": "padlock",
      "outputs": [
        {
          "internalType": "address",
          "name": "",
          "type": "address"
        }
      ],
      "stateMutability": "view",
      "type": "function"
    },
    {
      "inputs": [],
      "name": "vaultOriginAddress",
      "outputs": [
        {
          "internalType": "address",
          "name": "",
          "type": "address"
        }
      ],
      "stateMutability": "view",
      "type": "function"
    }
  ],
  "bytecode": "0x60c060405234801561001057600080fd5b5060405161142938038061142983398101604081905261002f916100c6565b6001600160a01b03841660805260405183908390839061004e906100a1565b6001600160a01b03938416815291831660208301529091166040820152606001604051809103906000f08015801561008a573d6000803e3d6000fd5b506001600160a01b031660a0525061012592505050565b6110258061040483390190565b6001600160a01b03811681146100c357600080fd5b50565b600080600080608085870312156100dc57600080fd5b84516100e7816100ae565b60208601519094506100f8816100ae565b6040860151909350610109816100ae565b606086015190925061011a816100ae565b939692955090935050565b60805160a0516102af61015560003960008181604b015260c7015260008181609b015261012801526102af6000f3fe608060405234801561001057600080fd5b50600436106100415760003560e01c806374d11fa814610046578063bca6400014610096578063efc81a8c146100bd575b600080fd5b61006d7f000000000000000000000000000000000000000000000000000000000000000081565b60405173ffffffffffffffffffffffffffffffffffffffff909116815260200160405180910390f35b61006d7f000000000000000000000000000000000000000000000000000000000000000081565b61006d60006100eb7f0000000000000000000000000000000000000000000000000000000000000000610193565b6040517f19ab453c00000000000000000000000000000000000000000000000000000000815273ffffffffffffffffffffffffffffffffffffffff7f000000000000000000000000000000000000000000000000000000000000000081166004830152919250908216906319ab453c90602401600060405180830381600087803b15801561017857600080fd5b505af115801561018c573d6000803e3d6000fd5b5050505090565b60006040517f3d602d80600a3d3981f3363d3d373d3d3d363d7300000000000000000000000081528260601b60148201527f5af43d82803e903d91602b57fd5bf3000000000000000000000000000000000060288201526037816000f091505073ffffffffffffffffffffffffffffffffffffffff8116610274576040517f08c379a000000000000000000000000000000000000000000000000000000000815260206004820152601660248201527f455243313136373a20637265617465206661696c656400000000000000000000604482015260640160405180910390fd5b91905056fea2646970667358221220f13b287f77fca36d3ac5330989f92806fd7b78a700f10006a3a877d97b4cef1c64736f6c634300080a00336101006040523480156200001257600080fd5b506040516200102538038062001025833981016040819052620000359162000166565b826001600160a01b03166080816001600160a01b031681525050816001600160a01b031663026b1d5f6040518163ffffffff1660e01b8152600401602060405180830381865afa1580156200008e573d6000803e3d6000fd5b505050506040513d601f19601f82011682018060405250810190620000b49190620001ba565b6001600160a01b031660a0816001600160a01b031681525050816001600160a01b031663e860accb6040518163ffffffff1660e01b8152600401602060405180830381865afa1580156200010c573d6000803e3d6000fd5b505050506040513d601f19601f82011682018060405250810190620001329190620001ba565b6001600160a01b0390811660c0521660e05250620001e19050565b6001600160a01b03811681146200016357600080fd5b50565b6000806000606084860312156200017c57600080fd5b835162000189816200014d565b60208501519093506200019c816200014d565b6040850151909250620001af816200014d565b809150509250925092565b600060208284031215620001cd57600080fd5b8151620001da816200014d565b9392505050565b60805160a05160c05160e051610db062000275600039600081816101c501526108e0015260008181610181015281816102b6015261080301526000818160f80152818161040101528181610623015261072c0152600081816101470152818161028e015281816103cc015281816104b10152818161058301528181610652015281816106f001526107d50152610db06000f3fe608060405234801561001057600080fd5b50600436106100be5760003560e01c806368fd2d8011610076578063853828b61161005b578063853828b6146101a35780638cc5ce99146101c05780638da5cb5b146101e757600080fd5b806368fd2d801461016957806383af752c1461017c57600080fd5b806319ab453c116100a757806319ab453c1461011a5780632e1a7d4d1461012f5780633fc8cef31461014257600080fd5b806314ad1e04146100c357806316f0115b146100f3575b600080fd5b6100d66100d13660046109ad565b6101fa565b6040516001600160a01b0390911681526020015b60405180910390f35b6100d67f000000000000000000000000000000000000000000000000000000000000000081565b61012d6101283660046109de565b610224565b005b61012d61013d3660046109ad565b610385565b6100d67f000000000000000000000000000000000000000000000000000000000000000081565b61012d6101773660046109ad565b610524565b6100d67f000000000000000000000000000000000000000000000000000000000000000081565b6101ab61078b565b604080519283526020830191909152016100ea565b6100d67f000000000000000000000000000000000000000000000000000000000000000081565b6000546100d6906001600160a01b031681565b6001818154811061020a57600080fd5b6000918252602090912001546001600160a01b0316905081565b6000546001600160a01b03161561023a57600080fd5b6000805473ffffffffffffffffffffffffffffffffffffffff19166001600160a01b038381169190911782556040517fd2493b6c0000000000000000000000000000000000000000000000000000000081527f0000000000000000000000000000000000000000000000000000000000000000821660048201527f00000000000000000000000000000000000000000000000000000000000000009091169063d2493b6c90602401606060405180830381865afa1580156102ff573d6000803e3d6000fd5b505050506040513d601f19601f820116820180604052508101906103239190610a02565b50506001805480820182556000919091527fb10e2d527612073b26eecdfd717e6a320cf44b4afac2b0732d9fcbe2b7fa0cf601805473ffffffffffffffffffffffffffffffffffffffff19166001600160a01b03929092169190911790555050565b6000546001600160a01b0316331461039c57600080fd5b6040517f69328dec0000000000000000000000000000000000000000000000000000000081526001600160a01b037f000000000000000000000000000000000000000000000000000000000000000081166004830152602482018390523060448301527f000000000000000000000000000000000000000000000000000000000000000016906369328dec906064016020604051808303816000875af115801561044a573d6000803e3d6000fd5b505050506040513d601f19601f8201168201806040525081019061046e9190610a4f565b506000546040517fa9059cbb0000000000000000000000000000000000000000000000000000000081526001600160a01b039182166004820152602481018390527f00000000000000000000000000000000000000000000000000000000000000009091169063a9059cbb906044016020604051808303816000875af11580156104fc573d6000803e3d6000fd5b505050506040513d601f19601f820116820180604052508101906105209190610a7d565b5050565b6000546001600160a01b0316331461053b57600080fd5b6000546040517f23b872dd0000000000000000000000000000000000000000000000000000000081526001600160a01b039182166004820152306024820152604481018390527f0000000000000000000000000000000000000000000000000000000000000000909116906323b872dd906064016020604051808303816000875af11580156105ce573d6000803e3d6000fd5b505050506040513d601f19601f820116820180604052508101906105f29190610a7d565b506040517f095ea7b30000000000000000000000000000000000000000000000000000000081526001600160a01b037f000000000000000000000000000000000000000000000000000000000000000081166004830152602482018390527f0000000000000000000000000000000000000000000000000000000000000000169063095ea7b3906044016020604051808303816000875af115801561069b573d6000803e3d6000fd5b505050506040513d601f19601f820116820180604052508101906106bf9190610a7d565b506040517fe8eda9df0000000000000000000000000000000000000000000000000000000081526001600160a01b037f00000000000000000000000000000000000000000000000000000000000000008116600483015260248201839052306044830152600060648301527f0000000000000000000000000000000000000000000000000000000000000000169063e8eda9df90608401600060405180830381600087803b15801561077057600080fd5b505af1158015610784573d6000803e3d6000fd5b5050505050565b6000805481906001600160a01b031633146107a557600080fd5b6040517f28dd2d010000000000000000000000000000000000000000000000000000000081526001600160a01b037f0000000000000000000000000000000000000000000000000000000000000000811660048301523060248301527f000000000000000000000000000000000000000000000000000000000000000016906328dd2d019060440161012060405180830381865afa15801561084b573d6000803e3d6000fd5b505050506040513d601f19601f8201168201806040525081019061086f9190610a98565b509698506108869650889550610385945050505050565b61088e610894565b90509091565b600080546001600160a01b031633146108ac57600080fd5b600080546040517fbb492bf50000000000000000000000000000000000000000000000000000000081526001600160a01b037f000000000000000000000000000000000000000000000000000000000000000081169263bb492bf592610919926001921690600401610b1b565b6000604051808303816000875af1158015610938573d6000803e3d6000fd5b505050506040513d6000823e601f3d908101601f191682016040526109609190810190610c56565b91505060005b81518110156109a85781818151811061098157610981610d1b565b6020026020010151836109949190610d47565b9250806109a081610d5f565b915050610966565b505090565b6000602082840312156109bf57600080fd5b5035919050565b6001600160a01b03811681146109db57600080fd5b50565b6000602082840312156109f057600080fd5b81356109fb816109c6565b9392505050565b600080600060608486031215610a1757600080fd5b8351610a22816109c6565b6020850151909350610a33816109c6565b6040850151909250610a44816109c6565b809150509250925092565b600060208284031215610a6157600080fd5b5051919050565b80518015158114610a7857600080fd5b919050565b600060208284031215610a8f57600080fd5b6109fb82610a68565b60008060008060008060008060006101208a8c031215610ab757600080fd5b8951985060208a0151975060408a0151965060608a0151955060808a0151945060a08a0151935060c08a0151925060e08a015164ffffffffff81168114610afd57600080fd5b9150610b0c6101008b01610a68565b90509295985092959850929598565b6000604082016040835280855480835260608501915086600052602092508260002060005b82811015610b655781546001600160a01b031684529284019260019182019101610b40565b5050506001600160a01b039490941692019190915250919050565b634e487b7160e01b600052604160045260246000fd5b604051601f8201601f1916810167ffffffffffffffff81118282101715610bbf57610bbf610b80565b604052919050565b600067ffffffffffffffff821115610be157610be1610b80565b5060051b60200190565b600082601f830112610bfc57600080fd5b81516020610c11610c0c83610bc7565b610b96565b82815260059290921b84018101918181019086841115610c3057600080fd5b8286015b84811015610c4b5780518352918301918301610c34565b509695505050505050565b60008060408385031215610c6957600080fd5b825167ffffffffffffffff80821115610c8157600080fd5b818501915085601f830112610c9557600080fd5b81516020610ca5610c0c83610bc7565b82815260059290921b84018101918181019089841115610cc457600080fd5b948201945b83861015610ceb578551610cdc816109c6565b82529482019490820190610cc9565b91880151919650909350505080821115610d0457600080fd5b50610d1185828601610beb565b9150509250929050565b634e487b7160e01b600052603260045260246000fd5b634e487b7160e01b600052601160045260246000fd5b60008219821115610d5a57610d5a610d31565b500190565b6000600019821415610d7357610d73610d31565b506001019056fea2646970667358221220d284d5ee5699c308d0d61674502f83bfdb8409a59b1c312b46ba6ddfeac7f8c764736f6c634300080a0033",
  "linkReferences": {},
  "deployedLinkReferences": {}
}