{
  "_format": "hh-sol-artifact-1",
  "contractName": "ERC721NFT",
  "sourceName": "contracts/nfts/ERC721NFT.sol",
  "abi": [
    {
      "inputs": [
        {
          "internalType": "string",
          "name": "_name",
          "type": "string"
        },
        {
          "internalType": "string",
          "name": "_symbol",
          "type": "string"
        }
      ],
      "stateMutability": "nonpayable",
      "type": "constructor"
    },
    {
      "anonymous": false,
      "inputs": [
        {
          "indexed": true,
          "internalType": "address",
          "name": "owner",
          "type": "address"
        },
        {
          "indexed": true,
          "internalType": "address",
          "name": "approved",
          "type": "address"
        },
        {
          "indexed": true,
          "internalType": "uint256",
          "name": "tokenId",
          "type": "uint256"
        }
      ],
      "name": "Approval",
      "type": "event"
    },
    {
      "anonymous": false,
      "inputs": [
        {
          "indexed": true,
          "internalType": "address",
          "name": "owner",
          "type": "address"
        },
        {
          "indexed": true,
          "internalType": "address",
          "name": "operator",
          "type": "address"
        },
        {
          "indexed": false,
          "internalType": "bool",
          "name": "approved",
          "type": "bool"
        }
      ],
      "name": "ApprovalForAll",
      "type": "event"
    },
    {
      "anonymous": false,
      "inputs": [
        {
          "indexed": true,
          "internalType": "uint256",
          "name": "tokenId",
          "type": "uint256"
        }
      ],
      "name": "Burn",
      "type": "event"
    },
    {
      "anonymous": false,
      "inputs": [
        {
          "indexed": true,
          "internalType": "uint256",
          "name": "tokenId",
          "type": "uint256"
        },
        {
          "indexed": false,
          "internalType": "string",
          "name": "tokenURI",
          "type": "string"
        }
      ],
      "name": "Mint",
      "type": "event"
    },
    {
      "anonymous": false,
      "inputs": [
        {
          "indexed": true,
          "internalType": "address",
          "name": "previousOwner",
          "type": "address"
        },
        {
          "indexed": true,
          "internalType": "address",
          "name": "newOwner",
          "type": "address"
        }
      ],
      "name": "OwnershipTransferred",
      "type": "event"
    },
    {
      "anonymous": false,
      "inputs": [
        {
          "indexed": true,
          "internalType": "address",
          "name": "from",
          "type": "address"
        },
        {
          "indexed": true,
          "internalType": "address",
          "name": "to",
          "type": "address"
        },
        {
          "indexed": true,
          "internalType": "uint256",
          "name": "tokenId",
          "type": "uint256"
        }
      ],
      "name": "Transfer",
      "type": "event"
    },
    {
      "inputs": [
        {
          "internalType": "address",
          "name": "to",
          "type": "address"
        },
        {
          "internalType": "uint256",
          "name": "tokenId",
          "type": "uint256"
        }
      ],
      "name": "approve",
      "outputs": [],
      "stateMutability": "nonpayable",
      "type": "function"
    },
    {
      "inputs": [
        {
          "internalType": "address",
          "name": "owner",
          "type": "address"
        }
      ],
      "name": "balanceOf",
      "outputs": [
        {
          "internalType": "uint256",
          "name": "",
          "type": "uint256"
        }
      ],
      "stateMutability": "view",
      "type": "function"
    },
    {
      "inputs": [
        {
          "internalType": "uint256",
          "name": "tokenId",
          "type": "uint256"
        }
      ],
      "name": "burn",
      "outputs": [],
      "stateMutability": "nonpayable",
      "type": "function"
    },
    {
      "inputs": [
        {
          "internalType": "uint256",
          "name": "tokenId",
          "type": "uint256"
        }
      ],
      "name": "getApproved",
      "outputs": [
        {
          "internalType": "address",
          "name": "",
          "type": "address"
        }
      ],
      "stateMutability": "view",
      "type": "function"
    },
    {
      "inputs": [
        {
          "internalType": "address",
          "name": "owner",
          "type": "address"
        },
        {
          "internalType": "address",
          "name": "operator",
          "type": "address"
        }
      ],
      "name": "isApprovedForAll",
      "outputs": [
        {
          "internalType": "bool",
          "name": "",
          "type": "bool"
        }
      ],
      "stateMutability": "view",
      "type": "function"
    },
    {
      "inputs": [
        {
          "internalType": "string",
          "name": "tokenURI",
          "type": "string"
        }
      ],
      "name": "mint",
      "outputs": [
        {
          "internalType": "uint256",
          "name": "",
          "type": "uint256"
        }
      ],
      "stateMutability": "nonpayable",
      "type": "function"
    },
    {
      "inputs": [],
      "name": "name",
      "outputs": [
        {
          "internalType": "string",
          "name": "",
          "type": "string"
        }
      ],
      "stateMutability": "view",
      "type": "function"
    },
    {
      "inputs": [],
      "name": "owner",
      "outputs": [
        {
          "internalType": "address",
          "name": "",
          "type": "address"
        }
      ],
      "stateMutability": "view",
      "type": "function"
    },
    {
      "inputs": [
        {
          "internalType": "uint256",
          "name": "tokenId",
          "type": "uint256"
        }
      ],
      "name": "ownerOf",
      "outputs": [
        {
          "internalType": "address",
          "name": "",
          "type": "address"
        }
      ],
      "stateMutability": "view",
      "type": "function"
    },
    {
      "inputs": [],
      "name": "renounceOwnership",
      "outputs": [],
      "stateMutability": "nonpayable",
      "type": "function"
    },
    {
      "inputs": [
        {
          "internalType": "address",
          "name": "from",
          "type": "address"
        },
        {
          "internalType": "address",
          "name": "to",
          "type": "address"
        },
        {
          "internalType": "uint256",
          "name": "tokenId",
          "type": "uint256"
        }
      ],
      "name": "safeTransferFrom",
      "outputs": [],
      "stateMutability": "nonpayable",
      "type": "function"
    },
    {
      "inputs": [
        {
          "internalType": "address",
          "name": "from",
          "type": "address"
        },
        {
          "internalType": "address",
          "name": "to",
          "type": "address"
        },
        {
          "internalType": "uint256",
          "name": "tokenId",
          "type": "uint256"
        },
        {
          "internalType": "bytes",
          "name": "_data",
          "type": "bytes"
        }
      ],
      "name": "safeTransferFrom",
      "outputs": [],
      "stateMutability": "nonpayable",
      "type": "function"
    },
    {
      "inputs": [
        {
          "internalType": "address",
          "name": "operator",
          "type": "address"
        },
        {
          "internalType": "bool",
          "name": "approved",
          "type": "bool"
        }
      ],
      "name": "setApprovalForAll",
      "outputs": [],
      "stateMutability": "nonpayable",
      "type": "function"
    },
    {
      "inputs": [
        {
          "internalType": "bytes4",
          "name": "interfaceId",
          "type": "bytes4"
        }
      ],
      "name": "supportsInterface",
      "outputs": [
        {
          "internalType": "bool",
          "name": "",
          "type": "bool"
        }
      ],
      "stateMutability": "view",
      "type": "function"
    },
    {
      "inputs": [],
      "name": "symbol",
      "outputs": [
        {
          "internalType": "string",
          "name": "",
          "type": "string"
        }
      ],
      "stateMutability": "view",
      "type": "function"
    },
    {
      "inputs": [
        {
          "internalType": "uint256",
          "name": "tokenId",
          "type": "uint256"
        }
      ],
      "name": "tokenURI",
      "outputs": [
        {
          "internalType": "string",
          "name": "",
          "type": "string"
        }
      ],
      "stateMutability": "view",
      "type": "function"
    },
    {
      "inputs": [
        {
          "internalType": "address",
          "name": "from",
          "type": "address"
        },
        {
          "internalType": "address",
          "name": "to",
          "type": "address"
        },
        {
          "internalType": "uint256",
          "name": "tokenId",
          "type": "uint256"
        }
      ],
      "name": "transferFrom",
      "outputs": [],
      "stateMutability": "nonpayable",
      "type": "function"
    },
    {
      "inputs": [
        {
          "internalType": "address",
          "name": "newOwner",
          "type": "address"
        }
      ],
      "name": "transferOwnership",
      "outputs": [],
      "stateMutability": "nonpayable",
      "type": "function"
    },
    {
      "inputs": [
        {
          "internalType": "uint256",
          "name": "tokenId",
          "type": "uint256"
        },
        {
          "internalType": "string",
          "name": "tokenURI",
          "type": "string"
        }
      ],
      "name": "updateTokenURI",
      "outputs": [],
      "stateMutability": "nonpayable",
      "type": "function"
    }
  ],
  "bytecode": "0x60806040523480156200001157600080fd5b50604051620021803803806200218083398101604081905262000034916200023a565b8181620000413362000077565b815162000056906001906020850190620000c7565b5080516200006c906002906020840190620000c7565b5050505050620002e1565b600080546001600160a01b038381166001600160a01b0319831681178455604051919092169283917f8be0079c531659141344cd1fd0a4f28419497f9722a3daafe3b4186f6b6457e09190a35050565b828054620000d590620002a4565b90600052602060002090601f016020900481019282620000f9576000855562000144565b82601f106200011457805160ff191683800117855562000144565b8280016001018555821562000144579182015b828111156200014457825182559160200191906001019062000127565b506200015292915062000156565b5090565b5b8082111562000152576000815560010162000157565b634e487b7160e01b600052604160045260246000fd5b600082601f8301126200019557600080fd5b81516001600160401b0380821115620001b257620001b26200016d565b604051601f8301601f19908116603f01168101908282118183101715620001dd57620001dd6200016d565b81604052838152602092508683858801011115620001fa57600080fd5b600091505b838210156200021e5785820183015181830184015290820190620001ff565b83821115620002305760008385830101525b9695505050505050565b600080604083850312156200024e57600080fd5b82516001600160401b03808211156200026657600080fd5b620002748683870162000183565b935060208501519150808211156200028b57600080fd5b506200029a8582860162000183565b9150509250929050565b600181811c90821680620002b957607f821691505b60208210811415620002db57634e487b7160e01b600052602260045260246000fd5b50919050565b611e8f80620002f16000396000f3fe608060405234801561001057600080fd5b50600436106101515760003560e01c806370a08231116100cd578063b88d4fde11610081578063d85d3d2711610066578063d85d3d27146102ad578063e985e9c5146102c0578063f2fde38b146102fc57600080fd5b8063b88d4fde14610287578063c87b56dd1461029a57600080fd5b80638da5cb5b116100b25780638da5cb5b1461025b57806395d89b411461026c578063a22cb4651461027457600080fd5b806370a0823114610232578063715018a61461025357600080fd5b806318e97fd11161012457806342842e0e1161010957806342842e0e146101f957806342966c681461020c5780636352211e1461021f57600080fd5b806318e97fd1146101d357806323b872dd146101e657600080fd5b806301ffc9a71461015657806306fdde031461017e578063081812fc14610193578063095ea7b3146101be575b600080fd5b610169610164366004611996565b61030f565b60405190151581526020015b60405180910390f35b6101866103ac565b6040516101759190611a0b565b6101a66101a1366004611a1e565b61043e565b6040516001600160a01b039091168152602001610175565b6101d16101cc366004611a4e565b6104d8565b005b6101d16101e1366004611b24565b61060a565b6101d16101f4366004611b6b565b610672565b6101d1610207366004611b6b565b6106f9565b6101d161021a366004611a1e565b610714565b6101a661022d366004611a1e565b6107a5565b610245610240366004611ba7565b610830565b604051908152602001610175565b6101d16108ca565b6000546001600160a01b03166101a6565b610186610930565b6101d1610282366004611bc2565b61093f565b6101d1610295366004611bfe565b61094a565b6101866102a8366004611a1e565b6109d8565b6102456102bb366004611c7a565b610b6b565b6101696102ce366004611caf565b6001600160a01b03918216600090815260066020908152604080832093909416825291909152205460ff1690565b6101d161030a366004611ba7565b610c35565b60006001600160e01b031982167f80ac58cd00000000000000000000000000000000000000000000000000000000148061037257506001600160e01b031982167f5b5e139f00000000000000000000000000000000000000000000000000000000145b806103a657507f01ffc9a7000000000000000000000000000000000000000000000000000000006001600160e01b03198316145b92915050565b6060600180546103bb90611ce2565b80601f01602080910402602001604051908101604052809291908181526020018280546103e790611ce2565b80156104345780601f1061040957610100808354040283529160200191610434565b820191906000526020600020905b81548152906001019060200180831161041757829003601f168201915b5050505050905090565b6000818152600360205260408120546001600160a01b03166104bc5760405162461bcd60e51b815260206004820152602c60248201527f4552433732313a20617070726f76656420717565727920666f72206e6f6e657860448201526b34b9ba32b73a103a37b5b2b760a11b60648201526084015b60405180910390fd5b506000908152600560205260409020546001600160a01b031690565b60006104e3826107a5565b9050806001600160a01b0316836001600160a01b0316141561056d5760405162461bcd60e51b815260206004820152602160248201527f4552433732313a20617070726f76616c20746f2063757272656e74206f776e6560448201527f720000000000000000000000000000000000000000000000000000000000000060648201526084016104b3565b336001600160a01b0382161480610589575061058981336102ce565b6105fb5760405162461bcd60e51b815260206004820152603860248201527f4552433732313a20617070726f76652063616c6c6572206973206e6f74206f7760448201527f6e6572206e6f7220617070726f76656420666f7220616c6c000000000000000060648201526084016104b3565b6106058383610d17565b505050565b6000546001600160a01b031633146106645760405162461bcd60e51b815260206004820181905260248201527f4f776e61626c653a2063616c6c6572206973206e6f7420746865206f776e657260448201526064016104b3565b61066e8282610d85565b5050565b61067c3382610e2e565b6106ee5760405162461bcd60e51b815260206004820152603160248201527f4552433732313a207472616e736665722063616c6c6572206973206e6f74206f60448201527f776e6572206e6f7220617070726f76656400000000000000000000000000000060648201526084016104b3565b610605838383610f21565b6106058383836040518060200160405280600081525061094a565b6000546001600160a01b0316331461076e5760405162461bcd60e51b815260206004820181905260248201527f4f776e61626c653a2063616c6c6572206973206e6f7420746865206f776e657260448201526064016104b3565b610777816110ee565b60405181907fb90306ad06b2a6ff86ddc9327db583062895ef6540e62dc50add009db5b356eb90600090a250565b6000818152600360205260408120546001600160a01b0316806103a65760405162461bcd60e51b815260206004820152602960248201527f4552433732313a206f776e657220717565727920666f72206e6f6e657869737460448201527f656e7420746f6b656e000000000000000000000000000000000000000000000060648201526084016104b3565b60006001600160a01b0382166108ae5760405162461bcd60e51b815260206004820152602a60248201527f4552433732313a2062616c616e636520717565727920666f7220746865207a6560448201527f726f20616464726573730000000000000000000000000000000000000000000060648201526084016104b3565b506001600160a01b031660009081526004602052604090205490565b6000546001600160a01b031633146109245760405162461bcd60e51b815260206004820181905260248201527f4f776e61626c653a2063616c6c6572206973206e6f7420746865206f776e657260448201526064016104b3565b61092e600061112e565b565b6060600280546103bb90611ce2565b61066e33838361117e565b6109543383610e2e565b6109c65760405162461bcd60e51b815260206004820152603160248201527f4552433732313a207472616e736665722063616c6c6572206973206e6f74206f60448201527f776e6572206e6f7220617070726f76656400000000000000000000000000000060648201526084016104b3565b6109d28484848461124d565b50505050565b6000818152600360205260409020546060906001600160a01b0316610a655760405162461bcd60e51b815260206004820152603160248201527f45524337323155524953746f726167653a2055524920717565727920666f722060448201527f6e6f6e6578697374656e7420746f6b656e00000000000000000000000000000060648201526084016104b3565b60008281526007602052604081208054610a7e90611ce2565b80601f0160208091040260200160405190810160405280929190818152602001828054610aaa90611ce2565b8015610af75780601f10610acc57610100808354040283529160200191610af7565b820191906000526020600020905b815481529060010190602001808311610ada57829003601f168201915b505050505090506000610b1560408051602081019091526000815290565b9050805160001415610b28575092915050565b815115610b5a578082604051602001610b42929190611d1d565b60405160208183030381529060405292505050919050565b610b63846112cb565b949350505050565b600080546001600160a01b03163314610bc65760405162461bcd60e51b815260206004820181905260248201527f4f776e61626c653a2063616c6c6572206973206e6f7420746865206f776e657260448201526064016104b3565b6000610bd160085490565b9050610be1600880546001019055565b610beb33826113c1565b610bf58184610d85565b807f07554a03a62c3cb37a877bd179226e5626e1158ca4f7d1e2306683ed4a41e4dd84604051610c259190611a0b565b60405180910390a290505b919050565b6000546001600160a01b03163314610c8f5760405162461bcd60e51b815260206004820181905260248201527f4f776e61626c653a2063616c6c6572206973206e6f7420746865206f776e657260448201526064016104b3565b6001600160a01b038116610d0b5760405162461bcd60e51b815260206004820152602660248201527f4f776e61626c653a206e6577206f776e657220697320746865207a65726f206160448201527f646472657373000000000000000000000000000000000000000000000000000060648201526084016104b3565b610d148161112e565b50565b600081815260056020526040902080546001600160a01b0319166001600160a01b0384169081179091558190610d4c826107a5565b6001600160a01b03167f8c5be1e5ebec7d5bd14f71427d1e84f3dd0314c0f7b2291e5b200ac8c7c3b92560405160405180910390a45050565b6000828152600360205260409020546001600160a01b0316610e0f5760405162461bcd60e51b815260206004820152602e60248201527f45524337323155524953746f726167653a2055524920736574206f66206e6f6e60448201527f6578697374656e7420746f6b656e00000000000000000000000000000000000060648201526084016104b3565b60008281526007602090815260409091208251610605928401906118b1565b6000818152600360205260408120546001600160a01b0316610ea75760405162461bcd60e51b815260206004820152602c60248201527f4552433732313a206f70657261746f7220717565727920666f72206e6f6e657860448201526b34b9ba32b73a103a37b5b2b760a11b60648201526084016104b3565b6000610eb2836107a5565b9050806001600160a01b0316846001600160a01b03161480610eed5750836001600160a01b0316610ee28461043e565b6001600160a01b0316145b80610b6357506001600160a01b0380821660009081526006602090815260408083209388168352929052205460ff16610b63565b826001600160a01b0316610f34826107a5565b6001600160a01b031614610fb05760405162461bcd60e51b815260206004820152602560248201527f4552433732313a207472616e736665722066726f6d20696e636f72726563742060448201527f6f776e657200000000000000000000000000000000000000000000000000000060648201526084016104b3565b6001600160a01b03821661102b5760405162461bcd60e51b8152602060048201526024808201527f4552433732313a207472616e7366657220746f20746865207a65726f2061646460448201527f726573730000000000000000000000000000000000000000000000000000000060648201526084016104b3565b611036600082610d17565b6001600160a01b038316600090815260046020526040812080546001929061105f908490611d62565b90915550506001600160a01b038216600090815260046020526040812080546001929061108d908490611d79565b909155505060008181526003602052604080822080546001600160a01b0319166001600160a01b0386811691821790925591518493918716917fddf252ad1be2c89b69c2b068fc378daa952ba7f163c4a11628f55a4df523b3ef91a4505050565b6110f7816113db565b6000818152600760205260409020805461111090611ce2565b159050610d14576000818152600760205260408120610d1491611935565b600080546001600160a01b038381166001600160a01b0319831681178455604051919092169283917f8be0079c531659141344cd1fd0a4f28419497f9722a3daafe3b4186f6b6457e09190a35050565b816001600160a01b0316836001600160a01b031614156111e05760405162461bcd60e51b815260206004820152601960248201527f4552433732313a20617070726f766520746f2063616c6c65720000000000000060448201526064016104b3565b6001600160a01b03838116600081815260066020908152604080832094871680845294825291829020805460ff191686151590811790915591519182527f17307eab39ab6107e8899845ad3d59bd9653f200f220920489ca2b5937696c31910160405180910390a3505050565b611258848484610f21565b61126484848484611476565b6109d25760405162461bcd60e51b815260206004820152603260248201527f4552433732313a207472616e7366657220746f206e6f6e20455243373231526560448201527131b2b4bb32b91034b6b83632b6b2b73a32b960711b60648201526084016104b3565b6000818152600360205260409020546060906001600160a01b03166113585760405162461bcd60e51b815260206004820152602f60248201527f4552433732314d657461646174613a2055524920717565727920666f72206e6f60448201527f6e6578697374656e7420746f6b656e000000000000000000000000000000000060648201526084016104b3565b600061136f60408051602081019091526000815290565b9050600081511161138f57604051806020016040528060008152506113ba565b80611399846115bf565b6040516020016113aa929190611d1d565b6040516020818303038152906040525b9392505050565b61066e8282604051806020016040528060008152506116f1565b60006113e6826107a5565b90506113f3600083610d17565b6001600160a01b038116600090815260046020526040812080546001929061141c908490611d62565b909155505060008281526003602052604080822080546001600160a01b0319169055518391906001600160a01b038416907fddf252ad1be2c89b69c2b068fc378daa952ba7f163c4a11628f55a4df523b3ef908390a45050565b60006001600160a01b0384163b156115b457604051630a85bd0160e11b81526001600160a01b0385169063150b7a02906114ba903390899088908890600401611d91565b6020604051808303816000875af19250505080156114f5575060408051601f3d908101601f191682019092526114f291810190611dcd565b60015b61159a573d808015611523576040519150601f19603f3d011682016040523d82523d6000602084013e611528565b606091505b5080516115925760405162461bcd60e51b815260206004820152603260248201527f4552433732313a207472616e7366657220746f206e6f6e20455243373231526560448201527131b2b4bb32b91034b6b83632b6b2b73a32b960711b60648201526084016104b3565b805181602001fd5b6001600160e01b031916630a85bd0160e11b149050610b63565b506001949350505050565b6060816115ff57505060408051808201909152600181527f3000000000000000000000000000000000000000000000000000000000000000602082015290565b8160005b8115611629578061161381611dea565b91506116229050600a83611e1b565b9150611603565b60008167ffffffffffffffff81111561164457611644611a78565b6040519080825280601f01601f19166020018201604052801561166e576020820181803683370190505b5090505b8415610b6357611683600183611d62565b9150611690600a86611e2f565b61169b906030611d79565b60f81b8183815181106116b0576116b0611e43565b60200101907effffffffffffffffffffffffffffffffffffffffffffffffffffffffffffff1916908160001a9053506116ea600a86611e1b565b9450611672565b6116fb838361176f565b6117086000848484611476565b6106055760405162461bcd60e51b815260206004820152603260248201527f4552433732313a207472616e7366657220746f206e6f6e20455243373231526560448201527131b2b4bb32b91034b6b83632b6b2b73a32b960711b60648201526084016104b3565b6001600160a01b0382166117c55760405162461bcd60e51b815260206004820181905260248201527f4552433732313a206d696e7420746f20746865207a65726f206164647265737360448201526064016104b3565b6000818152600360205260409020546001600160a01b03161561182a5760405162461bcd60e51b815260206004820152601c60248201527f4552433732313a20746f6b656e20616c7265616479206d696e7465640000000060448201526064016104b3565b6001600160a01b0382166000908152600460205260408120805460019290611853908490611d79565b909155505060008181526003602052604080822080546001600160a01b0319166001600160a01b03861690811790915590518392907fddf252ad1be2c89b69c2b068fc378daa952ba7f163c4a11628f55a4df523b3ef908290a45050565b8280546118bd90611ce2565b90600052602060002090601f0160209004810192826118df5760008555611925565b82601f106118f857805160ff1916838001178555611925565b82800160010185558215611925579182015b8281111561192557825182559160200191906001019061190a565b5061193192915061196b565b5090565b50805461194190611ce2565b6000825580601f10611951575050565b601f016020900490600052602060002090810190610d1491905b5b80821115611931576000815560010161196c565b6001600160e01b031981168114610d1457600080fd5b6000602082840312156119a857600080fd5b81356113ba81611980565b60005b838110156119ce5781810151838201526020016119b6565b838111156109d25750506000910152565b600081518084526119f78160208601602086016119b3565b601f01601f19169290920160200192915050565b6020815260006113ba60208301846119df565b600060208284031215611a3057600080fd5b5035919050565b80356001600160a01b0381168114610c3057600080fd5b60008060408385031215611a6157600080fd5b611a6a83611a37565b946020939093013593505050565b634e487b7160e01b600052604160045260246000fd5b600067ffffffffffffffff80841115611aa957611aa9611a78565b604051601f8501601f19908116603f01168101908282118183101715611ad157611ad1611a78565b81604052809350858152868686011115611aea57600080fd5b858560208301376000602087830101525050509392505050565b600082601f830112611b1557600080fd5b6113ba83833560208501611a8e565b60008060408385031215611b3757600080fd5b82359150602083013567ffffffffffffffff811115611b5557600080fd5b611b6185828601611b04565b9150509250929050565b600080600060608486031215611b8057600080fd5b611b8984611a37565b9250611b9760208501611a37565b9150604084013590509250925092565b600060208284031215611bb957600080fd5b6113ba82611a37565b60008060408385031215611bd557600080fd5b611bde83611a37565b915060208301358015158114611bf357600080fd5b809150509250929050565b60008060008060808587031215611c1457600080fd5b611c1d85611a37565b9350611c2b60208601611a37565b925060408501359150606085013567ffffffffffffffff811115611c4e57600080fd5b8501601f81018713611c5f57600080fd5b611c6e87823560208401611a8e565b91505092959194509250565b600060208284031215611c8c57600080fd5b813567ffffffffffffffff811115611ca357600080fd5b610b6384828501611b04565b60008060408385031215611cc257600080fd5b611ccb83611a37565b9150611cd960208401611a37565b90509250929050565b600181811c90821680611cf657607f821691505b60208210811415611d1757634e487b7160e01b600052602260045260246000fd5b50919050565b60008351611d2f8184602088016119b3565b835190830190611d438183602088016119b3565b01949350505050565b634e487b7160e01b600052601160045260246000fd5b600082821015611d7457611d74611d4c565b500390565b60008219821115611d8c57611d8c611d4c565b500190565b60006001600160a01b03808716835280861660208401525083604083015260806060830152611dc360808301846119df565b9695505050505050565b600060208284031215611ddf57600080fd5b81516113ba81611980565b6000600019821415611dfe57611dfe611d4c565b5060010190565b634e487b7160e01b600052601260045260246000fd5b600082611e2a57611e2a611e05565b500490565b600082611e3e57611e3e611e05565b500690565b634e487b7160e01b600052603260045260246000fdfea26469706673582212205de2e9011f8ab02365a9e7c02c3a5edaf361441c55950075915263942dba29e764736f6c634300080a0033",
  "linkReferences": {},
  "deployedLinkReferences": {}
}