{
  "_format": "hh-sol-artifact-1",
  "contractName": "ERC1155NFT",
  "sourceName": "contracts/nfts/ERC1155NFT.sol",
  "abi": [
    {
      "inputs": [
        {
          "internalType": "string",
          "name": "_uri",
          "type": "string"
        }
      ],
      "stateMutability": "nonpayable",
      "type": "constructor"
    },
    {
      "anonymous": false,
      "inputs": [
        {
          "indexed": true,
          "internalType": "address",
          "name": "account",
          "type": "address"
        },
        {
          "indexed": true,
          "internalType": "address",
          "name": "operator",
          "type": "address"
        },
        {
          "indexed": false,
          "internalType": "bool",
          "name": "approved",
          "type": "bool"
        }
      ],
      "name": "ApprovalForAll",
      "type": "event"
    },
    {
      "anonymous": false,
      "inputs": [
        {
          "indexed": true,
          "internalType": "uint256",
          "name": "tokenId",
          "type": "uint256"
        }
      ],
      "name": "Burn",
      "type": "event"
    },
    {
      "anonymous": false,
      "inputs": [
        {
          "indexed": true,
          "internalType": "uint256",
          "name": "tokenId",
          "type": "uint256"
        }
      ],
      "name": "Mint",
      "type": "event"
    },
    {
      "anonymous": false,
      "inputs": [
        {
          "indexed": true,
          "internalType": "address",
          "name": "previousOwner",
          "type": "address"
        },
        {
          "indexed": true,
          "internalType": "address",
          "name": "newOwner",
          "type": "address"
        }
      ],
      "name": "OwnershipTransferred",
      "type": "event"
    },
    {
      "anonymous": false,
      "inputs": [
        {
          "indexed": true,
          "internalType": "address",
          "name": "operator",
          "type": "address"
        },
        {
          "indexed": true,
          "internalType": "address",
          "name": "from",
          "type": "address"
        },
        {
          "indexed": true,
          "internalType": "address",
          "name": "to",
          "type": "address"
        },
        {
          "indexed": false,
          "internalType": "uint256[]",
          "name": "ids",
          "type": "uint256[]"
        },
        {
          "indexed": false,
          "internalType": "uint256[]",
          "name": "values",
          "type": "uint256[]"
        }
      ],
      "name": "TransferBatch",
      "type": "event"
    },
    {
      "anonymous": false,
      "inputs": [
        {
          "indexed": true,
          "internalType": "address",
          "name": "operator",
          "type": "address"
        },
        {
          "indexed": true,
          "internalType": "address",
          "name": "from",
          "type": "address"
        },
        {
          "indexed": true,
          "internalType": "address",
          "name": "to",
          "type": "address"
        },
        {
          "indexed": false,
          "internalType": "uint256",
          "name": "id",
          "type": "uint256"
        },
        {
          "indexed": false,
          "internalType": "uint256",
          "name": "value",
          "type": "uint256"
        }
      ],
      "name": "TransferSingle",
      "type": "event"
    },
    {
      "anonymous": false,
      "inputs": [
        {
          "indexed": false,
          "internalType": "string",
          "name": "value",
          "type": "string"
        },
        {
          "indexed": true,
          "internalType": "uint256",
          "name": "id",
          "type": "uint256"
        }
      ],
      "name": "URI",
      "type": "event"
    },
    {
      "inputs": [
        {
          "internalType": "address",
          "name": "account",
          "type": "address"
        },
        {
          "internalType": "uint256",
          "name": "id",
          "type": "uint256"
        }
      ],
      "name": "balanceOf",
      "outputs": [
        {
          "internalType": "uint256",
          "name": "",
          "type": "uint256"
        }
      ],
      "stateMutability": "view",
      "type": "function"
    },
    {
      "inputs": [
        {
          "internalType": "address[]",
          "name": "accounts",
          "type": "address[]"
        },
        {
          "internalType": "uint256[]",
          "name": "ids",
          "type": "uint256[]"
        }
      ],
      "name": "balanceOfBatch",
      "outputs": [
        {
          "internalType": "uint256[]",
          "name": "",
          "type": "uint256[]"
        }
      ],
      "stateMutability": "view",
      "type": "function"
    },
    {
      "inputs": [
        {
          "internalType": "uint256",
          "name": "id",
          "type": "uint256"
        }
      ],
      "name": "burn",
      "outputs": [],
      "stateMutability": "nonpayable",
      "type": "function"
    },
    {
      "inputs": [
        {
          "internalType": "address",
          "name": "account",
          "type": "address"
        },
        {
          "internalType": "address",
          "name": "operator",
          "type": "address"
        }
      ],
      "name": "isApprovedForAll",
      "outputs": [
        {
          "internalType": "bool",
          "name": "",
          "type": "bool"
        }
      ],
      "stateMutability": "view",
      "type": "function"
    },
    {
      "inputs": [],
      "name": "mint",
      "outputs": [
        {
          "internalType": "uint256",
          "name": "",
          "type": "uint256"
        }
      ],
      "stateMutability": "nonpayable",
      "type": "function"
    },
    {
      "inputs": [],
      "name": "owner",
      "outputs": [
        {
          "internalType": "address",
          "name": "",
          "type": "address"
        }
      ],
      "stateMutability": "view",
      "type": "function"
    },
    {
      "inputs": [],
      "name": "renounceOwnership",
      "outputs": [],
      "stateMutability": "nonpayable",
      "type": "function"
    },
    {
      "inputs": [
        {
          "internalType": "address",
          "name": "from",
          "type": "address"
        },
        {
          "internalType": "address",
          "name": "to",
          "type": "address"
        },
        {
          "internalType": "uint256[]",
          "name": "ids",
          "type": "uint256[]"
        },
        {
          "internalType": "uint256[]",
          "name": "amounts",
          "type": "uint256[]"
        },
        {
          "internalType": "bytes",
          "name": "data",
          "type": "bytes"
        }
      ],
      "name": "safeBatchTransferFrom",
      "outputs": [],
      "stateMutability": "nonpayable",
      "type": "function"
    },
    {
      "inputs": [
        {
          "internalType": "address",
          "name": "from",
          "type": "address"
        },
        {
          "internalType": "address",
          "name": "to",
          "type": "address"
        },
        {
          "internalType": "uint256",
          "name": "id",
          "type": "uint256"
        },
        {
          "internalType": "uint256",
          "name": "amount",
          "type": "uint256"
        },
        {
          "internalType": "bytes",
          "name": "data",
          "type": "bytes"
        }
      ],
      "name": "safeTransferFrom",
      "outputs": [],
      "stateMutability": "nonpayable",
      "type": "function"
    },
    {
      "inputs": [
        {
          "internalType": "address",
          "name": "operator",
          "type": "address"
        },
        {
          "internalType": "bool",
          "name": "approved",
          "type": "bool"
        }
      ],
      "name": "setApprovalForAll",
      "outputs": [],
      "stateMutability": "nonpayable",
      "type": "function"
    },
    {
      "inputs": [
        {
          "internalType": "bytes4",
          "name": "interfaceId",
          "type": "bytes4"
        }
      ],
      "name": "supportsInterface",
      "outputs": [
        {
          "internalType": "bool",
          "name": "",
          "type": "bool"
        }
      ],
      "stateMutability": "view",
      "type": "function"
    },
    {
      "inputs": [
        {
          "internalType": "address",
          "name": "newOwner",
          "type": "address"
        }
      ],
      "name": "transferOwnership",
      "outputs": [],
      "stateMutability": "nonpayable",
      "type": "function"
    },
    {
      "inputs": [
        {
          "internalType": "uint256",
          "name": "",
          "type": "uint256"
        }
      ],
      "name": "uri",
      "outputs": [
        {
          "internalType": "string",
          "name": "",
          "type": "string"
        }
      ],
      "stateMutability": "view",
      "type": "function"
    }
  ],
  "bytecode": "0x60806040523480156200001157600080fd5b5060405162001f0338038062001f03833981016040819052620000349162000178565b80620000403362000053565b6200004b81620000a3565b505062000291565b600080546001600160a01b038381166001600160a01b0319831681178455604051919092169283917f8be0079c531659141344cd1fd0a4f28419497f9722a3daafe3b4186f6b6457e09190a35050565b8051620000b8906003906020840190620000bc565b5050565b828054620000ca9062000254565b90600052602060002090601f016020900481019282620000ee576000855562000139565b82601f106200010957805160ff191683800117855562000139565b8280016001018555821562000139579182015b82811115620001395782518255916020019190600101906200011c565b50620001479291506200014b565b5090565b5b808211156200014757600081556001016200014c565b634e487b7160e01b600052604160045260246000fd5b600060208083850312156200018c57600080fd5b82516001600160401b0380821115620001a457600080fd5b818501915085601f830112620001b957600080fd5b815181811115620001ce57620001ce62000162565b604051601f8201601f19908116603f01168101908382118183101715620001f957620001f962000162565b8160405282815288868487010111156200021257600080fd5b600093505b8284101562000236578484018601518185018701529285019262000217565b82841115620002485760008684830101525b98975050505050505050565b600181811c908216806200026957607f821691505b602082108114156200028b57634e487b7160e01b600052602260045260246000fd5b50919050565b611c6280620002a16000396000f3fe608060405234801561001057600080fd5b50600436106100de5760003560e01c80634e1273f41161008c578063a22cb46511610066578063a22cb465146101bf578063e985e9c5146101d2578063f242432a1461020e578063f2fde38b1461022157600080fd5b80634e1273f41461017c578063715018a61461019c5780638da5cb5b146101a457600080fd5b80631249c58b116100bd5780631249c58b1461014c5780632eb2c2d61461015457806342966c681461016957600080fd5b8062fdd58e146100e357806301ffc9a7146101095780630e89341c1461012c575b600080fd5b6100f66100f1366004611526565b610234565b6040519081526020015b60405180910390f35b61011c610117366004611566565b6102df565b6040519015158152602001610100565b61013f61013a36600461158a565b61037c565b60405161010091906115f0565b6100f6610410565b61016761016236600461174f565b6104e4565b005b61016761017736600461158a565b610586565b61018f61018a3660046117f9565b61061a565b60405161010091906118ff565b610167610758565b6000546040516001600160a01b039091168152602001610100565b6101676101cd366004611912565b6107be565b61011c6101e036600461194e565b6001600160a01b03918216600090815260026020908152604080832093909416825291909152205460ff1690565b61016761021c366004611981565b6107cd565b61016761022f3660046119e6565b610868565b60006001600160a01b0383166102b75760405162461bcd60e51b815260206004820152602b60248201527f455243313135353a2062616c616e636520717565727920666f7220746865207a60448201527f65726f206164647265737300000000000000000000000000000000000000000060648201526084015b60405180910390fd5b5060009081526001602090815260408083206001600160a01b03949094168352929052205490565b60006001600160e01b031982167fd9b67a2600000000000000000000000000000000000000000000000000000000148061034257506001600160e01b031982167f0e89341c00000000000000000000000000000000000000000000000000000000145b8061037657507f01ffc9a7000000000000000000000000000000000000000000000000000000006001600160e01b03198316145b92915050565b60606003805461038b90611a01565b80601f01602080910402602001604051908101604052809291908181526020018280546103b790611a01565b80156104045780601f106103d957610100808354040283529160200191610404565b820191906000526020600020905b8154815290600101906020018083116103e757829003601f168201915b50505050509050919050565b600080546001600160a01b0316331461046b5760405162461bcd60e51b815260206004820181905260248201527f4f776e61626c653a2063616c6c6572206973206e6f7420746865206f776e657260448201526064016102ae565b600061047660045490565b9050610486600480546001019055565b6104b361049b6000546001600160a01b031690565b8260026040518060200160405280600081525061094a565b60405181907f07883703ed0e86588a40d76551c92f8a4b329e3bf19765e0e6749473c1a8466590600090a290505b90565b6001600160a01b038516331480610500575061050085336101e0565b6105725760405162461bcd60e51b815260206004820152603260248201527f455243313135353a207472616e736665722063616c6c6572206973206e6f742060448201527f6f776e6572206e6f7220617070726f766564000000000000000000000000000060648201526084016102ae565b61057f8585858585610a78565b5050505050565b6000546001600160a01b031633146105e05760405162461bcd60e51b815260206004820181905260248201527f4f776e61626c653a2063616c6c6572206973206e6f7420746865206f776e657260448201526064016102ae565b6105ec33826002610cfc565b60405181907fb90306ad06b2a6ff86ddc9327db583062895ef6540e62dc50add009db5b356eb90600090a250565b606081518351146106935760405162461bcd60e51b815260206004820152602960248201527f455243313135353a206163636f756e747320616e6420696473206c656e67746860448201527f206d69736d61746368000000000000000000000000000000000000000000000060648201526084016102ae565b6000835167ffffffffffffffff8111156106af576106af611603565b6040519080825280602002602001820160405280156106d8578160200160208202803683370190505b50905060005b8451811015610750576107238582815181106106fc576106fc611a3c565b602002602001015185838151811061071657610716611a3c565b6020026020010151610234565b82828151811061073557610735611a3c565b602090810291909101015261074981611a68565b90506106de565b509392505050565b6000546001600160a01b031633146107b25760405162461bcd60e51b815260206004820181905260248201527f4f776e61626c653a2063616c6c6572206973206e6f7420746865206f776e657260448201526064016102ae565b6107bc6000610eac565b565b6107c9338383610f14565b5050565b6001600160a01b0385163314806107e957506107e985336101e0565b61085b5760405162461bcd60e51b815260206004820152602960248201527f455243313135353a2063616c6c6572206973206e6f74206f776e6572206e6f7260448201527f20617070726f766564000000000000000000000000000000000000000000000060648201526084016102ae565b61057f8585858585611009565b6000546001600160a01b031633146108c25760405162461bcd60e51b815260206004820181905260248201527f4f776e61626c653a2063616c6c6572206973206e6f7420746865206f776e657260448201526064016102ae565b6001600160a01b03811661093e5760405162461bcd60e51b815260206004820152602660248201527f4f776e61626c653a206e6577206f776e657220697320746865207a65726f206160448201527f646472657373000000000000000000000000000000000000000000000000000060648201526084016102ae565b61094781610eac565b50565b6001600160a01b0384166109c65760405162461bcd60e51b815260206004820152602160248201527f455243313135353a206d696e7420746f20746865207a65726f2061646472657360448201527f730000000000000000000000000000000000000000000000000000000000000060648201526084016102ae565b336109e6816000876109d7886111ab565b6109e0886111ab565b876111f6565b60008481526001602090815260408083206001600160a01b038916845290915281208054859290610a18908490611a83565b909155505060408051858152602081018590526001600160a01b0380881692600092918516917fc3d58168c5ae7397731d063d5bbf3d657854427343f4c083240f7aacaa2d0f62910160405180910390a461057f81600087878787611268565b8151835114610aef5760405162461bcd60e51b815260206004820152602860248201527f455243313135353a2069647320616e6420616d6f756e7473206c656e6774682060448201527f6d69736d6174636800000000000000000000000000000000000000000000000060648201526084016102ae565b6001600160a01b038416610b535760405162461bcd60e51b815260206004820152602560248201527f455243313135353a207472616e7366657220746f20746865207a65726f206164604482015264647265737360d81b60648201526084016102ae565b33610b628187878787876111f6565b60005b8451811015610c8e576000858281518110610b8257610b82611a3c565b602002602001015190506000858381518110610ba057610ba0611a3c565b60209081029190910181015160008481526001835260408082206001600160a01b038e168352909352919091205490915081811015610c345760405162461bcd60e51b815260206004820152602a60248201527f455243313135353a20696e73756666696369656e742062616c616e636520666f60448201526939103a3930b739b332b960b11b60648201526084016102ae565b60008381526001602090815260408083206001600160a01b038e8116855292528083208585039055908b16825281208054849290610c73908490611a83565b9250508190555050505080610c8790611a68565b9050610b65565b50846001600160a01b0316866001600160a01b0316826001600160a01b03167f4a39dc06d4c0dbc64b70af90fd698a233a518aa5d07e595d983b8c0526c8f7fb8787604051610cde929190611a9b565b60405180910390a4610cf481878787878761140e565b505050505050565b6001600160a01b038316610d785760405162461bcd60e51b815260206004820152602360248201527f455243313135353a206275726e2066726f6d20746865207a65726f206164647260448201527f657373000000000000000000000000000000000000000000000000000000000060648201526084016102ae565b33610da781856000610d89876111ab565b610d92876111ab565b604051806020016040528060008152506111f6565b60008381526001602090815260408083206001600160a01b038816845290915290205482811015610e3f5760405162461bcd60e51b8152602060048201526024808201527f455243313135353a206275726e20616d6f756e7420657863656564732062616c60448201527f616e63650000000000000000000000000000000000000000000000000000000060648201526084016102ae565b60008481526001602090815260408083206001600160a01b03898116808652918452828520888703905582518981529384018890529092908616917fc3d58168c5ae7397731d063d5bbf3d657854427343f4c083240f7aacaa2d0f62910160405180910390a45050505050565b600080546001600160a01b038381167fffffffffffffffffffffffff0000000000000000000000000000000000000000831681178455604051919092169283917f8be0079c531659141344cd1fd0a4f28419497f9722a3daafe3b4186f6b6457e09190a35050565b816001600160a01b0316836001600160a01b03161415610f9c5760405162461bcd60e51b815260206004820152602960248201527f455243313135353a2073657474696e6720617070726f76616c2073746174757360448201527f20666f722073656c66000000000000000000000000000000000000000000000060648201526084016102ae565b6001600160a01b03838116600081815260026020908152604080832094871680845294825291829020805460ff191686151590811790915591519182527f17307eab39ab6107e8899845ad3d59bd9653f200f220920489ca2b5937696c31910160405180910390a3505050565b6001600160a01b03841661106d5760405162461bcd60e51b815260206004820152602560248201527f455243313135353a207472616e7366657220746f20746865207a65726f206164604482015264647265737360d81b60648201526084016102ae565b3361107d8187876109d7886111ab565b60008481526001602090815260408083206001600160a01b038a168452909152902054838110156111035760405162461bcd60e51b815260206004820152602a60248201527f455243313135353a20696e73756666696369656e742062616c616e636520666f60448201526939103a3930b739b332b960b11b60648201526084016102ae565b60008581526001602090815260408083206001600160a01b038b8116855292528083208785039055908816825281208054869290611142908490611a83565b909155505060408051868152602081018690526001600160a01b03808916928a821692918616917fc3d58168c5ae7397731d063d5bbf3d657854427343f4c083240f7aacaa2d0f62910160405180910390a46111a2828888888888611268565b50505050505050565b604080516001808252818301909252606091600091906020808301908036833701905050905082816000815181106111e5576111e5611a3c565b602090810291909101015292915050565b6000546001600160a01b03868116911614610cf4576000546001600160a01b03858116911614610cf45760405162461bcd60e51b815260206004820152601a60248201527f43616e206f6e6c79207472616e7366657220746f206f776e657200000000000060448201526064016102ae565b6001600160a01b0384163b15610cf45760405163f23a6e6160e01b81526001600160a01b0385169063f23a6e61906112ac9089908990889088908890600401611ac9565b6020604051808303816000875af19250505080156112e7575060408051601f3d908101601f191682019092526112e491810190611b0c565b60015b61139d576112f3611b29565b806308c379a0141561132d5750611308611b44565b80611313575061132f565b8060405162461bcd60e51b81526004016102ae91906115f0565b505b60405162461bcd60e51b815260206004820152603460248201527f455243313135353a207472616e7366657220746f206e6f6e204552433131353560448201527f526563656976657220696d706c656d656e74657200000000000000000000000060648201526084016102ae565b6001600160e01b0319811663f23a6e6160e01b146111a25760405162461bcd60e51b815260206004820152602860248201527f455243313135353a204552433131353552656365697665722072656a656374656044820152676420746f6b656e7360c01b60648201526084016102ae565b6001600160a01b0384163b15610cf45760405163bc197c8160e01b81526001600160a01b0385169063bc197c81906114529089908990889088908890600401611bce565b6020604051808303816000875af192505050801561148d575060408051601f3d908101601f1916820190925261148a91810190611b0c565b60015b611499576112f3611b29565b6001600160e01b0319811663bc197c8160e01b146111a25760405162461bcd60e51b815260206004820152602860248201527f455243313135353a204552433131353552656365697665722072656a656374656044820152676420746f6b656e7360c01b60648201526084016102ae565b80356001600160a01b038116811461152157600080fd5b919050565b6000806040838503121561153957600080fd5b6115428361150a565b946020939093013593505050565b6001600160e01b03198116811461094757600080fd5b60006020828403121561157857600080fd5b813561158381611550565b9392505050565b60006020828403121561159c57600080fd5b5035919050565b6000815180845260005b818110156115c9576020818501810151868301820152016115ad565b818111156115db576000602083870101525b50601f01601f19169290920160200192915050565b60208152600061158360208301846115a3565b634e487b7160e01b600052604160045260246000fd5b601f8201601f1916810167ffffffffffffffff8111828210171561163f5761163f611603565b6040525050565b600067ffffffffffffffff82111561166057611660611603565b5060051b60200190565b600082601f83011261167b57600080fd5b8135602061168882611646565b6040516116958282611619565b83815260059390931b85018201928281019150868411156116b557600080fd5b8286015b848110156116d057803583529183019183016116b9565b509695505050505050565b600082601f8301126116ec57600080fd5b813567ffffffffffffffff81111561170657611706611603565b60405161171d601f8301601f191660200182611619565b81815284602083860101111561173257600080fd5b816020850160208301376000918101602001919091529392505050565b600080600080600060a0868803121561176757600080fd5b6117708661150a565b945061177e6020870161150a565b9350604086013567ffffffffffffffff8082111561179b57600080fd5b6117a789838a0161166a565b945060608801359150808211156117bd57600080fd5b6117c989838a0161166a565b935060808801359150808211156117df57600080fd5b506117ec888289016116db565b9150509295509295909350565b6000806040838503121561180c57600080fd5b823567ffffffffffffffff8082111561182457600080fd5b818501915085601f83011261183857600080fd5b8135602061184582611646565b6040516118528282611619565b83815260059390931b850182019282810191508984111561187257600080fd5b948201945b83861015611897576118888661150a565b82529482019490820190611877565b965050860135925050808211156118ad57600080fd5b506118ba8582860161166a565b9150509250929050565b600081518084526020808501945080840160005b838110156118f4578151875295820195908201906001016118d8565b509495945050505050565b60208152600061158360208301846118c4565b6000806040838503121561192557600080fd5b61192e8361150a565b91506020830135801515811461194357600080fd5b809150509250929050565b6000806040838503121561196157600080fd5b61196a8361150a565b91506119786020840161150a565b90509250929050565b600080600080600060a0868803121561199957600080fd5b6119a28661150a565b94506119b06020870161150a565b93506040860135925060608601359150608086013567ffffffffffffffff8111156119da57600080fd5b6117ec888289016116db565b6000602082840312156119f857600080fd5b6115838261150a565b600181811c90821680611a1557607f821691505b60208210811415611a3657634e487b7160e01b600052602260045260246000fd5b50919050565b634e487b7160e01b600052603260045260246000fd5b634e487b7160e01b600052601160045260246000fd5b6000600019821415611a7c57611a7c611a52565b5060010190565b60008219821115611a9657611a96611a52565b500190565b604081526000611aae60408301856118c4565b8281036020840152611ac081856118c4565b95945050505050565b60006001600160a01b03808816835280871660208401525084604083015283606083015260a06080830152611b0160a08301846115a3565b979650505050505050565b600060208284031215611b1e57600080fd5b815161158381611550565b600060033d11156104e15760046000803e5060005160e01c90565b600060443d1015611b525790565b6040516003193d81016004833e81513d67ffffffffffffffff8160248401118184111715611b8257505050505090565b8285019150815181811115611b9a5750505050505090565b843d8701016020828501011115611bb45750505050505090565b611bc360208286010187611619565b509095945050505050565b60006001600160a01b03808816835280871660208401525060a06040830152611bfa60a08301866118c4565b8281036060840152611c0c81866118c4565b90508281036080840152611c2081856115a3565b9897505050505050505056fea2646970667358221220a3d126e9cc053fc6f54fefadad0fe0dac25cfaf435a1d01b561adaa1da53750d64736f6c634300080a0033",
  "linkReferences": {},
  "deployedLinkReferences": {}
}