{
  "_format": "hh-sol-artifact-1",
  "contractName": "PadLock",
  "sourceName": "contracts/PadLock.sol",
  "abi": [
    {
      "inputs": [
        {
          "internalType": "contract IERC20",
          "name": "_weth",
          "type": "address"
        },
        {
          "internalType": "contract IERC20",
          "name": "_incentives",
          "type": "address"
        },
        {
          "internalType": "uint256",
          "name": "_minimalFee",
          "type": "uint256"
        },
        {
          "internalType": "contract IPoolAddressesProvider",
          "name": "_poolAddressProvider",
          "type": "address"
        },
        {
          "internalType": "contract IRewardsController",
          "name": "_rewardsController",
          "type": "address"
        },
        {
          "internalType": "contract UiIncentiveDataProviderV3",
          "name": "_uiIncentiveDataProvider",
          "type": "address"
        }
      ],
      "stateMutability": "nonpayable",
      "type": "constructor"
    },
    {
      "anonymous": false,
      "inputs": [
        {
          "indexed": true,
          "internalType": "bytes20",
          "name": "relationshipId",
          "type": "bytes20"
        },
        {
          "indexed": true,
          "internalType": "address",
          "name": "initiator",
          "type": "address"
        },
        {
          "indexed": true,
          "internalType": "address",
          "name": "approver",
          "type": "address"
        }
      ],
      "name": "BreakupApproved",
      "type": "event"
    },
    {
      "anonymous": false,
      "inputs": [
        {
          "indexed": true,
          "internalType": "bytes20",
          "name": "relationshipId",
          "type": "bytes20"
        },
        {
          "indexed": false,
          "internalType": "address",
          "name": "initiator",
          "type": "address"
        }
      ],
      "name": "BreakupProposal",
      "type": "event"
    },
    {
      "anonymous": false,
      "inputs": [
        {
          "indexed": true,
          "internalType": "bytes20",
          "name": "relationshipId",
          "type": "bytes20"
        },
        {
          "indexed": false,
          "internalType": "address",
          "name": "depositor",
          "type": "address"
        },
        {
          "indexed": false,
          "internalType": "uint256",
          "name": "amount",
          "type": "uint256"
        }
      ],
      "name": "Deposit",
      "type": "event"
    },
    {
      "anonymous": false,
      "inputs": [
        {
          "indexed": true,
          "internalType": "bytes20",
          "name": "relationshipId",
          "type": "bytes20"
        },
        {
          "indexed": true,
          "internalType": "address",
          "name": "firstHalf",
          "type": "address"
        },
        {
          "indexed": true,
          "internalType": "address",
          "name": "secondHalf",
          "type": "address"
        },
        {
          "indexed": false,
          "internalType": "uint256",
          "name": "startedAt",
          "type": "uint256"
        },
        {
          "indexed": false,
          "internalType": "uint256",
          "name": "NFTPadlock",
          "type": "uint256"
        },
        {
          "indexed": false,
          "internalType": "uint256",
          "name": "NFTFraction",
          "type": "uint256"
        }
      ],
      "name": "RelationshipApproved",
      "type": "event"
    },
    {
      "anonymous": false,
      "inputs": [
        {
          "indexed": false,
          "internalType": "string",
          "name": "relationshipMemo",
          "type": "string"
        },
        {
          "indexed": false,
          "internalType": "string",
          "name": "ipfsURI",
          "type": "string"
        },
        {
          "indexed": true,
          "internalType": "address",
          "name": "lover",
          "type": "address"
        },
        {
          "indexed": true,
          "internalType": "bytes20",
          "name": "relationshipId",
          "type": "bytes20"
        }
      ],
      "name": "RelationshipEvent",
      "type": "event"
    },
    {
      "anonymous": false,
      "inputs": [
        {
          "indexed": true,
          "internalType": "bytes20",
          "name": "relationshipId",
          "type": "bytes20"
        },
        {
          "indexed": true,
          "internalType": "address",
          "name": "firstHalf",
          "type": "address"
        },
        {
          "indexed": true,
          "internalType": "address",
          "name": "secondHalf",
          "type": "address"
        }
      ],
      "name": "RelationshipProposed",
      "type": "event"
    },
    {
      "inputs": [
        {
          "internalType": "string",
          "name": "_relationshipMemo",
          "type": "string"
        },
        {
          "internalType": "string",
          "name": "_ipfsURI",
          "type": "string"
        }
      ],
      "name": "addRelationshipEvent",
      "outputs": [],
      "stateMutability": "nonpayable",
      "type": "function"
    },
    {
      "inputs": [],
      "name": "approveBreakUp",
      "outputs": [],
      "stateMutability": "nonpayable",
      "type": "function"
    },
    {
      "inputs": [
        {
          "internalType": "bytes20",
          "name": "_relationshipId",
          "type": "bytes20"
        }
      ],
      "name": "approveRelationship",
      "outputs": [],
      "stateMutability": "nonpayable",
      "type": "function"
    },
    {
      "inputs": [],
      "name": "approveWithdraw",
      "outputs": [],
      "stateMutability": "nonpayable",
      "type": "function"
    },
    {
      "inputs": [
        {
          "internalType": "uint256",
          "name": "_amount",
          "type": "uint256"
        }
      ],
      "name": "deposit",
      "outputs": [],
      "stateMutability": "nonpayable",
      "type": "function"
    },
    {
      "inputs": [],
      "name": "erc1155",
      "outputs": [
        {
          "internalType": "contract ERC1155NFT",
          "name": "",
          "type": "address"
        }
      ],
      "stateMutability": "view",
      "type": "function"
    },
    {
      "inputs": [],
      "name": "erc721",
      "outputs": [
        {
          "internalType": "contract ERC721NFT",
          "name": "",
          "type": "address"
        }
      ],
      "stateMutability": "view",
      "type": "function"
    },
    {
      "inputs": [],
      "name": "getRewardsData",
      "outputs": [
        {
          "components": [
            {
              "internalType": "string",
              "name": "rewardTokenSymbol",
              "type": "string"
            },
            {
              "internalType": "address",
              "name": "rewardTokenAddress",
              "type": "address"
            },
            {
              "internalType": "address",
              "name": "rewardOracleAddress",
              "type": "address"
            },
            {
              "internalType": "uint256",
              "name": "emissionPerSecond",
              "type": "uint256"
            },
            {
              "internalType": "uint256",
              "name": "incentivesLastUpdateTimestamp",
              "type": "uint256"
            },
            {
              "internalType": "uint256",
              "name": "tokenIncentivesIndex",
              "type": "uint256"
            },
            {
              "internalType": "uint256",
              "name": "emissionEndTimestamp",
              "type": "uint256"
            },
            {
              "internalType": "int256",
              "name": "rewardPriceFeed",
              "type": "int256"
            },
            {
              "internalType": "uint8",
              "name": "rewardTokenDecimals",
              "type": "uint8"
            },
            {
              "internalType": "uint8",
              "name": "precision",
              "type": "uint8"
            },
            {
              "internalType": "uint8",
              "name": "priceFeedDecimals",
              "type": "uint8"
            }
          ],
          "internalType": "struct IUiIncentiveDataProviderV3.RewardInfo[]",
          "name": "rewardInfo",
          "type": "tuple[]"
        }
      ],
      "stateMutability": "view",
      "type": "function"
    },
    {
      "inputs": [
        {
          "internalType": "bytes20",
          "name": "",
          "type": "bytes20"
        }
      ],
      "name": "idToRelationship",
      "outputs": [
        {
          "internalType": "bytes20",
          "name": "id",
          "type": "bytes20"
        },
        {
          "internalType": "uint256",
          "name": "startedAt",
          "type": "uint256"
        },
        {
          "internalType": "address",
          "name": "firstHalf",
          "type": "address"
        },
        {
          "internalType": "address",
          "name": "secondHalf",
          "type": "address"
        },
        {
          "internalType": "bool",
          "name": "established",
          "type": "bool"
        },
        {
          "internalType": "uint256",
          "name": "NFTPadlock",
          "type": "uint256"
        },
        {
          "internalType": "uint256",
          "name": "NFTFraction",
          "type": "uint256"
        },
        {
          "internalType": "uint256",
          "name": "initialFee",
          "type": "uint256"
        },
        {
          "internalType": "contract Vault",
          "name": "vault",
          "type": "address"
        },
        {
          "components": [
            {
              "internalType": "address",
              "name": "initiator",
              "type": "address"
            },
            {
              "internalType": "uint256",
              "name": "timestamp",
              "type": "uint256"
            }
          ],
          "internalType": "struct PadLock.BreakUp",
          "name": "breakup",
          "type": "tuple"
        },
        {
          "components": [
            {
              "internalType": "bool",
              "name": "firstHalfAgree",
              "type": "bool"
            },
            {
              "internalType": "bool",
              "name": "secondHalfAgree",
              "type": "bool"
            },
            {
              "internalType": "uint256",
              "name": "amount",
              "type": "uint256"
            }
          ],
          "internalType": "struct PadLock.AniversaryWithdraw",
          "name": "aniversaryWithdraw",
          "type": "tuple"
        }
      ],
      "stateMutability": "view",
      "type": "function"
    },
    {
      "inputs": [],
      "name": "incentives",
      "outputs": [
        {
          "internalType": "contract IERC20",
          "name": "",
          "type": "address"
        }
      ],
      "stateMutability": "view",
      "type": "function"
    },
    {
      "inputs": [
        {
          "internalType": "address",
          "name": "",
          "type": "address"
        }
      ],
      "name": "loverToRelationshipId",
      "outputs": [
        {
          "internalType": "bytes20",
          "name": "",
          "type": "bytes20"
        }
      ],
      "stateMutability": "view",
      "type": "function"
    },
    {
      "inputs": [],
      "name": "minimalFee",
      "outputs": [
        {
          "internalType": "uint256",
          "name": "",
          "type": "uint256"
        }
      ],
      "stateMutability": "view",
      "type": "function"
    },
    {
      "inputs": [
        {
          "internalType": "address",
          "name": "",
          "type": "address"
        },
        {
          "internalType": "address",
          "name": "",
          "type": "address"
        },
        {
          "internalType": "uint256",
          "name": "",
          "type": "uint256"
        },
        {
          "internalType": "uint256",
          "name": "",
          "type": "uint256"
        },
        {
          "internalType": "bytes",
          "name": "",
          "type": "bytes"
        }
      ],
      "name": "onERC1155Received",
      "outputs": [
        {
          "internalType": "bytes4",
          "name": "",
          "type": "bytes4"
        }
      ],
      "stateMutability": "nonpayable",
      "type": "function"
    },
    {
      "inputs": [
        {
          "internalType": "address",
          "name": "",
          "type": "address"
        },
        {
          "internalType": "address",
          "name": "",
          "type": "address"
        },
        {
          "internalType": "uint256",
          "name": "",
          "type": "uint256"
        },
        {
          "internalType": "bytes",
          "name": "",
          "type": "bytes"
        }
      ],
      "name": "onERC721Received",
      "outputs": [
        {
          "internalType": "bytes4",
          "name": "",
          "type": "bytes4"
        }
      ],
      "stateMutability": "nonpayable",
      "type": "function"
    },
    {
      "inputs": [],
      "name": "proposeBreakUp",
      "outputs": [],
      "stateMutability": "nonpayable",
      "type": "function"
    },
    {
      "inputs": [
        {
          "internalType": "address",
          "name": "_secondHalf",
          "type": "address"
        },
        {
          "internalType": "uint256",
          "name": "_relationshipFee",
          "type": "uint256"
        }
      ],
      "name": "proposeRelationship",
      "outputs": [],
      "stateMutability": "nonpayable",
      "type": "function"
    },
    {
      "inputs": [
        {
          "internalType": "uint256",
          "name": "_amount",
          "type": "uint256"
        }
      ],
      "name": "proposeWithdraw",
      "outputs": [],
      "stateMutability": "nonpayable",
      "type": "function"
    },
    {
      "inputs": [
        {
          "internalType": "uint256",
          "name": "",
          "type": "uint256"
        }
      ],
      "name": "relationships",
      "outputs": [
        {
          "internalType": "bytes20",
          "name": "",
          "type": "bytes20"
        }
      ],
      "stateMutability": "view",
      "type": "function"
    },
    {
      "inputs": [],
      "name": "slashBrakeUp",
      "outputs": [],
      "stateMutability": "nonpayable",
      "type": "function"
    },
    {
      "inputs": [],
      "name": "vaultFactory",
      "outputs": [
        {
          "internalType": "contract VaultFactory",
          "name": "",
          "type": "address"
        }
      ],
      "stateMutability": "view",
      "type": "function"
    },
    {
      "inputs": [],
      "name": "weth",
      "outputs": [
        {
          "internalType": "contract IERC20",
          "name": "",
          "type": "address"
        }
      ],
      "stateMutability": "view",
      "type": "function"
    }
  ],
  "bytecode": "0x6101006040523480156200001257600080fd5b506040516200933d3803806200933d833981016040819052620000359162000208565b6001600160a01b038087166080526006859055831660e05260405130908790859085906200006390620001c5565b6001600160a01b039485168152928416602084015290831660408301529091166060820152608001604051809103906000f080158015620000a8573d6000803e3d6000fd5b506001600160a01b031660c052604051620000c390620001d3565b602080825260079082015266736f6d6555524960c81b6040820152606001604051809103906000f080158015620000fe573d6000803e3d6000fd5b50600080546001600160a01b0319166001600160a01b03929092169190911790556040516200012d90620001e1565b6040808252600b908201526a4c6f76655061646c6f636b60a81b60608201526080602082018190526003908201526213141360ea1b60a082015260c001604051809103906000f08015801562000187573d6000803e3d6000fd5b50600180546001600160a01b03199081166001600160a01b039384161790915595811660a05260028054909616911617909355506200029092505050565b6114298062003e9183390190565b611f0380620052ba83390190565b61218080620071bd83390190565b6001600160a01b03811681146200020557600080fd5b50565b60008060008060008060c087890312156200022257600080fd5b86516200022f81620001ef565b60208801519096506200024281620001ef565b6040880151606089015191965094506200025c81620001ef565b60808801519093506200026f81620001ef565b60a08801519092506200028281620001ef565b809150509295509295509295565b60805160a05160c05160e051613b3b620003566000396000610aac01526000818161040d01526128a4015260008181610181015281816119c901528181611a7e015281816121f901526123760152600081816102eb01528181610b3901528181610dd801528181610e6e015281816111e301528181611298015281816118610152818161191501528181611fb7015281816120c301528181612142015281816122b70152818161261d015281816127980152818161283401526129320152613b3b6000f3fe608060405234801561001057600080fd5b50600436106101775760003560e01c8063ad8b6d5a116100d8578063d56022d71161008c578063f23a6e6111610066578063f23a6e6114610437578063f3a1679e14610470578063f61549da1461047857600080fd5b8063d56022d7146103f5578063d8a06f7314610408578063e84a5af91461042f57600080fd5b8063b9b82301116100bd578063b9b82301146103d2578063bca6ce64146103da578063c3753644146103ed57600080fd5b8063ad8b6d5a146103ac578063b6b55f25146103bf57600080fd5b80634dd9de941161012f5780636e80a4c4116101145780636e80a4c4146103715780637d098e641461038457806394aa27181461039957600080fd5b80634dd9de94146103225780636add78791461033557600080fd5b80633b147023116101605780633b147023146102105780633fc8cef3146102e65780634d1db8911461030d57600080fd5b80630d5df7ba1461017c578063150b7a02146101c0575b600080fd5b6101a37f000000000000000000000000000000000000000000000000000000000000000081565b6040516001600160a01b0390911681526020015b60405180910390f35b6101f76101ce3660046131d8565b7f150b7a0200000000000000000000000000000000000000000000000000000000949350505050565b6040516001600160e01b031990911681526020016101b7565b6102cf61021e366004613258565b6004602081815260009283526040928390208054600182015460028301546003840154958401546005850154600686015460078701548a51808c018c5260088901546001600160a01b03908116825260098a0154828c01528c5160608181018f52600a8c015460ff81811615158452610100909104811615159d83019d909d52600b909b01549d81019d909d529790981b9a95999487169885881698600160a01b909604169693959294919316918b565b6040516101b79b9a99989796959493929190613289565b6101a37f000000000000000000000000000000000000000000000000000000000000000081565b61032061031b366004613349565b61048f565b005b6103206103303660046133ad565b610504565b6103586103433660046133d9565b60036020526000908152604090205460601b81565b6040516001600160601b031990911681526020016101b7565b61032061037f366004613258565b61087c565b61038c610a79565b6040516101b7919061344e565b6103586103a7366004613546565b610bce565b6103206103ba366004613546565b610bf2565b6103206103cd366004613546565b610d77565b610320610f7f565b6001546101a3906001600160a01b031681565b610320611355565b6000546101a3906001600160a01b031681565b6101a37f000000000000000000000000000000000000000000000000000000000000000081565b6103206114ec565b6101f761044536600461355f565b7ff23a6e61000000000000000000000000000000000000000000000000000000009695505050505050565b610320611b89565b61048160065481565b6040519081526020016101b7565b3360008181526003602052604090205460601b906104ac9061242c565b806bffffffffffffffffffffffff1916336001600160a01b03167f9259563f1499efea3582979b778fdbabc79ff41aa796371aa743309929feee9f85856040516104f7929190613609565b60405180910390a3505050565b61050e33836124a1565b610518338261258b565b6040516001600160601b031933606090811b8216602084015284901b1660348201524260488201526000906068016040516020818303038152906040528051906020012090506000604051806101600160405280836bffffffffffffffffffffffff19168152602001428152602001336001600160a01b03168152602001856001600160a01b03168152602001600015158152602001600081526020016000815260200184815260200160006001600160a01b03168152602001604051806040016040528060006001600160a01b03168152602001600081525081526020016040518060600160405280600015158152602001600015158152602001600081525081525090506005829080600181540180825580915050600190039060005260206000200160009091909190916101000a8154816001600160a01b03021916908360601c02179055508060046000846bffffffffffffffffffffffff19166bffffffffffffffffffffffff1916815260200190815260200160002060008201518160000160006101000a8154816001600160a01b03021916908360601c02179055506020820151816001015560408201518160020160006101000a8154816001600160a01b0302191690836001600160a01b0316021790555060608201518160030160006101000a8154816001600160a01b0302191690836001600160a01b0316021790555060808201518160030160146101000a81548160ff02191690831515021790555060a0820151816004015560c0820151816005015560e082015181600601556101008201518160070160006101000a8154816001600160a01b0302191690836001600160a01b031602179055506101208201518160080160008201518160000160006101000a8154816001600160a01b0302191690836001600160a01b0316021790555060208201518160010155505061014082015181600a0160008201518160000160006101000a81548160ff02191690831515021790555060208201518160000160016101000a81548160ff021916908315150217905550604082015181600101555050905050836001600160a01b0316336001600160a01b0316836bffffffffffffffffffffffff19167fea12502c9c49553be6ff654be0834ca3b1ecc123d02fe80a92a5a08a2c12efd260405160405180910390a450505050565b6001600160601b031981166000908152600460208190526040909120600281015460038201546006830154600184015494840154600585015494956001600160a01b0394851695939094169391926108d486866124a1565b6108de86866126d8565b6108e8868561258b565b6108f2858561258b565b60006108ff878787612769565b9050808860070160006101000a8154816001600160a01b0302191690836001600160a01b0316021790555060018860030160146101000a81548160ff0219169083151502179055508860036000896001600160a01b03166001600160a01b0316815260200190815260200160002060006101000a8154816001600160a01b03021916908360601c02179055508860036000886001600160a01b03166001600160a01b0316815260200190815260200160002060006101000a8154816001600160a01b03021916908360601c0217905550610a118960405180604001604052808a6001600160a01b03166001600160a01b03168152602001896001600160a01b03166001600160a01b0316815250612a44565b60408051858152602081018590529081018390526001600160a01b0380881691908916906001600160601b03198c16907f726ec88b4f3790a80ffee26fff669ba10d858fb16c1f1729ae2614fc3dc0a00b9060600160405180910390a4505050505050505050565b6002546040517f976fafc50000000000000000000000000000000000000000000000000000000081526001600160a01b037f00000000000000000000000000000000000000000000000000000000000000008116600483015260609260009291169063976fafc590602401600060405180830381865afa158015610b01573d6000803e3d6000fd5b505050506040513d6000823e601f3d908101601f19168201604052610b299190810190613872565b905060005b8151811015610bc9577f00000000000000000000000000000000000000000000000000000000000000006001600160a01b0316828281518110610b7357610b736139b8565b6020026020010151600001516001600160a01b03161415610bb757818181518110610ba057610ba06139b8565b602002602001015160200151604001519250505090565b80610bc1816139e4565b915050610b2e565b505090565b60058181548110610bde57600080fd5b60009182526020909120015460601b905081565b33600090815260036020818152604080842054606090811b6001600160601b031981811687526004808652968490208451610160810186528154851b909216825260018101548287015260028101546001600160a01b03908116838701529681015480881683860152600160a01b900460ff908116151560808401529781015460a0830152600581015460c0830152600681015460e08301526007810154871661010080840191909152855180870187526008830154909816885260098201548888015261012083019790975284519384018552600a81018054808a161515865297909704909716151594830194909452600b9095015491810191909152610140820152610cff90612d2b565b805460ff1615610d0e57600080fd5b8054610100900460ff1615610d2257600080fd5b6001600160601b031982166000908152600460205260409020600201546001600160a01b0316331415610d5f57805460ff19166001178155610d6d565b805461ff0019166101001781555b6001019190915550565b3360008181526003602090815260408083205460601b6001600160601b031981168452600492839052928190206007015490516323b872dd60e01b8152918201939093523060248201526044810184905290916001600160a01b03908116917f0000000000000000000000000000000000000000000000000000000000000000909116906323b872dd906064016020604051808303816000875af1158015610e23573d6000803e3d6000fd5b505050506040513d601f19601f82011682018060405250810190610e4791906139ff565b5060405163095ea7b360e01b81526001600160a01b038281166004830152602482018590527f0000000000000000000000000000000000000000000000000000000000000000169063095ea7b3906044016020604051808303816000875af1158015610eb7573d6000803e3d6000fd5b505050506040513d601f19601f82011682018060405250810190610edb91906139ff565b5060405162d1fa5b60e71b8152600481018490526001600160a01b038216906368fd2d8090602401600060405180830381600087803b158015610f1d57600080fd5b505af1158015610f31573d6000803e3d6000fd5b505060408051338152602081018790526001600160601b0319861693507f6c362c23daa171c50a02f9217f2c1a49915ed78f671d2114ecb1896fc7462fa192500160405180910390a2505050565b336000908152600360208181526040808420546001600160601b0319606091821b81811687526004808652968490208451610160810186528154851b909316835260018101548387015260028101546001600160a01b0390811684870152968101548088168486015260ff600160a01b9091048116151560808501529781015460a0840152600581015460c0840152600681015460e08401526007810154871661010084810191909152855180870187526008830154909816885260098201548888015261012084019790975284519384018552600a8101548089161515855296909604909616151593820193909352600b8401549181019190915261014082015261108a90612d2b565b60028101546001600160a01b031633141561110257600a810154610100900460ff166110fd5760405162461bcd60e51b815260206004820152601860248201527f5365636f6e642068616c66206d75737420617070726f7665000000000000000060448201526064015b60405180910390fd5b611156565b600a81015460ff166111565760405162461bcd60e51b815260206004820152601860248201527f5365636f6e642068616c66206d75737420617070726f7665000000000000000060448201526064016110f4565b600b81015460078201546040517f2e1a7d4d000000000000000000000000000000000000000000000000000000008152600481018390526001600160a01b0390911690632e1a7d4d90602401600060405180830381600087803b1580156111bc57600080fd5b505af11580156111d0573d6000803e3d6000fd5b5050506002808401546001600160a01b037f00000000000000000000000000000000000000000000000000000000000000008116935063a9059cbb929116906112199085613a37565b6040516001600160e01b031960e085901b1681526001600160a01b03909216600483015260248201526044016020604051808303816000875af1158015611264573d6000803e3d6000fd5b505050506040513d601f19601f8201168201806040525081019061128891906139ff565b5060038201546001600160a01b037f000000000000000000000000000000000000000000000000000000000000000081169163a9059cbb91166112cc600285613a37565b6040516001600160e01b031960e085901b1681526001600160a01b03909216600483015260248201526044016020604051808303816000875af1158015611317573d6000803e3d6000fd5b505050506040513d601f19601f8201168201806040525081019061133b91906139ff565b5050600a8101805461ffff191690556000600b9091015550565b3360008181526003602090815260408083205460601b6001600160601b031916835260049091529020906113889061242c565b60088101546001600160a01b03163314156113e55760405162461bcd60e51b815260206004820152601060248201527f416c72656164792070726f706f7365640000000000000000000000000000000060448201526064016110f4565b600080546005830154604051637921219560e11b815233600482015230602482015260448101919091526001606482015260a0608482015260a48101929092526001600160a01b03169063f242432a9060c401600060405180830381600087803b15801561145257600080fd5b505af1158015611466573d6000803e3d6000fd5b505050506008810180543373ffffffffffffffffffffffffffffffffffffffff19909116811790915542600983015560008181526003602090815260409182902054915192835260609190911b6001600160601b031916917fdfceaaa857d388cb3ebe7a62f9ab6a7f5d5dff9ab715a6ba2fe88c311bb0ee00910160405180910390a250565b3360008181526003602090815260408083205460601b6001600160601b031981168452600490925290912090916115229061242c565b604080516101608101825282546001600160601b0319606091821b168252600184015460208084019190915260028501546001600160a01b039081168486015260038601548082168486015260ff600160a01b909104811615156080860152600487015460a0860152600587015460c0860152600687015460e08601526007870154821661010080870191909152865180880188526008890154909316835260098801548385015261012086019290925285519384018652600a870154808216151585529190910416151590820152600b8401549281019290925261014081019190915261160f90612d9b565b60088101546001600160a01b031633141561166c5760405162461bcd60e51b815260206004820152601960248201527f496e69746961746f722063616e206e6f7420617070726f76650000000000000060448201526064016110f4565b600080546005830154604051637921219560e11b815233600482015230602482015260448101919091526001606482015260a0608482015260a48101929092526001600160a01b03169063f242432a9060c401600060405180830381600087803b1580156116d957600080fd5b505af11580156116ed573d6000803e3d6000fd5b50506000546005840154604051630852cd8d60e31b81526001600160a01b0390921693506342966c6892506117289160040190815260200190565b600060405180830381600087803b15801561174257600080fd5b505af1158015611756573d6000803e3d6000fd5b5050600154600484810154604051630852cd8d60e31b8152918201526001600160a01b0390911692506342966c689150602401600060405180830381600087803b1580156117a357600080fd5b505af11580156117b7573d6000803e3d6000fd5b505042600984015550506007810154604080517f853828b6000000000000000000000000000000000000000000000000000000008152815160009384936001600160a01b039091169263853828b69260048083019392829003018187875af1158015611827573d6000803e3d6000fd5b505050506040513d601f19601f8201168201806040525081019061184b9190613a4b565b6002808601549294509092506001600160a01b037f000000000000000000000000000000000000000000000000000000000000000081169263a9059cbb929116906118969086613a37565b6040516001600160e01b031960e085901b1681526001600160a01b03909216600483015260248201526044016020604051808303816000875af11580156118e1573d6000803e3d6000fd5b505050506040513d601f19601f8201168201806040525081019061190591906139ff565b5060038301546001600160a01b037f000000000000000000000000000000000000000000000000000000000000000081169163a9059cbb9116611949600286613a37565b6040516001600160e01b031960e085901b1681526001600160a01b03909216600483015260248201526044016020604051808303816000875af1158015611994573d6000803e3d6000fd5b505050506040513d601f19601f820116820180604052508101906119b891906139ff565b506002808401546001600160a01b037f000000000000000000000000000000000000000000000000000000000000000081169263a9059cbb92909116906119ff9085613a37565b6040516001600160e01b031960e085901b1681526001600160a01b03909216600483015260248201526044016020604051808303816000875af1158015611a4a573d6000803e3d6000fd5b505050506040513d601f19601f82011682018060405250810190611a6e91906139ff565b5060038301546001600160a01b037f000000000000000000000000000000000000000000000000000000000000000081169163a9059cbb9116611ab2600285613a37565b6040516001600160e01b031960e085901b1681526001600160a01b03909216600483015260248201526044016020604051808303816000875af1158015611afd573d6000803e3d6000fd5b505050506040513d601f19601f82011682018060405250810190611b2191906139ff565b5060088301543360008181526003602052604080822054905192936001600160a01b03169260609190911b6001600160601b031916917fb90c63eef8d53b837ea955ade299685a36ad96049b1987b70062b52038d862f991a4611b8384612df7565b50505050565b33600081815260036020818152604080842054606090811b6001600160601b031981811687526004808652968490208451610160810186528154851b909216825260018101548287015260028101546001600160a01b03908116838701529681015480881683860152600160a01b900460ff908116151560808401529781015460a0830152600581015460c0830152600681015460e08301526007810154871661010080840191909152855180870187526008830154909816885260098201548888015261012083019790975284519384018552600a8101548089161515855296909604909616151593820193909352600b909301549083015261014083019190915291611c969061242c565b611c9f81612d9b565b610120810151516001600160a01b03163314611cfd5760405162461bcd60e51b815260206004820152601060248201527f4e6f7420616e20696e69746961746f720000000000000000000000000000000060448201526064016110f4565b600081604001516001600160a01b0316826101200151600001516001600160a01b03161415611d30578160600151611d36565b81604001515b6000805460c0850151604051637921219560e11b81526001600160a01b03808616600483015230602483015260448201929092526001606482015260a0608482015260a4810193909352929350919091169063f242432a9060c401600060405180830381600087803b158015611dab57600080fd5b505af1158015611dbf573d6000803e3d6000fd5b505060005460c0850151604051630852cd8d60e31b81526001600160a01b0390921693506342966c689250611dfa9160040190815260200190565b600060405180830381600087803b158015611e1457600080fd5b505af1158015611e28573d6000803e3d6000fd5b505060015460a0850151604051630852cd8d60e31b81526001600160a01b0390921693506342966c689250611e639160040190815260200190565b600060405180830381600087803b158015611e7d57600080fd5b505af1158015611e91573d6000803e3d6000fd5b505050506000808361010001516001600160a01b031663853828b66040518163ffffffff1660e01b815260040160408051808303816000875af1158015611edc573d6000803e3d6000fd5b505050506040513d601f19601f82011682018060405250810190611f009190613a4b565b91509150611f0d85612df7565b60058054600091606490611f22908690613a6f565b611f2c9190613a37565b611f369190613a37565b905060005b6005548110156120945760006004600060058481548110611f5e57611f5e6139b8565b60009182526020808320919091015460601b6001600160601b0319168352820192909252604090810190912060070154905163095ea7b360e01b81526001600160a01b03918216600482018190526024820186905292507f00000000000000000000000000000000000000000000000000000000000000009091169063095ea7b3906044016020604051808303816000875af1158015612002573d6000803e3d6000fd5b505050506040513d601f19601f8201168201806040525081019061202691906139ff565b5060405162d1fa5b60e71b8152600481018490526001600160a01b038216906368fd2d8090602401600060405180830381600087803b15801561206857600080fd5b505af115801561207c573d6000803e3d6000fd5b5050505050808061208c906139e4565b915050611f3b565b506040517f70a082310000000000000000000000000000000000000000000000000000000081523060048201527f00000000000000000000000000000000000000000000000000000000000000006001600160a01b0316906370a0823190602401602060405180830381865afa158015612112573d6000803e3d6000fd5b505050506040513d601f19601f820116820180604052508101906121369190613a8e565b92506001600160a01b037f00000000000000000000000000000000000000000000000000000000000000001663a9059cbb85606461217587603c613a6f565b61217f9190613a37565b6040516001600160e01b031960e085901b1681526001600160a01b03909216600483015260248201526044016020604051808303816000875af11580156121ca573d6000803e3d6000fd5b505050506040513d601f19601f820116820180604052508101906121ee91906139ff565b506001600160a01b037f00000000000000000000000000000000000000000000000000000000000000001663a9059cbb85606461222c86603c613a6f565b6122369190613a37565b6040516001600160e01b031960e085901b1681526001600160a01b03909216600483015260248201526044016020604051808303816000875af1158015612281573d6000803e3d6000fd5b505050506040513d601f19601f820116820180604052508101906122a591906139ff565b50610120850151516001600160a01b037f0000000000000000000000000000000000000000000000000000000000000000169063a9059cbb9060646122eb876028613a6f565b6122f59190613a37565b6040516001600160e01b031960e085901b1681526001600160a01b03909216600483015260248201526044016020604051808303816000875af1158015612340573d6000803e3d6000fd5b505050506040513d601f19601f8201168201806040525081019061236491906139ff565b50610120850151516001600160a01b037f0000000000000000000000000000000000000000000000000000000000000000169063a9059cbb9060646123aa86603c613a6f565b6123b49190613a37565b6040516001600160e01b031960e085901b1681526001600160a01b03909216600483015260248201526044016020604051808303816000875af11580156123ff573d6000803e3d6000fd5b505050506040513d601f19601f8201168201806040525081019061242391906139ff565b50505050505050565b6001600160a01b03811660009081526003602052604090205460601b6001600160601b03191661249e5760405162461bcd60e51b815260206004820152601860248201527f55736572206e6f7420696e2072656c6174696f6e73686970000000000000000060448201526064016110f4565b50565b6001600160a01b03821660009081526003602052604090205460601b6001600160601b031916156125145760405162461bcd60e51b815260206004820152601c60248201527f5573657220616c726561647920696e2072656c6174696f6e736869700000000060448201526064016110f4565b6001600160a01b03811660009081526003602052604090205460601b6001600160601b031916156125875760405162461bcd60e51b815260206004820152601c60248201527f5573657220616c726561647920696e2072656c6174696f6e736869700000000060448201526064016110f4565b5050565b6006548110156125dd5760405162461bcd60e51b815260206004820152601760248201527f72656c6174696f6e7368697046656520746f6f206c6f7700000000000000000060448201526064016110f4565b6040517fdd62ed3e0000000000000000000000000000000000000000000000000000000081526001600160a01b03838116600483015230602483015282917f00000000000000000000000000000000000000000000000000000000000000009091169063dd62ed3e90604401602060405180830381865afa158015612666573d6000803e3d6000fd5b505050506040513d601f19601f8201168201806040525081019061268a9190613a8e565b10156125875760405162461bcd60e51b815260206004820152600f60248201527f417070726f76616c20746f206c6f77000000000000000000000000000000000060448201526064016110f4565b6001600160a01b0382163314806126f757506001600160a01b03811633145b6125875760405162461bcd60e51b815260206004820152602a60248201527f6d73672e73656e646572206973206e6f7420696e2070726f706f73656420726560448201527f6c6174696f6e736869700000000000000000000000000000000000000000000060648201526084016110f4565b6040516323b872dd60e01b81526001600160a01b038481166004830152306024830152604482018390526000917f0000000000000000000000000000000000000000000000000000000000000000909116906323b872dd906064016020604051808303816000875af11580156127e3573d6000803e3d6000fd5b505050506040513d601f19601f8201168201806040525081019061280791906139ff565b506040516323b872dd60e01b81526001600160a01b038481166004830152306024830152604482018490527f000000000000000000000000000000000000000000000000000000000000000016906323b872dd906064016020604051808303816000875af115801561287d573d6000803e3d6000fd5b505050506040513d601f19601f820116820180604052508101906128a191906139ff565b507f00000000000000000000000000000000000000000000000000000000000000006001600160a01b031663efc81a8c6040518163ffffffff1660e01b81526004016020604051808303816000875af1158015612902573d6000803e3d6000fd5b505050506040513d601f19601f820116820180604052508101906129269190613aa7565b90506001600160a01b037f00000000000000000000000000000000000000000000000000000000000000001663095ea7b382612963856002613a6f565b6040516001600160e01b031960e085901b1681526001600160a01b03909216600483015260248201526044016020604051808303816000875af11580156129ae573d6000803e3d6000fd5b505050506040513d601f19601f820116820180604052508101906129d291906139ff565b506001600160a01b0381166368fd2d806129ed846002613a6f565b6040518263ffffffff1660e01b8152600401612a0b91815260200190565b600060405180830381600087803b158015612a2557600080fd5b505af1158015612a39573d6000803e3d6000fd5b505050509392505050565b6001600160601b03198216600090815260046020819052604080832060015491517fd85d3d270000000000000000000000000000000000000000000000000000000081529093926001600160a01b039092169163d85d3d2791612b4b91016020808252606d908201527f68747470733a2f2f697066732e696f2f697066732f516d5950415446384e523760408201527f726a39337642376372615855547667437968337a4a357572584479426261525260608201527f7633433f66696c656e616d653d30322d3130432d76616c656e74696e65732d4c60808201527f6f636b5f677265656e2e706e670000000000000000000000000000000000000060a082015260c00190565b6020604051808303816000875af1158015612b6a573d6000803e3d6000fd5b505050506040513d601f19601f82011682018060405250810190612b8e9190613a8e565b905060008060009054906101000a90046001600160a01b03166001600160a01b0316631249c58b6040518163ffffffff1660e01b81526004016020604051808303816000875af1158015612be6573d6000803e3d6000fd5b505050506040513d601f19601f82011682018060405250810190612c0a9190613a8e565b600080548651604051637921219560e11b81523060048201526001600160a01b039182166024820152604481018590526001606482015260a0608482015260a4810193909352929350919091169063f242432a9060c401600060405180830381600087803b158015612c7b57600080fd5b505af1158015612c8f573d6000803e3d6000fd5b5050600080546020880151604051637921219560e11b81523060048201526001600160a01b039182166024820152604481018790526001606482015260a0608482015260a481019390935216925063f242432a915060c401600060405180830381600087803b158015612d0157600080fd5b505af1158015612d15573d6000803e3d6000fd5b5050505060048301919091556005909101555050565b62093a806301e13380826020015142612d449190613ac4565b612d4e9190613adb565b1061249e5760405162461bcd60e51b815260206004820152601360248201527f5265717569726520616e6e69766572736172790000000000000000000000000060448201526064016110f4565b610120810151516001600160a01b031661249e5760405162461bcd60e51b815260206004820152601360248201527f4e6f20627265616b75702070726f706f7365640000000000000000000000000060448201526064016110f4565b60005b60055481101561258757816bffffffffffffffffffffffff191660058281548110612e2757612e276139b8565b60009182526020909120015460601b6001600160601b031916141561309457600360006004600060058581548110612e6157612e616139b8565b60009182526020808320919091015460601b6001600160601b03191683528281019390935260409182018120600201546001600160a01b031684529183019390935291018120805473ffffffffffffffffffffffffffffffffffffffff19169055600580546003929160049183919086908110612ee057612ee06139b8565b60009182526020808320919091015460601b6001600160601b0319908116845283820194909452604092830182206003908101546001600160a01b03168652858201969096529382018120805473ffffffffffffffffffffffffffffffffffffffff19908116909155928716815260049384905290812080548316815560018181018390556002820180548516905594810180547fffffffffffffffffffffff0000000000000000000000000000000000000000001690559283018190556005808401829055600684018290556007840180548416905560088401805490931690925560098301819055600a8301805461ffff19169055600b9092019190915580549091612fed91613ac4565b81548110612ffd57612ffd6139b8565b9060005260206000200160009054906101000a900460601b60058281548110613028576130286139b8565b9060005260206000200160006101000a8154816001600160a01b03021916908360601c0217905550600580548061306157613061613aef565b6000828152602090208101600019908101805473ffffffffffffffffffffffffffffffffffffffff191690550190555050565b8061309e816139e4565b915050612dfa565b6001600160a01b038116811461249e57600080fd5b634e487b7160e01b600052604160045260246000fd5b6040516060810167ffffffffffffffff811182821017156130f4576130f46130bb565b60405290565b604051610160810167ffffffffffffffff811182821017156130f4576130f46130bb565b6040516080810167ffffffffffffffff811182821017156130f4576130f46130bb565b604051601f8201601f1916810167ffffffffffffffff8111828210171561316a5761316a6130bb565b604052919050565b600067ffffffffffffffff82111561318c5761318c6130bb565b50601f01601f191660200190565b60006131ad6131a884613172565b613141565b90508281528383830111156131c157600080fd5b828260208301376000602084830101529392505050565b600080600080608085870312156131ee57600080fd5b84356131f9816130a6565b93506020850135613209816130a6565b925060408501359150606085013567ffffffffffffffff81111561322c57600080fd5b8501601f8101871361323d57600080fd5b61324c8782356020840161319a565b91505092959194509250565b60006020828403121561326a57600080fd5b81356001600160601b03198116811461328257600080fd5b9392505050565b6001600160601b03198c16815260208082018c90526001600160a01b038b811660408401528a81166060840152891515608084015260a0830189905260c0830188905260e083018790528581166101008401528451166101208301528301516101408201526101c08101613319610160830184805115158252602080820151151590830152604090810151910152565b9c9b505050505050505050505050565b600082601f83011261333a57600080fd5b6132828383356020850161319a565b6000806040838503121561335c57600080fd5b823567ffffffffffffffff8082111561337457600080fd5b61338086838701613329565b9350602085013591508082111561339657600080fd5b506133a385828601613329565b9150509250929050565b600080604083850312156133c057600080fd5b82356133cb816130a6565b946020939093013593505050565b6000602082840312156133eb57600080fd5b8135613282816130a6565b60005b838110156134115781810151838201526020016133f9565b83811115611b835750506000910152565b6000815180845261343a8160208601602086016133f6565b601f01601f19169290920160200192915050565b60006020808301818452808551808352604092508286019150828160051b87010184880160005b8381101561353857603f198984030185528151610160815181865261349c82870182613422565b915050888201516134b78a8701826001600160a01b03169052565b50878201516001600160a01b031685890152606080830151908601526080808301519086015260a0808301519086015260c0808301519086015260e080830151908601526101008083015160ff9081169187019190915261012080840151821690870152610140928301511691909401529386019390860190600101613475565b509098975050505050505050565b60006020828403121561355857600080fd5b5035919050565b60008060008060008060a0878903121561357857600080fd5b8635613583816130a6565b95506020870135613593816130a6565b94506040870135935060608701359250608087013567ffffffffffffffff808211156135be57600080fd5b818901915089601f8301126135d257600080fd5b8135818111156135e157600080fd5b8a60208285010111156135f357600080fd5b6020830194508093505050509295509295509295565b60408152600061361c6040830185613422565b828103602084015261362e8185613422565b95945050505050565b600067ffffffffffffffff821115613651576136516130bb565b5060051b60200190565b8051613666816130a6565b919050565b600082601f83011261367c57600080fd5b815161368a6131a882613172565b81815284602083860101111561369f57600080fd5b6136b08260208301602087016133f6565b949350505050565b805160ff8116811461366657600080fd5b6000606082840312156136db57600080fd5b6136e36130d1565b905081516136f0816130a6565b8152602082810151613701816130a6565b8282015260408381015167ffffffffffffffff8082111561372157600080fd5b818601915086601f83011261373557600080fd5b81516137436131a882613637565b81815260059190911b8301850190858101908983111561376257600080fd5b8685015b8381101561385f5780518581111561377e5760008081fd5b8601610160818d03601f19018113156137975760008081fd5b61379f6130fa565b8a830151888111156137b15760008081fd5b6137bf8f8d8387010161366b565b8252506137cd8a840161365b565b8b8201526137dd6060840161365b565b8a820152608080840151606083015260a0808501518284015260c0915081850151818401525060e0808501518284015261010091508185015181840152506101206138298186016136b8565b82840152610140915061383d8286016136b8565b9083015261384c8484016136b8565b9082015285525050918701918701613766565b5080868901525050505050505092915050565b6000602080838503121561388557600080fd5b825167ffffffffffffffff8082111561389d57600080fd5b818501915085601f8301126138b157600080fd5b81516138bf6131a882613637565b81815260059190911b830184019084810190888311156138de57600080fd5b8585015b838110156139ab578051858111156138f957600080fd5b86016080818c03601f190112156139105760008081fd5b61391861311e565b88820151613925816130a6565b81526040828101518881111561393b5760008081fd5b6139498e8c838701016136c9565b8b84015250606080840151898111156139625760008081fd5b6139708f8d838801016136c9565b8385015250608084015191508882111561398a5760008081fd5b6139988e8c848701016136c9565b90830152508452509186019186016138e2565b5098975050505050505050565b634e487b7160e01b600052603260045260246000fd5b634e487b7160e01b600052601160045260246000fd5b60006000198214156139f8576139f86139ce565b5060010190565b600060208284031215613a1157600080fd5b8151801515811461328257600080fd5b634e487b7160e01b600052601260045260246000fd5b600082613a4657613a46613a21565b500490565b60008060408385031215613a5e57600080fd5b505080516020909101519092909150565b6000816000190483118215151615613a8957613a896139ce565b500290565b600060208284031215613aa057600080fd5b5051919050565b600060208284031215613ab957600080fd5b8151613282816130a6565b600082821015613ad657613ad66139ce565b500390565b600082613aea57613aea613a21565b500690565b634e487b7160e01b600052603160045260246000fdfea26469706673582212209a3293cd11210fc408964ea6aa988595a20d91b748829ea10ad8b19c2c57bf1264736f6c634300080a003360c060405234801561001057600080fd5b5060405161142938038061142983398101604081905261002f916100c6565b6001600160a01b03841660805260405183908390839061004e906100a1565b6001600160a01b03938416815291831660208301529091166040820152606001604051809103906000f08015801561008a573d6000803e3d6000fd5b506001600160a01b031660a0525061012592505050565b6110258061040483390190565b6001600160a01b03811681146100c357600080fd5b50565b600080600080608085870312156100dc57600080fd5b84516100e7816100ae565b60208601519094506100f8816100ae565b6040860151909350610109816100ae565b606086015190925061011a816100ae565b939692955090935050565b60805160a0516102af61015560003960008181604b015260c7015260008181609b015261012801526102af6000f3fe608060405234801561001057600080fd5b50600436106100415760003560e01c806374d11fa814610046578063bca6400014610096578063efc81a8c146100bd575b600080fd5b61006d7f000000000000000000000000000000000000000000000000000000000000000081565b60405173ffffffffffffffffffffffffffffffffffffffff909116815260200160405180910390f35b61006d7f000000000000000000000000000000000000000000000000000000000000000081565b61006d60006100eb7f0000000000000000000000000000000000000000000000000000000000000000610193565b6040517f19ab453c00000000000000000000000000000000000000000000000000000000815273ffffffffffffffffffffffffffffffffffffffff7f000000000000000000000000000000000000000000000000000000000000000081166004830152919250908216906319ab453c90602401600060405180830381600087803b15801561017857600080fd5b505af115801561018c573d6000803e3d6000fd5b5050505090565b60006040517f3d602d80600a3d3981f3363d3d373d3d3d363d7300000000000000000000000081528260601b60148201527f5af43d82803e903d91602b57fd5bf3000000000000000000000000000000000060288201526037816000f091505073ffffffffffffffffffffffffffffffffffffffff8116610274576040517f08c379a000000000000000000000000000000000000000000000000000000000815260206004820152601660248201527f455243313136373a20637265617465206661696c656400000000000000000000604482015260640160405180910390fd5b91905056fea2646970667358221220f13b287f77fca36d3ac5330989f92806fd7b78a700f10006a3a877d97b4cef1c64736f6c634300080a00336101006040523480156200001257600080fd5b506040516200102538038062001025833981016040819052620000359162000166565b826001600160a01b03166080816001600160a01b031681525050816001600160a01b031663026b1d5f6040518163ffffffff1660e01b8152600401602060405180830381865afa1580156200008e573d6000803e3d6000fd5b505050506040513d601f19601f82011682018060405250810190620000b49190620001ba565b6001600160a01b031660a0816001600160a01b031681525050816001600160a01b031663e860accb6040518163ffffffff1660e01b8152600401602060405180830381865afa1580156200010c573d6000803e3d6000fd5b505050506040513d601f19601f82011682018060405250810190620001329190620001ba565b6001600160a01b0390811660c0521660e05250620001e19050565b6001600160a01b03811681146200016357600080fd5b50565b6000806000606084860312156200017c57600080fd5b835162000189816200014d565b60208501519093506200019c816200014d565b6040850151909250620001af816200014d565b809150509250925092565b600060208284031215620001cd57600080fd5b8151620001da816200014d565b9392505050565b60805160a05160c05160e051610db062000275600039600081816101c501526108e0015260008181610181015281816102b6015261080301526000818160f80152818161040101528181610623015261072c0152600081816101470152818161028e015281816103cc015281816104b10152818161058301528181610652015281816106f001526107d50152610db06000f3fe608060405234801561001057600080fd5b50600436106100be5760003560e01c806368fd2d8011610076578063853828b61161005b578063853828b6146101a35780638cc5ce99146101c05780638da5cb5b146101e757600080fd5b806368fd2d801461016957806383af752c1461017c57600080fd5b806319ab453c116100a757806319ab453c1461011a5780632e1a7d4d1461012f5780633fc8cef31461014257600080fd5b806314ad1e04146100c357806316f0115b146100f3575b600080fd5b6100d66100d13660046109ad565b6101fa565b6040516001600160a01b0390911681526020015b60405180910390f35b6100d67f000000000000000000000000000000000000000000000000000000000000000081565b61012d6101283660046109de565b610224565b005b61012d61013d3660046109ad565b610385565b6100d67f000000000000000000000000000000000000000000000000000000000000000081565b61012d6101773660046109ad565b610524565b6100d67f000000000000000000000000000000000000000000000000000000000000000081565b6101ab61078b565b604080519283526020830191909152016100ea565b6100d67f000000000000000000000000000000000000000000000000000000000000000081565b6000546100d6906001600160a01b031681565b6001818154811061020a57600080fd5b6000918252602090912001546001600160a01b0316905081565b6000546001600160a01b03161561023a57600080fd5b6000805473ffffffffffffffffffffffffffffffffffffffff19166001600160a01b038381169190911782556040517fd2493b6c0000000000000000000000000000000000000000000000000000000081527f0000000000000000000000000000000000000000000000000000000000000000821660048201527f00000000000000000000000000000000000000000000000000000000000000009091169063d2493b6c90602401606060405180830381865afa1580156102ff573d6000803e3d6000fd5b505050506040513d601f19601f820116820180604052508101906103239190610a02565b50506001805480820182556000919091527fb10e2d527612073b26eecdfd717e6a320cf44b4afac2b0732d9fcbe2b7fa0cf601805473ffffffffffffffffffffffffffffffffffffffff19166001600160a01b03929092169190911790555050565b6000546001600160a01b0316331461039c57600080fd5b6040517f69328dec0000000000000000000000000000000000000000000000000000000081526001600160a01b037f000000000000000000000000000000000000000000000000000000000000000081166004830152602482018390523060448301527f000000000000000000000000000000000000000000000000000000000000000016906369328dec906064016020604051808303816000875af115801561044a573d6000803e3d6000fd5b505050506040513d601f19601f8201168201806040525081019061046e9190610a4f565b506000546040517fa9059cbb0000000000000000000000000000000000000000000000000000000081526001600160a01b039182166004820152602481018390527f00000000000000000000000000000000000000000000000000000000000000009091169063a9059cbb906044016020604051808303816000875af11580156104fc573d6000803e3d6000fd5b505050506040513d601f19601f820116820180604052508101906105209190610a7d565b5050565b6000546001600160a01b0316331461053b57600080fd5b6000546040517f23b872dd0000000000000000000000000000000000000000000000000000000081526001600160a01b039182166004820152306024820152604481018390527f0000000000000000000000000000000000000000000000000000000000000000909116906323b872dd906064016020604051808303816000875af11580156105ce573d6000803e3d6000fd5b505050506040513d601f19601f820116820180604052508101906105f29190610a7d565b506040517f095ea7b30000000000000000000000000000000000000000000000000000000081526001600160a01b037f000000000000000000000000000000000000000000000000000000000000000081166004830152602482018390527f0000000000000000000000000000000000000000000000000000000000000000169063095ea7b3906044016020604051808303816000875af115801561069b573d6000803e3d6000fd5b505050506040513d601f19601f820116820180604052508101906106bf9190610a7d565b506040517fe8eda9df0000000000000000000000000000000000000000000000000000000081526001600160a01b037f00000000000000000000000000000000000000000000000000000000000000008116600483015260248201839052306044830152600060648301527f0000000000000000000000000000000000000000000000000000000000000000169063e8eda9df90608401600060405180830381600087803b15801561077057600080fd5b505af1158015610784573d6000803e3d6000fd5b5050505050565b6000805481906001600160a01b031633146107a557600080fd5b6040517f28dd2d010000000000000000000000000000000000000000000000000000000081526001600160a01b037f0000000000000000000000000000000000000000000000000000000000000000811660048301523060248301527f000000000000000000000000000000000000000000000000000000000000000016906328dd2d019060440161012060405180830381865afa15801561084b573d6000803e3d6000fd5b505050506040513d601f19601f8201168201806040525081019061086f9190610a98565b509698506108869650889550610385945050505050565b61088e610894565b90509091565b600080546001600160a01b031633146108ac57600080fd5b600080546040517fbb492bf50000000000000000000000000000000000000000000000000000000081526001600160a01b037f000000000000000000000000000000000000000000000000000000000000000081169263bb492bf592610919926001921690600401610b1b565b6000604051808303816000875af1158015610938573d6000803e3d6000fd5b505050506040513d6000823e601f3d908101601f191682016040526109609190810190610c56565b91505060005b81518110156109a85781818151811061098157610981610d1b565b6020026020010151836109949190610d47565b9250806109a081610d5f565b915050610966565b505090565b6000602082840312156109bf57600080fd5b5035919050565b6001600160a01b03811681146109db57600080fd5b50565b6000602082840312156109f057600080fd5b81356109fb816109c6565b9392505050565b600080600060608486031215610a1757600080fd5b8351610a22816109c6565b6020850151909350610a33816109c6565b6040850151909250610a44816109c6565b809150509250925092565b600060208284031215610a6157600080fd5b5051919050565b80518015158114610a7857600080fd5b919050565b600060208284031215610a8f57600080fd5b6109fb82610a68565b60008060008060008060008060006101208a8c031215610ab757600080fd5b8951985060208a0151975060408a0151965060608a0151955060808a0151945060a08a0151935060c08a0151925060e08a015164ffffffffff81168114610afd57600080fd5b9150610b0c6101008b01610a68565b90509295985092959850929598565b6000604082016040835280855480835260608501915086600052602092508260002060005b82811015610b655781546001600160a01b031684529284019260019182019101610b40565b5050506001600160a01b039490941692019190915250919050565b634e487b7160e01b600052604160045260246000fd5b604051601f8201601f1916810167ffffffffffffffff81118282101715610bbf57610bbf610b80565b604052919050565b600067ffffffffffffffff821115610be157610be1610b80565b5060051b60200190565b600082601f830112610bfc57600080fd5b81516020610c11610c0c83610bc7565b610b96565b82815260059290921b84018101918181019086841115610c3057600080fd5b8286015b84811015610c4b5780518352918301918301610c34565b509695505050505050565b60008060408385031215610c6957600080fd5b825167ffffffffffffffff80821115610c8157600080fd5b818501915085601f830112610c9557600080fd5b81516020610ca5610c0c83610bc7565b82815260059290921b84018101918181019089841115610cc457600080fd5b948201945b83861015610ceb578551610cdc816109c6565b82529482019490820190610cc9565b91880151919650909350505080821115610d0457600080fd5b50610d1185828601610beb565b9150509250929050565b634e487b7160e01b600052603260045260246000fd5b634e487b7160e01b600052601160045260246000fd5b60008219821115610d5a57610d5a610d31565b500190565b6000600019821415610d7357610d73610d31565b506001019056fea2646970667358221220d284d5ee5699c308d0d61674502f83bfdb8409a59b1c312b46ba6ddfeac7f8c764736f6c634300080a003360806040523480156200001157600080fd5b5060405162001f0338038062001f03833981016040819052620000349162000178565b80620000403362000053565b6200004b81620000a3565b505062000291565b600080546001600160a01b038381166001600160a01b0319831681178455604051919092169283917f8be0079c531659141344cd1fd0a4f28419497f9722a3daafe3b4186f6b6457e09190a35050565b8051620000b8906003906020840190620000bc565b5050565b828054620000ca9062000254565b90600052602060002090601f016020900481019282620000ee576000855562000139565b82601f106200010957805160ff191683800117855562000139565b8280016001018555821562000139579182015b82811115620001395782518255916020019190600101906200011c565b50620001479291506200014b565b5090565b5b808211156200014757600081556001016200014c565b634e487b7160e01b600052604160045260246000fd5b600060208083850312156200018c57600080fd5b82516001600160401b0380821115620001a457600080fd5b818501915085601f830112620001b957600080fd5b815181811115620001ce57620001ce62000162565b604051601f8201601f19908116603f01168101908382118183101715620001f957620001f962000162565b8160405282815288868487010111156200021257600080fd5b600093505b8284101562000236578484018601518185018701529285019262000217565b82841115620002485760008684830101525b98975050505050505050565b600181811c908216806200026957607f821691505b602082108114156200028b57634e487b7160e01b600052602260045260246000fd5b50919050565b611c6280620002a16000396000f3fe608060405234801561001057600080fd5b50600436106100de5760003560e01c80634e1273f41161008c578063a22cb46511610066578063a22cb465146101bf578063e985e9c5146101d2578063f242432a1461020e578063f2fde38b1461022157600080fd5b80634e1273f41461017c578063715018a61461019c5780638da5cb5b146101a457600080fd5b80631249c58b116100bd5780631249c58b1461014c5780632eb2c2d61461015457806342966c681461016957600080fd5b8062fdd58e146100e357806301ffc9a7146101095780630e89341c1461012c575b600080fd5b6100f66100f1366004611526565b610234565b6040519081526020015b60405180910390f35b61011c610117366004611566565b6102df565b6040519015158152602001610100565b61013f61013a36600461158a565b61037c565b60405161010091906115f0565b6100f6610410565b61016761016236600461174f565b6104e4565b005b61016761017736600461158a565b610586565b61018f61018a3660046117f9565b61061a565b60405161010091906118ff565b610167610758565b6000546040516001600160a01b039091168152602001610100565b6101676101cd366004611912565b6107be565b61011c6101e036600461194e565b6001600160a01b03918216600090815260026020908152604080832093909416825291909152205460ff1690565b61016761021c366004611981565b6107cd565b61016761022f3660046119e6565b610868565b60006001600160a01b0383166102b75760405162461bcd60e51b815260206004820152602b60248201527f455243313135353a2062616c616e636520717565727920666f7220746865207a60448201527f65726f206164647265737300000000000000000000000000000000000000000060648201526084015b60405180910390fd5b5060009081526001602090815260408083206001600160a01b03949094168352929052205490565b60006001600160e01b031982167fd9b67a2600000000000000000000000000000000000000000000000000000000148061034257506001600160e01b031982167f0e89341c00000000000000000000000000000000000000000000000000000000145b8061037657507f01ffc9a7000000000000000000000000000000000000000000000000000000006001600160e01b03198316145b92915050565b60606003805461038b90611a01565b80601f01602080910402602001604051908101604052809291908181526020018280546103b790611a01565b80156104045780601f106103d957610100808354040283529160200191610404565b820191906000526020600020905b8154815290600101906020018083116103e757829003601f168201915b50505050509050919050565b600080546001600160a01b0316331461046b5760405162461bcd60e51b815260206004820181905260248201527f4f776e61626c653a2063616c6c6572206973206e6f7420746865206f776e657260448201526064016102ae565b600061047660045490565b9050610486600480546001019055565b6104b361049b6000546001600160a01b031690565b8260026040518060200160405280600081525061094a565b60405181907f07883703ed0e86588a40d76551c92f8a4b329e3bf19765e0e6749473c1a8466590600090a290505b90565b6001600160a01b038516331480610500575061050085336101e0565b6105725760405162461bcd60e51b815260206004820152603260248201527f455243313135353a207472616e736665722063616c6c6572206973206e6f742060448201527f6f776e6572206e6f7220617070726f766564000000000000000000000000000060648201526084016102ae565b61057f8585858585610a78565b5050505050565b6000546001600160a01b031633146105e05760405162461bcd60e51b815260206004820181905260248201527f4f776e61626c653a2063616c6c6572206973206e6f7420746865206f776e657260448201526064016102ae565b6105ec33826002610cfc565b60405181907fb90306ad06b2a6ff86ddc9327db583062895ef6540e62dc50add009db5b356eb90600090a250565b606081518351146106935760405162461bcd60e51b815260206004820152602960248201527f455243313135353a206163636f756e747320616e6420696473206c656e67746860448201527f206d69736d61746368000000000000000000000000000000000000000000000060648201526084016102ae565b6000835167ffffffffffffffff8111156106af576106af611603565b6040519080825280602002602001820160405280156106d8578160200160208202803683370190505b50905060005b8451811015610750576107238582815181106106fc576106fc611a3c565b602002602001015185838151811061071657610716611a3c565b6020026020010151610234565b82828151811061073557610735611a3c565b602090810291909101015261074981611a68565b90506106de565b509392505050565b6000546001600160a01b031633146107b25760405162461bcd60e51b815260206004820181905260248201527f4f776e61626c653a2063616c6c6572206973206e6f7420746865206f776e657260448201526064016102ae565b6107bc6000610eac565b565b6107c9338383610f14565b5050565b6001600160a01b0385163314806107e957506107e985336101e0565b61085b5760405162461bcd60e51b815260206004820152602960248201527f455243313135353a2063616c6c6572206973206e6f74206f776e6572206e6f7260448201527f20617070726f766564000000000000000000000000000000000000000000000060648201526084016102ae565b61057f8585858585611009565b6000546001600160a01b031633146108c25760405162461bcd60e51b815260206004820181905260248201527f4f776e61626c653a2063616c6c6572206973206e6f7420746865206f776e657260448201526064016102ae565b6001600160a01b03811661093e5760405162461bcd60e51b815260206004820152602660248201527f4f776e61626c653a206e6577206f776e657220697320746865207a65726f206160448201527f646472657373000000000000000000000000000000000000000000000000000060648201526084016102ae565b61094781610eac565b50565b6001600160a01b0384166109c65760405162461bcd60e51b815260206004820152602160248201527f455243313135353a206d696e7420746f20746865207a65726f2061646472657360448201527f730000000000000000000000000000000000000000000000000000000000000060648201526084016102ae565b336109e6816000876109d7886111ab565b6109e0886111ab565b876111f6565b60008481526001602090815260408083206001600160a01b038916845290915281208054859290610a18908490611a83565b909155505060408051858152602081018590526001600160a01b0380881692600092918516917fc3d58168c5ae7397731d063d5bbf3d657854427343f4c083240f7aacaa2d0f62910160405180910390a461057f81600087878787611268565b8151835114610aef5760405162461bcd60e51b815260206004820152602860248201527f455243313135353a2069647320616e6420616d6f756e7473206c656e6774682060448201527f6d69736d6174636800000000000000000000000000000000000000000000000060648201526084016102ae565b6001600160a01b038416610b535760405162461bcd60e51b815260206004820152602560248201527f455243313135353a207472616e7366657220746f20746865207a65726f206164604482015264647265737360d81b60648201526084016102ae565b33610b628187878787876111f6565b60005b8451811015610c8e576000858281518110610b8257610b82611a3c565b602002602001015190506000858381518110610ba057610ba0611a3c565b60209081029190910181015160008481526001835260408082206001600160a01b038e168352909352919091205490915081811015610c345760405162461bcd60e51b815260206004820152602a60248201527f455243313135353a20696e73756666696369656e742062616c616e636520666f60448201526939103a3930b739b332b960b11b60648201526084016102ae565b60008381526001602090815260408083206001600160a01b038e8116855292528083208585039055908b16825281208054849290610c73908490611a83565b9250508190555050505080610c8790611a68565b9050610b65565b50846001600160a01b0316866001600160a01b0316826001600160a01b03167f4a39dc06d4c0dbc64b70af90fd698a233a518aa5d07e595d983b8c0526c8f7fb8787604051610cde929190611a9b565b60405180910390a4610cf481878787878761140e565b505050505050565b6001600160a01b038316610d785760405162461bcd60e51b815260206004820152602360248201527f455243313135353a206275726e2066726f6d20746865207a65726f206164647260448201527f657373000000000000000000000000000000000000000000000000000000000060648201526084016102ae565b33610da781856000610d89876111ab565b610d92876111ab565b604051806020016040528060008152506111f6565b60008381526001602090815260408083206001600160a01b038816845290915290205482811015610e3f5760405162461bcd60e51b8152602060048201526024808201527f455243313135353a206275726e20616d6f756e7420657863656564732062616c60448201527f616e63650000000000000000000000000000000000000000000000000000000060648201526084016102ae565b60008481526001602090815260408083206001600160a01b03898116808652918452828520888703905582518981529384018890529092908616917fc3d58168c5ae7397731d063d5bbf3d657854427343f4c083240f7aacaa2d0f62910160405180910390a45050505050565b600080546001600160a01b038381167fffffffffffffffffffffffff0000000000000000000000000000000000000000831681178455604051919092169283917f8be0079c531659141344cd1fd0a4f28419497f9722a3daafe3b4186f6b6457e09190a35050565b816001600160a01b0316836001600160a01b03161415610f9c5760405162461bcd60e51b815260206004820152602960248201527f455243313135353a2073657474696e6720617070726f76616c2073746174757360448201527f20666f722073656c66000000000000000000000000000000000000000000000060648201526084016102ae565b6001600160a01b03838116600081815260026020908152604080832094871680845294825291829020805460ff191686151590811790915591519182527f17307eab39ab6107e8899845ad3d59bd9653f200f220920489ca2b5937696c31910160405180910390a3505050565b6001600160a01b03841661106d5760405162461bcd60e51b815260206004820152602560248201527f455243313135353a207472616e7366657220746f20746865207a65726f206164604482015264647265737360d81b60648201526084016102ae565b3361107d8187876109d7886111ab565b60008481526001602090815260408083206001600160a01b038a168452909152902054838110156111035760405162461bcd60e51b815260206004820152602a60248201527f455243313135353a20696e73756666696369656e742062616c616e636520666f60448201526939103a3930b739b332b960b11b60648201526084016102ae565b60008581526001602090815260408083206001600160a01b038b8116855292528083208785039055908816825281208054869290611142908490611a83565b909155505060408051868152602081018690526001600160a01b03808916928a821692918616917fc3d58168c5ae7397731d063d5bbf3d657854427343f4c083240f7aacaa2d0f62910160405180910390a46111a2828888888888611268565b50505050505050565b604080516001808252818301909252606091600091906020808301908036833701905050905082816000815181106111e5576111e5611a3c565b602090810291909101015292915050565b6000546001600160a01b03868116911614610cf4576000546001600160a01b03858116911614610cf45760405162461bcd60e51b815260206004820152601a60248201527f43616e206f6e6c79207472616e7366657220746f206f776e657200000000000060448201526064016102ae565b6001600160a01b0384163b15610cf45760405163f23a6e6160e01b81526001600160a01b0385169063f23a6e61906112ac9089908990889088908890600401611ac9565b6020604051808303816000875af19250505080156112e7575060408051601f3d908101601f191682019092526112e491810190611b0c565b60015b61139d576112f3611b29565b806308c379a0141561132d5750611308611b44565b80611313575061132f565b8060405162461bcd60e51b81526004016102ae91906115f0565b505b60405162461bcd60e51b815260206004820152603460248201527f455243313135353a207472616e7366657220746f206e6f6e204552433131353560448201527f526563656976657220696d706c656d656e74657200000000000000000000000060648201526084016102ae565b6001600160e01b0319811663f23a6e6160e01b146111a25760405162461bcd60e51b815260206004820152602860248201527f455243313135353a204552433131353552656365697665722072656a656374656044820152676420746f6b656e7360c01b60648201526084016102ae565b6001600160a01b0384163b15610cf45760405163bc197c8160e01b81526001600160a01b0385169063bc197c81906114529089908990889088908890600401611bce565b6020604051808303816000875af192505050801561148d575060408051601f3d908101601f1916820190925261148a91810190611b0c565b60015b611499576112f3611b29565b6001600160e01b0319811663bc197c8160e01b146111a25760405162461bcd60e51b815260206004820152602860248201527f455243313135353a204552433131353552656365697665722072656a656374656044820152676420746f6b656e7360c01b60648201526084016102ae565b80356001600160a01b038116811461152157600080fd5b919050565b6000806040838503121561153957600080fd5b6115428361150a565b946020939093013593505050565b6001600160e01b03198116811461094757600080fd5b60006020828403121561157857600080fd5b813561158381611550565b9392505050565b60006020828403121561159c57600080fd5b5035919050565b6000815180845260005b818110156115c9576020818501810151868301820152016115ad565b818111156115db576000602083870101525b50601f01601f19169290920160200192915050565b60208152600061158360208301846115a3565b634e487b7160e01b600052604160045260246000fd5b601f8201601f1916810167ffffffffffffffff8111828210171561163f5761163f611603565b6040525050565b600067ffffffffffffffff82111561166057611660611603565b5060051b60200190565b600082601f83011261167b57600080fd5b8135602061168882611646565b6040516116958282611619565b83815260059390931b85018201928281019150868411156116b557600080fd5b8286015b848110156116d057803583529183019183016116b9565b509695505050505050565b600082601f8301126116ec57600080fd5b813567ffffffffffffffff81111561170657611706611603565b60405161171d601f8301601f191660200182611619565b81815284602083860101111561173257600080fd5b816020850160208301376000918101602001919091529392505050565b600080600080600060a0868803121561176757600080fd5b6117708661150a565b945061177e6020870161150a565b9350604086013567ffffffffffffffff8082111561179b57600080fd5b6117a789838a0161166a565b945060608801359150808211156117bd57600080fd5b6117c989838a0161166a565b935060808801359150808211156117df57600080fd5b506117ec888289016116db565b9150509295509295909350565b6000806040838503121561180c57600080fd5b823567ffffffffffffffff8082111561182457600080fd5b818501915085601f83011261183857600080fd5b8135602061184582611646565b6040516118528282611619565b83815260059390931b850182019282810191508984111561187257600080fd5b948201945b83861015611897576118888661150a565b82529482019490820190611877565b965050860135925050808211156118ad57600080fd5b506118ba8582860161166a565b9150509250929050565b600081518084526020808501945080840160005b838110156118f4578151875295820195908201906001016118d8565b509495945050505050565b60208152600061158360208301846118c4565b6000806040838503121561192557600080fd5b61192e8361150a565b91506020830135801515811461194357600080fd5b809150509250929050565b6000806040838503121561196157600080fd5b61196a8361150a565b91506119786020840161150a565b90509250929050565b600080600080600060a0868803121561199957600080fd5b6119a28661150a565b94506119b06020870161150a565b93506040860135925060608601359150608086013567ffffffffffffffff8111156119da57600080fd5b6117ec888289016116db565b6000602082840312156119f857600080fd5b6115838261150a565b600181811c90821680611a1557607f821691505b60208210811415611a3657634e487b7160e01b600052602260045260246000fd5b50919050565b634e487b7160e01b600052603260045260246000fd5b634e487b7160e01b600052601160045260246000fd5b6000600019821415611a7c57611a7c611a52565b5060010190565b60008219821115611a9657611a96611a52565b500190565b604081526000611aae60408301856118c4565b8281036020840152611ac081856118c4565b95945050505050565b60006001600160a01b03808816835280871660208401525084604083015283606083015260a06080830152611b0160a08301846115a3565b979650505050505050565b600060208284031215611b1e57600080fd5b815161158381611550565b600060033d11156104e15760046000803e5060005160e01c90565b600060443d1015611b525790565b6040516003193d81016004833e81513d67ffffffffffffffff8160248401118184111715611b8257505050505090565b8285019150815181811115611b9a5750505050505090565b843d8701016020828501011115611bb45750505050505090565b611bc360208286010187611619565b509095945050505050565b60006001600160a01b03808816835280871660208401525060a06040830152611bfa60a08301866118c4565b8281036060840152611c0c81866118c4565b90508281036080840152611c2081856115a3565b9897505050505050505056fea2646970667358221220a3d126e9cc053fc6f54fefadad0fe0dac25cfaf435a1d01b561adaa1da53750d64736f6c634300080a003360806040523480156200001157600080fd5b50604051620021803803806200218083398101604081905262000034916200023a565b8181620000413362000077565b815162000056906001906020850190620000c7565b5080516200006c906002906020840190620000c7565b5050505050620002e1565b600080546001600160a01b038381166001600160a01b0319831681178455604051919092169283917f8be0079c531659141344cd1fd0a4f28419497f9722a3daafe3b4186f6b6457e09190a35050565b828054620000d590620002a4565b90600052602060002090601f016020900481019282620000f9576000855562000144565b82601f106200011457805160ff191683800117855562000144565b8280016001018555821562000144579182015b828111156200014457825182559160200191906001019062000127565b506200015292915062000156565b5090565b5b8082111562000152576000815560010162000157565b634e487b7160e01b600052604160045260246000fd5b600082601f8301126200019557600080fd5b81516001600160401b0380821115620001b257620001b26200016d565b604051601f8301601f19908116603f01168101908282118183101715620001dd57620001dd6200016d565b81604052838152602092508683858801011115620001fa57600080fd5b600091505b838210156200021e5785820183015181830184015290820190620001ff565b83821115620002305760008385830101525b9695505050505050565b600080604083850312156200024e57600080fd5b82516001600160401b03808211156200026657600080fd5b620002748683870162000183565b935060208501519150808211156200028b57600080fd5b506200029a8582860162000183565b9150509250929050565b600181811c90821680620002b957607f821691505b60208210811415620002db57634e487b7160e01b600052602260045260246000fd5b50919050565b611e8f80620002f16000396000f3fe608060405234801561001057600080fd5b50600436106101515760003560e01c806370a08231116100cd578063b88d4fde11610081578063d85d3d2711610066578063d85d3d27146102ad578063e985e9c5146102c0578063f2fde38b146102fc57600080fd5b8063b88d4fde14610287578063c87b56dd1461029a57600080fd5b80638da5cb5b116100b25780638da5cb5b1461025b57806395d89b411461026c578063a22cb4651461027457600080fd5b806370a0823114610232578063715018a61461025357600080fd5b806318e97fd11161012457806342842e0e1161010957806342842e0e146101f957806342966c681461020c5780636352211e1461021f57600080fd5b806318e97fd1146101d357806323b872dd146101e657600080fd5b806301ffc9a71461015657806306fdde031461017e578063081812fc14610193578063095ea7b3146101be575b600080fd5b610169610164366004611996565b61030f565b60405190151581526020015b60405180910390f35b6101866103ac565b6040516101759190611a0b565b6101a66101a1366004611a1e565b61043e565b6040516001600160a01b039091168152602001610175565b6101d16101cc366004611a4e565b6104d8565b005b6101d16101e1366004611b24565b61060a565b6101d16101f4366004611b6b565b610672565b6101d1610207366004611b6b565b6106f9565b6101d161021a366004611a1e565b610714565b6101a661022d366004611a1e565b6107a5565b610245610240366004611ba7565b610830565b604051908152602001610175565b6101d16108ca565b6000546001600160a01b03166101a6565b610186610930565b6101d1610282366004611bc2565b61093f565b6101d1610295366004611bfe565b61094a565b6101866102a8366004611a1e565b6109d8565b6102456102bb366004611c7a565b610b6b565b6101696102ce366004611caf565b6001600160a01b03918216600090815260066020908152604080832093909416825291909152205460ff1690565b6101d161030a366004611ba7565b610c35565b60006001600160e01b031982167f80ac58cd00000000000000000000000000000000000000000000000000000000148061037257506001600160e01b031982167f5b5e139f00000000000000000000000000000000000000000000000000000000145b806103a657507f01ffc9a7000000000000000000000000000000000000000000000000000000006001600160e01b03198316145b92915050565b6060600180546103bb90611ce2565b80601f01602080910402602001604051908101604052809291908181526020018280546103e790611ce2565b80156104345780601f1061040957610100808354040283529160200191610434565b820191906000526020600020905b81548152906001019060200180831161041757829003601f168201915b5050505050905090565b6000818152600360205260408120546001600160a01b03166104bc5760405162461bcd60e51b815260206004820152602c60248201527f4552433732313a20617070726f76656420717565727920666f72206e6f6e657860448201526b34b9ba32b73a103a37b5b2b760a11b60648201526084015b60405180910390fd5b506000908152600560205260409020546001600160a01b031690565b60006104e3826107a5565b9050806001600160a01b0316836001600160a01b0316141561056d5760405162461bcd60e51b815260206004820152602160248201527f4552433732313a20617070726f76616c20746f2063757272656e74206f776e6560448201527f720000000000000000000000000000000000000000000000000000000000000060648201526084016104b3565b336001600160a01b0382161480610589575061058981336102ce565b6105fb5760405162461bcd60e51b815260206004820152603860248201527f4552433732313a20617070726f76652063616c6c6572206973206e6f74206f7760448201527f6e6572206e6f7220617070726f76656420666f7220616c6c000000000000000060648201526084016104b3565b6106058383610d17565b505050565b6000546001600160a01b031633146106645760405162461bcd60e51b815260206004820181905260248201527f4f776e61626c653a2063616c6c6572206973206e6f7420746865206f776e657260448201526064016104b3565b61066e8282610d85565b5050565b61067c3382610e2e565b6106ee5760405162461bcd60e51b815260206004820152603160248201527f4552433732313a207472616e736665722063616c6c6572206973206e6f74206f60448201527f776e6572206e6f7220617070726f76656400000000000000000000000000000060648201526084016104b3565b610605838383610f21565b6106058383836040518060200160405280600081525061094a565b6000546001600160a01b0316331461076e5760405162461bcd60e51b815260206004820181905260248201527f4f776e61626c653a2063616c6c6572206973206e6f7420746865206f776e657260448201526064016104b3565b610777816110ee565b60405181907fb90306ad06b2a6ff86ddc9327db583062895ef6540e62dc50add009db5b356eb90600090a250565b6000818152600360205260408120546001600160a01b0316806103a65760405162461bcd60e51b815260206004820152602960248201527f4552433732313a206f776e657220717565727920666f72206e6f6e657869737460448201527f656e7420746f6b656e000000000000000000000000000000000000000000000060648201526084016104b3565b60006001600160a01b0382166108ae5760405162461bcd60e51b815260206004820152602a60248201527f4552433732313a2062616c616e636520717565727920666f7220746865207a6560448201527f726f20616464726573730000000000000000000000000000000000000000000060648201526084016104b3565b506001600160a01b031660009081526004602052604090205490565b6000546001600160a01b031633146109245760405162461bcd60e51b815260206004820181905260248201527f4f776e61626c653a2063616c6c6572206973206e6f7420746865206f776e657260448201526064016104b3565b61092e600061112e565b565b6060600280546103bb90611ce2565b61066e33838361117e565b6109543383610e2e565b6109c65760405162461bcd60e51b815260206004820152603160248201527f4552433732313a207472616e736665722063616c6c6572206973206e6f74206f60448201527f776e6572206e6f7220617070726f76656400000000000000000000000000000060648201526084016104b3565b6109d28484848461124d565b50505050565b6000818152600360205260409020546060906001600160a01b0316610a655760405162461bcd60e51b815260206004820152603160248201527f45524337323155524953746f726167653a2055524920717565727920666f722060448201527f6e6f6e6578697374656e7420746f6b656e00000000000000000000000000000060648201526084016104b3565b60008281526007602052604081208054610a7e90611ce2565b80601f0160208091040260200160405190810160405280929190818152602001828054610aaa90611ce2565b8015610af75780601f10610acc57610100808354040283529160200191610af7565b820191906000526020600020905b815481529060010190602001808311610ada57829003601f168201915b505050505090506000610b1560408051602081019091526000815290565b9050805160001415610b28575092915050565b815115610b5a578082604051602001610b42929190611d1d565b60405160208183030381529060405292505050919050565b610b63846112cb565b949350505050565b600080546001600160a01b03163314610bc65760405162461bcd60e51b815260206004820181905260248201527f4f776e61626c653a2063616c6c6572206973206e6f7420746865206f776e657260448201526064016104b3565b6000610bd160085490565b9050610be1600880546001019055565b610beb33826113c1565b610bf58184610d85565b807f07554a03a62c3cb37a877bd179226e5626e1158ca4f7d1e2306683ed4a41e4dd84604051610c259190611a0b565b60405180910390a290505b919050565b6000546001600160a01b03163314610c8f5760405162461bcd60e51b815260206004820181905260248201527f4f776e61626c653a2063616c6c6572206973206e6f7420746865206f776e657260448201526064016104b3565b6001600160a01b038116610d0b5760405162461bcd60e51b815260206004820152602660248201527f4f776e61626c653a206e6577206f776e657220697320746865207a65726f206160448201527f646472657373000000000000000000000000000000000000000000000000000060648201526084016104b3565b610d148161112e565b50565b600081815260056020526040902080546001600160a01b0319166001600160a01b0384169081179091558190610d4c826107a5565b6001600160a01b03167f8c5be1e5ebec7d5bd14f71427d1e84f3dd0314c0f7b2291e5b200ac8c7c3b92560405160405180910390a45050565b6000828152600360205260409020546001600160a01b0316610e0f5760405162461bcd60e51b815260206004820152602e60248201527f45524337323155524953746f726167653a2055524920736574206f66206e6f6e60448201527f6578697374656e7420746f6b656e00000000000000000000000000000000000060648201526084016104b3565b60008281526007602090815260409091208251610605928401906118b1565b6000818152600360205260408120546001600160a01b0316610ea75760405162461bcd60e51b815260206004820152602c60248201527f4552433732313a206f70657261746f7220717565727920666f72206e6f6e657860448201526b34b9ba32b73a103a37b5b2b760a11b60648201526084016104b3565b6000610eb2836107a5565b9050806001600160a01b0316846001600160a01b03161480610eed5750836001600160a01b0316610ee28461043e565b6001600160a01b0316145b80610b6357506001600160a01b0380821660009081526006602090815260408083209388168352929052205460ff16610b63565b826001600160a01b0316610f34826107a5565b6001600160a01b031614610fb05760405162461bcd60e51b815260206004820152602560248201527f4552433732313a207472616e736665722066726f6d20696e636f72726563742060448201527f6f776e657200000000000000000000000000000000000000000000000000000060648201526084016104b3565b6001600160a01b03821661102b5760405162461bcd60e51b8152602060048201526024808201527f4552433732313a207472616e7366657220746f20746865207a65726f2061646460448201527f726573730000000000000000000000000000000000000000000000000000000060648201526084016104b3565b611036600082610d17565b6001600160a01b038316600090815260046020526040812080546001929061105f908490611d62565b90915550506001600160a01b038216600090815260046020526040812080546001929061108d908490611d79565b909155505060008181526003602052604080822080546001600160a01b0319166001600160a01b0386811691821790925591518493918716917fddf252ad1be2c89b69c2b068fc378daa952ba7f163c4a11628f55a4df523b3ef91a4505050565b6110f7816113db565b6000818152600760205260409020805461111090611ce2565b159050610d14576000818152600760205260408120610d1491611935565b600080546001600160a01b038381166001600160a01b0319831681178455604051919092169283917f8be0079c531659141344cd1fd0a4f28419497f9722a3daafe3b4186f6b6457e09190a35050565b816001600160a01b0316836001600160a01b031614156111e05760405162461bcd60e51b815260206004820152601960248201527f4552433732313a20617070726f766520746f2063616c6c65720000000000000060448201526064016104b3565b6001600160a01b03838116600081815260066020908152604080832094871680845294825291829020805460ff191686151590811790915591519182527f17307eab39ab6107e8899845ad3d59bd9653f200f220920489ca2b5937696c31910160405180910390a3505050565b611258848484610f21565b61126484848484611476565b6109d25760405162461bcd60e51b815260206004820152603260248201527f4552433732313a207472616e7366657220746f206e6f6e20455243373231526560448201527131b2b4bb32b91034b6b83632b6b2b73a32b960711b60648201526084016104b3565b6000818152600360205260409020546060906001600160a01b03166113585760405162461bcd60e51b815260206004820152602f60248201527f4552433732314d657461646174613a2055524920717565727920666f72206e6f60448201527f6e6578697374656e7420746f6b656e000000000000000000000000000000000060648201526084016104b3565b600061136f60408051602081019091526000815290565b9050600081511161138f57604051806020016040528060008152506113ba565b80611399846115bf565b6040516020016113aa929190611d1d565b6040516020818303038152906040525b9392505050565b61066e8282604051806020016040528060008152506116f1565b60006113e6826107a5565b90506113f3600083610d17565b6001600160a01b038116600090815260046020526040812080546001929061141c908490611d62565b909155505060008281526003602052604080822080546001600160a01b0319169055518391906001600160a01b038416907fddf252ad1be2c89b69c2b068fc378daa952ba7f163c4a11628f55a4df523b3ef908390a45050565b60006001600160a01b0384163b156115b457604051630a85bd0160e11b81526001600160a01b0385169063150b7a02906114ba903390899088908890600401611d91565b6020604051808303816000875af19250505080156114f5575060408051601f3d908101601f191682019092526114f291810190611dcd565b60015b61159a573d808015611523576040519150601f19603f3d011682016040523d82523d6000602084013e611528565b606091505b5080516115925760405162461bcd60e51b815260206004820152603260248201527f4552433732313a207472616e7366657220746f206e6f6e20455243373231526560448201527131b2b4bb32b91034b6b83632b6b2b73a32b960711b60648201526084016104b3565b805181602001fd5b6001600160e01b031916630a85bd0160e11b149050610b63565b506001949350505050565b6060816115ff57505060408051808201909152600181527f3000000000000000000000000000000000000000000000000000000000000000602082015290565b8160005b8115611629578061161381611dea565b91506116229050600a83611e1b565b9150611603565b60008167ffffffffffffffff81111561164457611644611a78565b6040519080825280601f01601f19166020018201604052801561166e576020820181803683370190505b5090505b8415610b6357611683600183611d62565b9150611690600a86611e2f565b61169b906030611d79565b60f81b8183815181106116b0576116b0611e43565b60200101907effffffffffffffffffffffffffffffffffffffffffffffffffffffffffffff1916908160001a9053506116ea600a86611e1b565b9450611672565b6116fb838361176f565b6117086000848484611476565b6106055760405162461bcd60e51b815260206004820152603260248201527f4552433732313a207472616e7366657220746f206e6f6e20455243373231526560448201527131b2b4bb32b91034b6b83632b6b2b73a32b960711b60648201526084016104b3565b6001600160a01b0382166117c55760405162461bcd60e51b815260206004820181905260248201527f4552433732313a206d696e7420746f20746865207a65726f206164647265737360448201526064016104b3565b6000818152600360205260409020546001600160a01b03161561182a5760405162461bcd60e51b815260206004820152601c60248201527f4552433732313a20746f6b656e20616c7265616479206d696e7465640000000060448201526064016104b3565b6001600160a01b0382166000908152600460205260408120805460019290611853908490611d79565b909155505060008181526003602052604080822080546001600160a01b0319166001600160a01b03861690811790915590518392907fddf252ad1be2c89b69c2b068fc378daa952ba7f163c4a11628f55a4df523b3ef908290a45050565b8280546118bd90611ce2565b90600052602060002090601f0160209004810192826118df5760008555611925565b82601f106118f857805160ff1916838001178555611925565b82800160010185558215611925579182015b8281111561192557825182559160200191906001019061190a565b5061193192915061196b565b5090565b50805461194190611ce2565b6000825580601f10611951575050565b601f016020900490600052602060002090810190610d1491905b5b80821115611931576000815560010161196c565b6001600160e01b031981168114610d1457600080fd5b6000602082840312156119a857600080fd5b81356113ba81611980565b60005b838110156119ce5781810151838201526020016119b6565b838111156109d25750506000910152565b600081518084526119f78160208601602086016119b3565b601f01601f19169290920160200192915050565b6020815260006113ba60208301846119df565b600060208284031215611a3057600080fd5b5035919050565b80356001600160a01b0381168114610c3057600080fd5b60008060408385031215611a6157600080fd5b611a6a83611a37565b946020939093013593505050565b634e487b7160e01b600052604160045260246000fd5b600067ffffffffffffffff80841115611aa957611aa9611a78565b604051601f8501601f19908116603f01168101908282118183101715611ad157611ad1611a78565b81604052809350858152868686011115611aea57600080fd5b858560208301376000602087830101525050509392505050565b600082601f830112611b1557600080fd5b6113ba83833560208501611a8e565b60008060408385031215611b3757600080fd5b82359150602083013567ffffffffffffffff811115611b5557600080fd5b611b6185828601611b04565b9150509250929050565b600080600060608486031215611b8057600080fd5b611b8984611a37565b9250611b9760208501611a37565b9150604084013590509250925092565b600060208284031215611bb957600080fd5b6113ba82611a37565b60008060408385031215611bd557600080fd5b611bde83611a37565b915060208301358015158114611bf357600080fd5b809150509250929050565b60008060008060808587031215611c1457600080fd5b611c1d85611a37565b9350611c2b60208601611a37565b925060408501359150606085013567ffffffffffffffff811115611c4e57600080fd5b8501601f81018713611c5f57600080fd5b611c6e87823560208401611a8e565b91505092959194509250565b600060208284031215611c8c57600080fd5b813567ffffffffffffffff811115611ca357600080fd5b610b6384828501611b04565b60008060408385031215611cc257600080fd5b611ccb83611a37565b9150611cd960208401611a37565b90509250929050565b600181811c90821680611cf657607f821691505b60208210811415611d1757634e487b7160e01b600052602260045260246000fd5b50919050565b60008351611d2f8184602088016119b3565b835190830190611d438183602088016119b3565b01949350505050565b634e487b7160e01b600052601160045260246000fd5b600082821015611d7457611d74611d4c565b500390565b60008219821115611d8c57611d8c611d4c565b500190565b60006001600160a01b03808716835280861660208401525083604083015260806060830152611dc360808301846119df565b9695505050505050565b600060208284031215611ddf57600080fd5b81516113ba81611980565b6000600019821415611dfe57611dfe611d4c565b5060010190565b634e487b7160e01b600052601260045260246000fd5b600082611e2a57611e2a611e05565b500490565b600082611e3e57611e3e611e05565b500690565b634e487b7160e01b600052603260045260246000fdfea26469706673582212205de2e9011f8ab02365a9e7c02c3a5edaf361441c55950075915263942dba29e764736f6c634300080a0033",
  "linkReferences": {},
  "deployedLinkReferences": {}
}