{
  "_format": "hh-sol-artifact-1",
  "contractName": "UiIncentiveDataProviderV3",
  "sourceName": "@aave/periphery-v3/contracts/misc/UiIncentiveDataProviderV3.sol",
  "abi": [
    {
      "inputs": [
        {
          "internalType": "contract IPoolAddressesProvider",
          "name": "provider",
          "type": "address"
        },
        {
          "internalType": "address",
          "name": "user",
          "type": "address"
        }
      ],
      "name": "getFullReservesIncentiveData",
      "outputs": [
        {
          "components": [
            {
              "internalType": "address",
              "name": "underlyingAsset",
              "type": "address"
            },
            {
              "components": [
                {
                  "internalType": "address",
                  "name": "tokenAddress",
                  "type": "address"
                },
                {
                  "internalType": "address",
                  "name": "incentiveControllerAddress",
                  "type": "address"
                },
                {
                  "components": [
                    {
                      "internalType": "string",
                      "name": "rewardTokenSymbol",
                      "type": "string"
                    },
                    {
                      "internalType": "address",
                      "name": "rewardTokenAddress",
                      "type": "address"
                    },
                    {
                      "internalType": "address",
                      "name": "rewardOracleAddress",
                      "type": "address"
                    },
                    {
                      "internalType": "uint256",
                      "name": "emissionPerSecond",
                      "type": "uint256"
                    },
                    {
                      "internalType": "uint256",
                      "name": "incentivesLastUpdateTimestamp",
                      "type": "uint256"
                    },
                    {
                      "internalType": "uint256",
                      "name": "tokenIncentivesIndex",
                      "type": "uint256"
                    },
                    {
                      "internalType": "uint256",
                      "name": "emissionEndTimestamp",
                      "type": "uint256"
                    },
                    {
                      "internalType": "int256",
                      "name": "rewardPriceFeed",
                      "type": "int256"
                    },
                    {
                      "internalType": "uint8",
                      "name": "rewardTokenDecimals",
                      "type": "uint8"
                    },
                    {
                      "internalType": "uint8",
                      "name": "precision",
                      "type": "uint8"
                    },
                    {
                      "internalType": "uint8",
                      "name": "priceFeedDecimals",
                      "type": "uint8"
                    }
                  ],
                  "internalType": "struct IUiIncentiveDataProviderV3.RewardInfo[]",
                  "name": "rewardsTokenInformation",
                  "type": "tuple[]"
                }
              ],
              "internalType": "struct IUiIncentiveDataProviderV3.IncentiveData",
              "name": "aIncentiveData",
              "type": "tuple"
            },
            {
              "components": [
                {
                  "internalType": "address",
                  "name": "tokenAddress",
                  "type": "address"
                },
                {
                  "internalType": "address",
                  "name": "incentiveControllerAddress",
                  "type": "address"
                },
                {
                  "components": [
                    {
                      "internalType": "string",
                      "name": "rewardTokenSymbol",
                      "type": "string"
                    },
                    {
                      "internalType": "address",
                      "name": "rewardTokenAddress",
                      "type": "address"
                    },
                    {
                      "internalType": "address",
                      "name": "rewardOracleAddress",
                      "type": "address"
                    },
                    {
                      "internalType": "uint256",
                      "name": "emissionPerSecond",
                      "type": "uint256"
                    },
                    {
                      "internalType": "uint256",
                      "name": "incentivesLastUpdateTimestamp",
                      "type": "uint256"
                    },
                    {
                      "internalType": "uint256",
                      "name": "tokenIncentivesIndex",
                      "type": "uint256"
                    },
                    {
                      "internalType": "uint256",
                      "name": "emissionEndTimestamp",
                      "type": "uint256"
                    },
                    {
                      "internalType": "int256",
                      "name": "rewardPriceFeed",
                      "type": "int256"
                    },
                    {
                      "internalType": "uint8",
                      "name": "rewardTokenDecimals",
                      "type": "uint8"
                    },
                    {
                      "internalType": "uint8",
                      "name": "precision",
                      "type": "uint8"
                    },
                    {
                      "internalType": "uint8",
                      "name": "priceFeedDecimals",
                      "type": "uint8"
                    }
                  ],
                  "internalType": "struct IUiIncentiveDataProviderV3.RewardInfo[]",
                  "name": "rewardsTokenInformation",
                  "type": "tuple[]"
                }
              ],
              "internalType": "struct IUiIncentiveDataProviderV3.IncentiveData",
              "name": "vIncentiveData",
              "type": "tuple"
            },
            {
              "components": [
                {
                  "internalType": "address",
                  "name": "tokenAddress",
                  "type": "address"
                },
                {
                  "internalType": "address",
                  "name": "incentiveControllerAddress",
                  "type": "address"
                },
                {
                  "components": [
                    {
                      "internalType": "string",
                      "name": "rewardTokenSymbol",
                      "type": "string"
                    },
                    {
                      "internalType": "address",
                      "name": "rewardTokenAddress",
                      "type": "address"
                    },
                    {
                      "internalType": "address",
                      "name": "rewardOracleAddress",
                      "type": "address"
                    },
                    {
                      "internalType": "uint256",
                      "name": "emissionPerSecond",
                      "type": "uint256"
                    },
                    {
                      "internalType": "uint256",
                      "name": "incentivesLastUpdateTimestamp",
                      "type": "uint256"
                    },
                    {
                      "internalType": "uint256",
                      "name": "tokenIncentivesIndex",
                      "type": "uint256"
                    },
                    {
                      "internalType": "uint256",
                      "name": "emissionEndTimestamp",
                      "type": "uint256"
                    },
                    {
                      "internalType": "int256",
                      "name": "rewardPriceFeed",
                      "type": "int256"
                    },
                    {
                      "internalType": "uint8",
                      "name": "rewardTokenDecimals",
                      "type": "uint8"
                    },
                    {
                      "internalType": "uint8",
                      "name": "precision",
                      "type": "uint8"
                    },
                    {
                      "internalType": "uint8",
                      "name": "priceFeedDecimals",
                      "type": "uint8"
                    }
                  ],
                  "internalType": "struct IUiIncentiveDataProviderV3.RewardInfo[]",
                  "name": "rewardsTokenInformation",
                  "type": "tuple[]"
                }
              ],
              "internalType": "struct IUiIncentiveDataProviderV3.IncentiveData",
              "name": "sIncentiveData",
              "type": "tuple"
            }
          ],
          "internalType": "struct IUiIncentiveDataProviderV3.AggregatedReserveIncentiveData[]",
          "name": "",
          "type": "tuple[]"
        },
        {
          "components": [
            {
              "internalType": "address",
              "name": "underlyingAsset",
              "type": "address"
            },
            {
              "components": [
                {
                  "internalType": "address",
                  "name": "tokenAddress",
                  "type": "address"
                },
                {
                  "internalType": "address",
                  "name": "incentiveControllerAddress",
                  "type": "address"
                },
                {
                  "components": [
                    {
                      "internalType": "string",
                      "name": "rewardTokenSymbol",
                      "type": "string"
                    },
                    {
                      "internalType": "address",
                      "name": "rewardOracleAddress",
                      "type": "address"
                    },
                    {
                      "internalType": "address",
                      "name": "rewardTokenAddress",
                      "type": "address"
                    },
                    {
                      "internalType": "uint256",
                      "name": "userUnclaimedRewards",
                      "type": "uint256"
                    },
                    {
                      "internalType": "uint256",
                      "name": "tokenIncentivesUserIndex",
                      "type": "uint256"
                    },
                    {
                      "internalType": "int256",
                      "name": "rewardPriceFeed",
                      "type": "int256"
                    },
                    {
                      "internalType": "uint8",
                      "name": "priceFeedDecimals",
                      "type": "uint8"
                    },
                    {
                      "internalType": "uint8",
                      "name": "rewardTokenDecimals",
                      "type": "uint8"
                    }
                  ],
                  "internalType": "struct IUiIncentiveDataProviderV3.UserRewardInfo[]",
                  "name": "userRewardsInformation",
                  "type": "tuple[]"
                }
              ],
              "internalType": "struct IUiIncentiveDataProviderV3.UserIncentiveData",
              "name": "aTokenIncentivesUserData",
              "type": "tuple"
            },
            {
              "components": [
                {
                  "internalType": "address",
                  "name": "tokenAddress",
                  "type": "address"
                },
                {
                  "internalType": "address",
                  "name": "incentiveControllerAddress",
                  "type": "address"
                },
                {
                  "components": [
                    {
                      "internalType": "string",
                      "name": "rewardTokenSymbol",
                      "type": "string"
                    },
                    {
                      "internalType": "address",
                      "name": "rewardOracleAddress",
                      "type": "address"
                    },
                    {
                      "internalType": "address",
                      "name": "rewardTokenAddress",
                      "type": "address"
                    },
                    {
                      "internalType": "uint256",
                      "name": "userUnclaimedRewards",
                      "type": "uint256"
                    },
                    {
                      "internalType": "uint256",
                      "name": "tokenIncentivesUserIndex",
                      "type": "uint256"
                    },
                    {
                      "internalType": "int256",
                      "name": "rewardPriceFeed",
                      "type": "int256"
                    },
                    {
                      "internalType": "uint8",
                      "name": "priceFeedDecimals",
                      "type": "uint8"
                    },
                    {
                      "internalType": "uint8",
                      "name": "rewardTokenDecimals",
                      "type": "uint8"
                    }
                  ],
                  "internalType": "struct IUiIncentiveDataProviderV3.UserRewardInfo[]",
                  "name": "userRewardsInformation",
                  "type": "tuple[]"
                }
              ],
              "internalType": "struct IUiIncentiveDataProviderV3.UserIncentiveData",
              "name": "vTokenIncentivesUserData",
              "type": "tuple"
            },
            {
              "components": [
                {
                  "internalType": "address",
                  "name": "tokenAddress",
                  "type": "address"
                },
                {
                  "internalType": "address",
                  "name": "incentiveControllerAddress",
                  "type": "address"
                },
                {
                  "components": [
                    {
                      "internalType": "string",
                      "name": "rewardTokenSymbol",
                      "type": "string"
                    },
                    {
                      "internalType": "address",
                      "name": "rewardOracleAddress",
                      "type": "address"
                    },
                    {
                      "internalType": "address",
                      "name": "rewardTokenAddress",
                      "type": "address"
                    },
                    {
                      "internalType": "uint256",
                      "name": "userUnclaimedRewards",
                      "type": "uint256"
                    },
                    {
                      "internalType": "uint256",
                      "name": "tokenIncentivesUserIndex",
                      "type": "uint256"
                    },
                    {
                      "internalType": "int256",
                      "name": "rewardPriceFeed",
                      "type": "int256"
                    },
                    {
                      "internalType": "uint8",
                      "name": "priceFeedDecimals",
                      "type": "uint8"
                    },
                    {
                      "internalType": "uint8",
                      "name": "rewardTokenDecimals",
                      "type": "uint8"
                    }
                  ],
                  "internalType": "struct IUiIncentiveDataProviderV3.UserRewardInfo[]",
                  "name": "userRewardsInformation",
                  "type": "tuple[]"
                }
              ],
              "internalType": "struct IUiIncentiveDataProviderV3.UserIncentiveData",
              "name": "sTokenIncentivesUserData",
              "type": "tuple"
            }
          ],
          "internalType": "struct IUiIncentiveDataProviderV3.UserReserveIncentiveData[]",
          "name": "",
          "type": "tuple[]"
        }
      ],
      "stateMutability": "view",
      "type": "function"
    },
    {
      "inputs": [
        {
          "internalType": "contract IPoolAddressesProvider",
          "name": "provider",
          "type": "address"
        }
      ],
      "name": "getReservesIncentivesData",
      "outputs": [
        {
          "components": [
            {
              "internalType": "address",
              "name": "underlyingAsset",
              "type": "address"
            },
            {
              "components": [
                {
                  "internalType": "address",
                  "name": "tokenAddress",
                  "type": "address"
                },
                {
                  "internalType": "address",
                  "name": "incentiveControllerAddress",
                  "type": "address"
                },
                {
                  "components": [
                    {
                      "internalType": "string",
                      "name": "rewardTokenSymbol",
                      "type": "string"
                    },
                    {
                      "internalType": "address",
                      "name": "rewardTokenAddress",
                      "type": "address"
                    },
                    {
                      "internalType": "address",
                      "name": "rewardOracleAddress",
                      "type": "address"
                    },
                    {
                      "internalType": "uint256",
                      "name": "emissionPerSecond",
                      "type": "uint256"
                    },
                    {
                      "internalType": "uint256",
                      "name": "incentivesLastUpdateTimestamp",
                      "type": "uint256"
                    },
                    {
                      "internalType": "uint256",
                      "name": "tokenIncentivesIndex",
                      "type": "uint256"
                    },
                    {
                      "internalType": "uint256",
                      "name": "emissionEndTimestamp",
                      "type": "uint256"
                    },
                    {
                      "internalType": "int256",
                      "name": "rewardPriceFeed",
                      "type": "int256"
                    },
                    {
                      "internalType": "uint8",
                      "name": "rewardTokenDecimals",
                      "type": "uint8"
                    },
                    {
                      "internalType": "uint8",
                      "name": "precision",
                      "type": "uint8"
                    },
                    {
                      "internalType": "uint8",
                      "name": "priceFeedDecimals",
                      "type": "uint8"
                    }
                  ],
                  "internalType": "struct IUiIncentiveDataProviderV3.RewardInfo[]",
                  "name": "rewardsTokenInformation",
                  "type": "tuple[]"
                }
              ],
              "internalType": "struct IUiIncentiveDataProviderV3.IncentiveData",
              "name": "aIncentiveData",
              "type": "tuple"
            },
            {
              "components": [
                {
                  "internalType": "address",
                  "name": "tokenAddress",
                  "type": "address"
                },
                {
                  "internalType": "address",
                  "name": "incentiveControllerAddress",
                  "type": "address"
                },
                {
                  "components": [
                    {
                      "internalType": "string",
                      "name": "rewardTokenSymbol",
                      "type": "string"
                    },
                    {
                      "internalType": "address",
                      "name": "rewardTokenAddress",
                      "type": "address"
                    },
                    {
                      "internalType": "address",
                      "name": "rewardOracleAddress",
                      "type": "address"
                    },
                    {
                      "internalType": "uint256",
                      "name": "emissionPerSecond",
                      "type": "uint256"
                    },
                    {
                      "internalType": "uint256",
                      "name": "incentivesLastUpdateTimestamp",
                      "type": "uint256"
                    },
                    {
                      "internalType": "uint256",
                      "name": "tokenIncentivesIndex",
                      "type": "uint256"
                    },
                    {
                      "internalType": "uint256",
                      "name": "emissionEndTimestamp",
                      "type": "uint256"
                    },
                    {
                      "internalType": "int256",
                      "name": "rewardPriceFeed",
                      "type": "int256"
                    },
                    {
                      "internalType": "uint8",
                      "name": "rewardTokenDecimals",
                      "type": "uint8"
                    },
                    {
                      "internalType": "uint8",
                      "name": "precision",
                      "type": "uint8"
                    },
                    {
                      "internalType": "uint8",
                      "name": "priceFeedDecimals",
                      "type": "uint8"
                    }
                  ],
                  "internalType": "struct IUiIncentiveDataProviderV3.RewardInfo[]",
                  "name": "rewardsTokenInformation",
                  "type": "tuple[]"
                }
              ],
              "internalType": "struct IUiIncentiveDataProviderV3.IncentiveData",
              "name": "vIncentiveData",
              "type": "tuple"
            },
            {
              "components": [
                {
                  "internalType": "address",
                  "name": "tokenAddress",
                  "type": "address"
                },
                {
                  "internalType": "address",
                  "name": "incentiveControllerAddress",
                  "type": "address"
                },
                {
                  "components": [
                    {
                      "internalType": "string",
                      "name": "rewardTokenSymbol",
                      "type": "string"
                    },
                    {
                      "internalType": "address",
                      "name": "rewardTokenAddress",
                      "type": "address"
                    },
                    {
                      "internalType": "address",
                      "name": "rewardOracleAddress",
                      "type": "address"
                    },
                    {
                      "internalType": "uint256",
                      "name": "emissionPerSecond",
                      "type": "uint256"
                    },
                    {
                      "internalType": "uint256",
                      "name": "incentivesLastUpdateTimestamp",
                      "type": "uint256"
                    },
                    {
                      "internalType": "uint256",
                      "name": "tokenIncentivesIndex",
                      "type": "uint256"
                    },
                    {
                      "internalType": "uint256",
                      "name": "emissionEndTimestamp",
                      "type": "uint256"
                    },
                    {
                      "internalType": "int256",
                      "name": "rewardPriceFeed",
                      "type": "int256"
                    },
                    {
                      "internalType": "uint8",
                      "name": "rewardTokenDecimals",
                      "type": "uint8"
                    },
                    {
                      "internalType": "uint8",
                      "name": "precision",
                      "type": "uint8"
                    },
                    {
                      "internalType": "uint8",
                      "name": "priceFeedDecimals",
                      "type": "uint8"
                    }
                  ],
                  "internalType": "struct IUiIncentiveDataProviderV3.RewardInfo[]",
                  "name": "rewardsTokenInformation",
                  "type": "tuple[]"
                }
              ],
              "internalType": "struct IUiIncentiveDataProviderV3.IncentiveData",
              "name": "sIncentiveData",
              "type": "tuple"
            }
          ],
          "internalType": "struct IUiIncentiveDataProviderV3.AggregatedReserveIncentiveData[]",
          "name": "",
          "type": "tuple[]"
        }
      ],
      "stateMutability": "view",
      "type": "function"
    },
    {
      "inputs": [
        {
          "internalType": "contract IPoolAddressesProvider",
          "name": "provider",
          "type": "address"
        },
        {
          "internalType": "address",
          "name": "user",
          "type": "address"
        }
      ],
      "name": "getUserReservesIncentivesData",
      "outputs": [
        {
          "components": [
            {
              "internalType": "address",
              "name": "underlyingAsset",
              "type": "address"
            },
            {
              "components": [
                {
                  "internalType": "address",
                  "name": "tokenAddress",
                  "type": "address"
                },
                {
                  "internalType": "address",
                  "name": "incentiveControllerAddress",
                  "type": "address"
                },
                {
                  "components": [
                    {
                      "internalType": "string",
                      "name": "rewardTokenSymbol",
                      "type": "string"
                    },
                    {
                      "internalType": "address",
                      "name": "rewardOracleAddress",
                      "type": "address"
                    },
                    {
                      "internalType": "address",
                      "name": "rewardTokenAddress",
                      "type": "address"
                    },
                    {
                      "internalType": "uint256",
                      "name": "userUnclaimedRewards",
                      "type": "uint256"
                    },
                    {
                      "internalType": "uint256",
                      "name": "tokenIncentivesUserIndex",
                      "type": "uint256"
                    },
                    {
                      "internalType": "int256",
                      "name": "rewardPriceFeed",
                      "type": "int256"
                    },
                    {
                      "internalType": "uint8",
                      "name": "priceFeedDecimals",
                      "type": "uint8"
                    },
                    {
                      "internalType": "uint8",
                      "name": "rewardTokenDecimals",
                      "type": "uint8"
                    }
                  ],
                  "internalType": "struct IUiIncentiveDataProviderV3.UserRewardInfo[]",
                  "name": "userRewardsInformation",
                  "type": "tuple[]"
                }
              ],
              "internalType": "struct IUiIncentiveDataProviderV3.UserIncentiveData",
              "name": "aTokenIncentivesUserData",
              "type": "tuple"
            },
            {
              "components": [
                {
                  "internalType": "address",
                  "name": "tokenAddress",
                  "type": "address"
                },
                {
                  "internalType": "address",
                  "name": "incentiveControllerAddress",
                  "type": "address"
                },
                {
                  "components": [
                    {
                      "internalType": "string",
                      "name": "rewardTokenSymbol",
                      "type": "string"
                    },
                    {
                      "internalType": "address",
                      "name": "rewardOracleAddress",
                      "type": "address"
                    },
                    {
                      "internalType": "address",
                      "name": "rewardTokenAddress",
                      "type": "address"
                    },
                    {
                      "internalType": "uint256",
                      "name": "userUnclaimedRewards",
                      "type": "uint256"
                    },
                    {
                      "internalType": "uint256",
                      "name": "tokenIncentivesUserIndex",
                      "type": "uint256"
                    },
                    {
                      "internalType": "int256",
                      "name": "rewardPriceFeed",
                      "type": "int256"
                    },
                    {
                      "internalType": "uint8",
                      "name": "priceFeedDecimals",
                      "type": "uint8"
                    },
                    {
                      "internalType": "uint8",
                      "name": "rewardTokenDecimals",
                      "type": "uint8"
                    }
                  ],
                  "internalType": "struct IUiIncentiveDataProviderV3.UserRewardInfo[]",
                  "name": "userRewardsInformation",
                  "type": "tuple[]"
                }
              ],
              "internalType": "struct IUiIncentiveDataProviderV3.UserIncentiveData",
              "name": "vTokenIncentivesUserData",
              "type": "tuple"
            },
            {
              "components": [
                {
                  "internalType": "address",
                  "name": "tokenAddress",
                  "type": "address"
                },
                {
                  "internalType": "address",
                  "name": "incentiveControllerAddress",
                  "type": "address"
                },
                {
                  "components": [
                    {
                      "internalType": "string",
                      "name": "rewardTokenSymbol",
                      "type": "string"
                    },
                    {
                      "internalType": "address",
                      "name": "rewardOracleAddress",
                      "type": "address"
                    },
                    {
                      "internalType": "address",
                      "name": "rewardTokenAddress",
                      "type": "address"
                    },
                    {
                      "internalType": "uint256",
                      "name": "userUnclaimedRewards",
                      "type": "uint256"
                    },
                    {
                      "internalType": "uint256",
                      "name": "tokenIncentivesUserIndex",
                      "type": "uint256"
                    },
                    {
                      "internalType": "int256",
                      "name": "rewardPriceFeed",
                      "type": "int256"
                    },
                    {
                      "internalType": "uint8",
                      "name": "priceFeedDecimals",
                      "type": "uint8"
                    },
                    {
                      "internalType": "uint8",
                      "name": "rewardTokenDecimals",
                      "type": "uint8"
                    }
                  ],
                  "internalType": "struct IUiIncentiveDataProviderV3.UserRewardInfo[]",
                  "name": "userRewardsInformation",
                  "type": "tuple[]"
                }
              ],
              "internalType": "struct IUiIncentiveDataProviderV3.UserIncentiveData",
              "name": "sTokenIncentivesUserData",
              "type": "tuple"
            }
          ],
          "internalType": "struct IUiIncentiveDataProviderV3.UserReserveIncentiveData[]",
          "name": "",
          "type": "tuple[]"
        }
      ],
      "stateMutability": "view",
      "type": "function"
    }
  ],
  "bytecode": "0x608060405234801561001057600080fd5b5061331a806100206000396000f3fe608060405234801561001057600080fd5b50600436106100415760003560e01c80634763753614610046578063799bdcf514610070578063976fafc514610090575b600080fd5b610059610054366004612a59565b6100b0565b604051610067929190612e3b565b60405180910390f35b61008361007e366004612a59565b6100d1565b6040516100679190612e69565b6100a361009e366004612e7c565b6100e4565b6040516100679190612e99565b6060806100bc846100f5565b6100c685856115a2565b915091509250929050565b60606100dd83836115a2565b9392505050565b60606100ef826100f5565b92915050565b60606000826001600160a01b031663026b1d5f6040518163ffffffff1660e01b8152600401602060405180830381865afa158015610137573d6000803e3d6000fd5b505050506040513d601f19601f8201168201806040525081019061015b9190612ebc565b90506000816001600160a01b031663d1946dbc6040518163ffffffff1660e01b8152600401600060405180830381865afa15801561019d573d6000803e3d6000fd5b505050506040513d6000823e601f3d908101601f191682016040526101c59190810190612f4a565b90506000815167ffffffffffffffff8111156101e3576101e3612ed9565b60405190808252806020026020018201604052801561021c57816020015b6102096129b1565b8152602001906001900390816102015790505b50905060005b825181101561159957600082828151811061023f5761023f612ffc565b6020026020010151905083828151811061025b5761025b612ffc565b602002602001015181600001906001600160a01b031690816001600160a01b0316815250506000856001600160a01b03166335ea6a758685815181106102a3576102a3612ffc565b60200260200101516040518263ffffffff1660e01b81526004016102d691906001600160a01b0391909116815260200190565b6101e060405180830381865afa1580156102f4573d6000803e3d6000fd5b505050506040513d601f19601f82011682018060405250810190610318919061309b565b905060008161010001516001600160a01b03166375d264136040518163ffffffff1660e01b8152600401602060405180830381865afa15801561035f573d6000803e3d6000fd5b505050506040513d601f19601f820116820180604052508101906103839190612ebc565b905060606001600160a01b0382161561090057610100830151604051636657732f60e01b81526001600160a01b039182166004820152600091841690636657732f90602401600060405180830381865afa1580156103e5573d6000803e3d6000fd5b505050506040513d6000823e601f3d908101601f1916820160405261040d9190810190612f4a565b9050805167ffffffffffffffff81111561042957610429612ed9565b6040519080825280602002602001820160405280156104d257816020015b6104bf6040518061016001604052806060815260200160006001600160a01b0316815260200160006001600160a01b031681526020016000815260200160008152602001600081526020016000815260200160008152602001600060ff168152602001600060ff168152602001600060ff1681525090565b8152602001906001900390816104475790505b50915060005b81518110156108fd576105596040518061016001604052806060815260200160006001600160a01b0316815260200160006001600160a01b031681526020016000815260200160008152602001600081526020016000815260200160008152602001600060ff168152602001600060ff168152602001600060ff1681525090565b82828151811061056b5761056b612ffc565b6020908102919091018101516001600160a01b03908116918301829052610100880151604051630fdfe97560e31b815290821660048201526024810192909252861690637eff4ba890604401608060405180830381865afa1580156105d4573d6000803e3d6000fd5b505050506040513d601f19601f820116820180604052508101906105f891906131be565b60c08501526080840152606083015260a0820152610100860151604051634f7eb7b960e11b81526001600160a01b03918216600482015290861690639efd6f7290602401602060405180830381865afa158015610659573d6000803e3d6000fd5b505050506040513d601f19601f8201168201806040525081019061067d91906131f4565b60ff166101208201526020808201516040805163313ce56760e01b815290516001600160a01b039092169263313ce567926004808401938290030181865afa1580156106cd573d6000803e3d6000fd5b505050506040513d601f19601f820116820180604052508101906106f191906131f4565b81610100019060ff16908160ff168152505080602001516001600160a01b03166395d89b416040518163ffffffff1660e01b8152600401600060405180830381865afa158015610745573d6000803e3d6000fd5b505050506040513d6000823e601f3d908101601f1916820160405261076d9190810190613217565b81526020810151604051630150bdfb60e51b81526001600160a01b03918216600482015290861690632a17bf6090602401602060405180830381865afa1580156107bb573d6000803e3d6000fd5b505050506040513d601f19601f820116820180604052508101906107df9190612ebc565b6001600160a01b03166040808301829052805163313ce56760e01b8152905163313ce567916004808201926020929091908290030181865afa158015610829573d6000803e3d6000fd5b505050506040513d601f19601f8201168201806040525081019061084d91906131f4565b81610140019060ff16908160ff168152505080604001516001600160a01b03166350d25bcd6040518163ffffffff1660e01b8152600401602060405180830381865afa1580156108a1573d6000803e3d6000fd5b505050506040513d601f19601f820116820180604052508101906108c591906132a2565b60e0820152835181908590849081106108e0576108e0612ffc565b602002602001018190525050806108f6906132bb565b90506104d8565b50505b60405180606001604052808461010001516001600160a01b03168152602001836001600160a01b0316815260200182815250846020018190525060008361014001516001600160a01b03166375d264136040518163ffffffff1660e01b8152600401602060405180830381865afa15801561097f573d6000803e3d6000fd5b505050506040513d601f19601f820116820180604052508101906109a39190612ebc565b610140850151604051636657732f60e01b81526001600160a01b03918216600482015291925060009190831690636657732f90602401600060405180830381865afa1580156109f6573d6000803e3d6000fd5b505050506040513d6000823e601f3d908101601f19168201604052610a1e9190810190612f4a565b905060606001600160a01b03831615610f2157815167ffffffffffffffff811115610a4b57610a4b612ed9565b604051908082528060200260200182016040528015610af457816020015b610ae16040518061016001604052806060815260200160006001600160a01b0316815260200160006001600160a01b031681526020016000815260200160008152602001600081526020016000815260200160008152602001600060ff168152602001600060ff168152602001600060ff1681525090565b815260200190600190039081610a695790505b50905060005b8251811015610f1f57610b7b6040518061016001604052806060815260200160006001600160a01b0316815260200160006001600160a01b031681526020016000815260200160008152602001600081526020016000815260200160008152602001600060ff168152602001600060ff168152602001600060ff1681525090565b838281518110610b8d57610b8d612ffc565b6020908102919091018101516001600160a01b039081169183018290526101408a0151604051630fdfe97560e31b815290821660048201526024810192909252861690637eff4ba890604401608060405180830381865afa158015610bf6573d6000803e3d6000fd5b505050506040513d601f19601f82011682018060405250810190610c1a91906131be565b60c08501526080840152606083015260a0820152610140880151604051634f7eb7b960e11b81526001600160a01b03918216600482015290861690639efd6f7290602401602060405180830381865afa158015610c7b573d6000803e3d6000fd5b505050506040513d601f19601f82011682018060405250810190610c9f91906131f4565b60ff166101208201526020808201516040805163313ce56760e01b815290516001600160a01b039092169263313ce567926004808401938290030181865afa158015610cef573d6000803e3d6000fd5b505050506040513d601f19601f82011682018060405250810190610d1391906131f4565b81610100019060ff16908160ff168152505080602001516001600160a01b03166395d89b416040518163ffffffff1660e01b8152600401600060405180830381865afa158015610d67573d6000803e3d6000fd5b505050506040513d6000823e601f3d908101601f19168201604052610d8f9190810190613217565b81526020810151604051630150bdfb60e51b81526001600160a01b03918216600482015290861690632a17bf6090602401602060405180830381865afa158015610ddd573d6000803e3d6000fd5b505050506040513d601f19601f82011682018060405250810190610e019190612ebc565b6001600160a01b03166040808301829052805163313ce56760e01b8152905163313ce567916004808201926020929091908290030181865afa158015610e4b573d6000803e3d6000fd5b505050506040513d601f19601f82011682018060405250810190610e6f91906131f4565b81610140019060ff16908160ff168152505080604001516001600160a01b03166350d25bcd6040518163ffffffff1660e01b8152600401602060405180830381865afa158015610ec3573d6000803e3d6000fd5b505050506040513d601f19601f82011682018060405250810190610ee791906132a2565b60e082015282518190849084908110610f0257610f02612ffc565b60200260200101819052505080610f18906132bb565b9050610afa565b505b60405180606001604052808761014001516001600160a01b03168152602001846001600160a01b0316815260200182815250876040018190525060008661012001516001600160a01b03166375d264136040518163ffffffff1660e01b8152600401602060405180830381865afa158015610fa0573d6000803e3d6000fd5b505050506040513d601f19601f82011682018060405250810190610fc49190612ebc565b610120880151604051636657732f60e01b81526001600160a01b03918216600482015291925060009190831690636657732f90602401600060405180830381865afa158015611017573d6000803e3d6000fd5b505050506040513d6000823e601f3d908101601f1916820160405261103f9190810190612f4a565b905060606001600160a01b0383161561154257815167ffffffffffffffff81111561106c5761106c612ed9565b60405190808252806020026020018201604052801561111557816020015b6111026040518061016001604052806060815260200160006001600160a01b0316815260200160006001600160a01b031681526020016000815260200160008152602001600081526020016000815260200160008152602001600060ff168152602001600060ff168152602001600060ff1681525090565b81526020019060019003908161108a5790505b50905060005b82518110156115405761119c6040518061016001604052806060815260200160006001600160a01b0316815260200160006001600160a01b031681526020016000815260200160008152602001600081526020016000815260200160008152602001600060ff168152602001600060ff168152602001600060ff1681525090565b8382815181106111ae576111ae612ffc565b6020908102919091018101516001600160a01b039081169183018290526101208d0151604051630fdfe97560e31b815290821660048201526024810192909252861690637eff4ba890604401608060405180830381865afa158015611217573d6000803e3d6000fd5b505050506040513d601f19601f8201168201806040525081019061123b91906131be565b60c08501526080840152606083015260a08201526101208b0151604051634f7eb7b960e11b81526001600160a01b03918216600482015290861690639efd6f7290602401602060405180830381865afa15801561129c573d6000803e3d6000fd5b505050506040513d601f19601f820116820180604052508101906112c091906131f4565b60ff166101208201526020808201516040805163313ce56760e01b815290516001600160a01b039092169263313ce567926004808401938290030181865afa158015611310573d6000803e3d6000fd5b505050506040513d601f19601f8201168201806040525081019061133491906131f4565b81610100019060ff16908160ff168152505080602001516001600160a01b03166395d89b416040518163ffffffff1660e01b8152600401600060405180830381865afa158015611388573d6000803e3d6000fd5b505050506040513d6000823e601f3d908101601f191682016040526113b09190810190613217565b81526020810151604051630150bdfb60e51b81526001600160a01b03918216600482015290861690632a17bf6090602401602060405180830381865afa1580156113fe573d6000803e3d6000fd5b505050506040513d601f19601f820116820180604052508101906114229190612ebc565b6001600160a01b03166040808301829052805163313ce56760e01b8152905163313ce567916004808201926020929091908290030181865afa15801561146c573d6000803e3d6000fd5b505050506040513d601f19601f8201168201806040525081019061149091906131f4565b81610140019060ff16908160ff168152505080604001516001600160a01b03166350d25bcd6040518163ffffffff1660e01b8152600401602060405180830381865afa1580156114e4573d6000803e3d6000fd5b505050506040513d601f19601f8201168201806040525081019061150891906132a2565b60e08201528251819084908490811061152357611523612ffc565b60200260200101819052505080611539906132bb565b905061111b565b505b60405180606001604052808a61012001516001600160a01b03168152602001846001600160a01b03168152602001828152508a60600181905250505050505050505050508080611591906132bb565b915050610222565b50949350505050565b60606000836001600160a01b031663026b1d5f6040518163ffffffff1660e01b8152600401602060405180830381865afa1580156115e4573d6000803e3d6000fd5b505050506040513d601f19601f820116820180604052508101906116089190612ebc565b90506000816001600160a01b031663d1946dbc6040518163ffffffff1660e01b8152600401600060405180830381865afa15801561164a573d6000803e3d6000fd5b505050506040513d6000823e601f3d908101601f191682016040526116729190810190612f4a565b905060006001600160a01b03851661168b57600061168e565b81515b67ffffffffffffffff8111156116a6576116a6612ed9565b6040519080825280602002602001820160405280156116df57816020015b6116cc6129b1565b8152602001906001900390816116c45790505b50905060005b82518110156129a7576000846001600160a01b03166335ea6a7585848151811061171157611711612ffc565b60200260200101516040518263ffffffff1660e01b815260040161174491906001600160a01b0391909116815260200190565b6101e060405180830381865afa158015611762573d6000803e3d6000fd5b505050506040513d601f19601f82011682018060405250810190611786919061309b565b905083828151811061179a5761179a612ffc565b60200260200101518383815181106117b4576117b4612ffc565b6020026020010151600001906001600160a01b031690816001600160a01b03168152505060008161010001516001600160a01b03166375d264136040518163ffffffff1660e01b8152600401602060405180830381865afa15801561181d573d6000803e3d6000fd5b505050506040513d601f19601f820116820180604052508101906118419190612ebc565b90506001600160a01b03811615611db057610100820151604051636657732f60e01b81526001600160a01b039182166004820152600091831690636657732f90602401600060405180830381865afa1580156118a1573d6000803e3d6000fd5b505050506040513d6000823e601f3d908101601f191682016040526118c99190810190612f4a565b90506000815167ffffffffffffffff8111156118e7576118e7612ed9565b60405190808252806020026020018201604052801561195757816020015b60408051610100810182526060808252600060208084018290529383018190529082018190526080820181905260a0820181905260c0820181905260e082015282526000199092019101816119055790505b50905060005b8251811015611d59576040805161010081018252606080825260006020830181905292820183905281018290526080810182905260a0810182905260c0810182905260e08101919091528382815181106119b9576119b9612ffc565b60209081029190910101516001600160a01b03908116604080840182905261010089015190517f533f542a0000000000000000000000000000000000000000000000000000000081528f84166004820152908316602482015260448101919091529086169063533f542a90606401602060405180830381865afa158015611a44573d6000803e3d6000fd5b505050506040513d601f19601f82011682018060405250810190611a6891906132a2565b60808201526040808201519051632c08906360e21b81526001600160a01b038e8116600483015291821660248201529086169063b022418c90604401602060405180830381865afa158015611ac1573d6000803e3d6000fd5b505050506040513d601f19601f82011682018060405250810190611ae591906132a2565b81606001818152505080604001516001600160a01b031663313ce5676040518163ffffffff1660e01b8152600401602060405180830381865afa158015611b30573d6000803e3d6000fd5b505050506040513d601f19601f82011682018060405250810190611b5491906131f4565b8160e0019060ff16908160ff168152505080604001516001600160a01b03166395d89b416040518163ffffffff1660e01b8152600401600060405180830381865afa158015611ba7573d6000803e3d6000fd5b505050506040513d6000823e601f3d908101601f19168201604052611bcf9190810190613217565b81526040808201519051630150bdfb60e51b81526001600160a01b03918216600482015290861690632a17bf6090602401602060405180830381865afa158015611c1d573d6000803e3d6000fd5b505050506040513d601f19601f82011682018060405250810190611c419190612ebc565b6001600160a01b031660208083018290526040805163313ce56760e01b8152905163313ce567926004808401939192918290030181865afa158015611c8a573d6000803e3d6000fd5b505050506040513d601f19601f82011682018060405250810190611cae91906131f4565b60ff1660c0820152602080820151604080516350d25bcd60e01b815290516001600160a01b03909216926350d25bcd926004808401938290030181865afa158015611cfd573d6000803e3d6000fd5b505050506040513d601f19601f82011682018060405250810190611d2191906132a2565b60a082015282518190849084908110611d3c57611d3c612ffc565b60200260200101819052505080611d52906132bb565b905061195d565b5060405180606001604052808561010001516001600160a01b03168152602001846001600160a01b0316815260200182815250868681518110611d9e57611d9e612ffc565b60200260200101516020018190525050505b60008261014001516001600160a01b03166375d264136040518163ffffffff1660e01b8152600401602060405180830381865afa158015611df5573d6000803e3d6000fd5b505050506040513d601f19601f82011682018060405250810190611e199190612ebc565b90506001600160a01b0381161561239657610140830151604051636657732f60e01b81526001600160a01b039182166004820152600091831690636657732f90602401600060405180830381865afa158015611e79573d6000803e3d6000fd5b505050506040513d6000823e601f3d908101601f19168201604052611ea19190810190612f4a565b90506000815167ffffffffffffffff811115611ebf57611ebf612ed9565b604051908082528060200260200182016040528015611f2f57816020015b60408051610100810182526060808252600060208084018290529383018190529082018190526080820181905260a0820181905260c0820181905260e08201528252600019909201910181611edd5790505b50905060005b825181101561233f576040805161010081018252606080825260006020830181905292820183905281018290526080810182905260a0810182905260c0810182905260e0810191909152838281518110611f9157611f91612ffc565b602002602001015181604001906001600160a01b031690816001600160a01b031681525050846001600160a01b031663533f542a8e89610140015184604001516040518463ffffffff1660e01b815260040161200d939291906001600160a01b0393841681529183166020830152909116604082015260600190565b602060405180830381865afa15801561202a573d6000803e3d6000fd5b505050506040513d601f19601f8201168201806040525081019061204e91906132a2565b60808201526040808201519051632c08906360e21b81526001600160a01b038f8116600483015291821660248201529086169063b022418c90604401602060405180830381865afa1580156120a7573d6000803e3d6000fd5b505050506040513d601f19601f820116820180604052508101906120cb91906132a2565b81606001818152505080604001516001600160a01b031663313ce5676040518163ffffffff1660e01b8152600401602060405180830381865afa158015612116573d6000803e3d6000fd5b505050506040513d601f19601f8201168201806040525081019061213a91906131f4565b8160e0019060ff16908160ff168152505080604001516001600160a01b03166395d89b416040518163ffffffff1660e01b8152600401600060405180830381865afa15801561218d573d6000803e3d6000fd5b505050506040513d6000823e601f3d908101601f191682016040526121b59190810190613217565b81526040808201519051630150bdfb60e51b81526001600160a01b03918216600482015290861690632a17bf6090602401602060405180830381865afa158015612203573d6000803e3d6000fd5b505050506040513d601f19601f820116820180604052508101906122279190612ebc565b6001600160a01b031660208083018290526040805163313ce56760e01b8152905163313ce567926004808401939192918290030181865afa158015612270573d6000803e3d6000fd5b505050506040513d601f19601f8201168201806040525081019061229491906131f4565b60ff1660c0820152602080820151604080516350d25bcd60e01b815290516001600160a01b03909216926350d25bcd926004808401938290030181865afa1580156122e3573d6000803e3d6000fd5b505050506040513d601f19601f8201168201806040525081019061230791906132a2565b60a08201528251819084908490811061232257612322612ffc565b60200260200101819052505080612338906132bb565b9050611f35565b5060405180606001604052808661014001516001600160a01b03168152602001856001600160a01b031681526020018281525087878151811061238457612384612ffc565b60200260200101516040018190525050505b60008361012001516001600160a01b03166375d264136040518163ffffffff1660e01b8152600401602060405180830381865afa1580156123db573d6000803e3d6000fd5b505050506040513d601f19601f820116820180604052508101906123ff9190612ebc565b90506001600160a01b0381161561299057610120840151604051636657732f60e01b81526001600160a01b039182166004820152600091831690636657732f90602401600060405180830381865afa15801561245f573d6000803e3d6000fd5b505050506040513d6000823e601f3d908101601f191682016040526124879190810190612f4a565b90506000815167ffffffffffffffff8111156124a5576124a5612ed9565b60405190808252806020026020018201604052801561251557816020015b60408051610100810182526060808252600060208084018290529383018190529082018190526080820181905260a0820181905260c0820181905260e082015282526000199092019101816124c35790505b50905060005b8251811015612939576040805161010081018252606080825260006020830181905292820183905281018290526080810182905260a0810182905260c0810182905260e081019190915283828151811061257757612577612ffc565b602002602001015181604001906001600160a01b031690816001600160a01b031681525050846001600160a01b031663533f542a8f8a610120015184604001516040518463ffffffff1660e01b81526004016125f3939291906001600160a01b0393841681529183166020830152909116604082015260600190565b602060405180830381865afa158015612610573d6000803e3d6000fd5b505050506040513d601f19601f8201168201806040525081019061263491906132a2565b816080018181525050846001600160a01b031663b022418c8f83604001516040518363ffffffff1660e01b81526004016126849291906001600160a01b0392831681529116602082015260400190565b602060405180830381865afa1580156126a1573d6000803e3d6000fd5b505050506040513d601f19601f820116820180604052508101906126c591906132a2565b81606001818152505080604001516001600160a01b031663313ce5676040518163ffffffff1660e01b8152600401602060405180830381865afa158015612710573d6000803e3d6000fd5b505050506040513d601f19601f8201168201806040525081019061273491906131f4565b8160e0019060ff16908160ff168152505080604001516001600160a01b03166395d89b416040518163ffffffff1660e01b8152600401600060405180830381865afa158015612787573d6000803e3d6000fd5b505050506040513d6000823e601f3d908101601f191682016040526127af9190810190613217565b81526040808201519051630150bdfb60e51b81526001600160a01b03918216600482015290861690632a17bf6090602401602060405180830381865afa1580156127fd573d6000803e3d6000fd5b505050506040513d601f19601f820116820180604052508101906128219190612ebc565b6001600160a01b031660208083018290526040805163313ce56760e01b8152905163313ce567926004808401939192918290030181865afa15801561286a573d6000803e3d6000fd5b505050506040513d601f19601f8201168201806040525081019061288e91906131f4565b60ff1660c0820152602080820151604080516350d25bcd60e01b815290516001600160a01b03909216926350d25bcd926004808401938290030181865afa1580156128dd573d6000803e3d6000fd5b505050506040513d601f19601f8201168201806040525081019061290191906132a2565b60a08201528251819084908490811061291c5761291c612ffc565b60200260200101819052505080612932906132bb565b905061251b565b5060405180606001604052808761012001516001600160a01b03168152602001866001600160a01b031681526020018281525088888151811061297e5761297e612ffc565b60200260200101516060018190525050505b50505050808061299f906132bb565b9150506116e5565b5095945050505050565b604051806080016040528060006001600160a01b03168152602001612a02604051806060016040528060006001600160a01b0316815260200160006001600160a01b03168152602001606081525090565b81526040805160608082018352600080835260208084018290528385018390528086019390935283518083018552818152928301528183015291015290565b6001600160a01b0381168114612a5657600080fd5b50565b60008060408385031215612a6c57600080fd5b8235612a7781612a41565b91506020830135612a8781612a41565b809150509250929050565b60005b83811015612aad578181015183820152602001612a95565b83811115612abc576000848401525b50505050565b60008151808452612ada816020860160208601612a92565b601f01601f19169290920160200192915050565b600060608084016001600160a01b038085511686526020818187015116818801526040915081860151848389015283815180865260809550858a019150858160051b8b0101848401935060005b82811015612bfa57607f198c830301845284516101608151818552612b6282860182612ac2565b91505087820151612b7d898601826001600160a01b03169052565b50888201516001600160a01b0316848a01528a8201518b850152898201518a85015260a0808301519085015260c0808301519085015260e080830151908501526101008083015160ff9081169186019190915261012080840151821690860152610140928301511691909301529385019392850192600101612b3b565b509a9950505050505050505050565b600081518084526020808501808196508360051b8101915082860160005b85811015612ca6578284038952815160806001600160a01b038251168652868201518188880152612c5a82880182612aee565b91505060408083015187830382890152612c748382612aee565b9250505060608083015192508682038188015250612c928183612aee565b9a87019a9550505090840190600101612c27565b5091979650505050505050565b600060608084016001600160a01b0380855116865260208181870151168188015260408087015185828a015284815180875260809650868b019150868160051b8c0101858401935060005b82811015612d8e57607f198d830301845284516101008151818552612d2582860182612ac2565b91505089898301511689850152898883015116888501528b8201518c8501528a8201518b85015260a080830151818601525060c080830151612d6b8287018260ff169052565b505060e09182015160ff1693909101929092529386019392860192600101612cfe565b509b9a5050505050505050505050565b600081518084526020808501808196508360051b8101915082860160005b85811015612ca6578284038952815160806001600160a01b038251168652868201518188880152612def82880182612cb3565b91505060408083015187830382890152612e098382612cb3565b9250505060608083015192508682038188015250612e278183612cb3565b9a87019a9550505090840190600101612dbc565b604081526000612e4e6040830185612c09565b8281036020840152612e608185612d9e565b95945050505050565b6020815260006100dd6020830184612d9e565b600060208284031215612e8e57600080fd5b81356100dd81612a41565b6020815260006100dd6020830184612c09565b8051612eb781612a41565b919050565b600060208284031215612ece57600080fd5b81516100dd81612a41565b634e487b7160e01b600052604160045260246000fd5b6040516101e0810167ffffffffffffffff81118282101715612f1357612f13612ed9565b60405290565b604051601f8201601f1916810167ffffffffffffffff81118282101715612f4257612f42612ed9565b604052919050565b60006020808385031215612f5d57600080fd5b825167ffffffffffffffff80821115612f7557600080fd5b818501915085601f830112612f8957600080fd5b815181811115612f9b57612f9b612ed9565b8060051b9150612fac848301612f19565b8181529183018401918481019088841115612fc657600080fd5b938501935b83851015612ff05784519250612fe083612a41565b8282529385019390850190612fcb565b98975050505050505050565b634e487b7160e01b600052603260045260246000fd5b60006020828403121561302457600080fd5b6040516020810181811067ffffffffffffffff8211171561304757613047612ed9565b6040529151825250919050565b80516fffffffffffffffffffffffffffffffff81168114612eb757600080fd5b805164ffffffffff81168114612eb757600080fd5b805161ffff81168114612eb757600080fd5b60006101e082840312156130ae57600080fd5b6130b6612eef565b6130c08484613012565b81526130ce60208401613054565b60208201526130df60408401613054565b60408201526130f060608401613054565b606082015261310160808401613054565b608082015261311260a08401613054565b60a082015261312360c08401613074565b60c082015261313460e08401613089565b60e0820152610100613147818501612eac565b90820152610120613159848201612eac565b9082015261014061316b848201612eac565b9082015261016061317d848201612eac565b9082015261018061318f848201613054565b908201526101a06131a1848201613054565b908201526101c06131b3848201613054565b908201529392505050565b600080600080608085870312156131d457600080fd5b505082516020840151604085015160609095015191969095509092509050565b60006020828403121561320657600080fd5b815160ff811681146100dd57600080fd5b60006020828403121561322957600080fd5b815167ffffffffffffffff8082111561324157600080fd5b818401915084601f83011261325557600080fd5b81518181111561326757613267612ed9565b61327a601f8201601f1916602001612f19565b915080825285602082850101111561329157600080fd5b611599816020840160208601612a92565b6000602082840312156132b457600080fd5b5051919050565b60006000198214156132dd57634e487b7160e01b600052601160045260246000fd5b506001019056fea26469706673582212205ee32c35b44648fd44b4e24cc6d38a53aada1bf58851484bfe896599bfd7831264736f6c634300080a0033",
  "linkReferences": {},
  "deployedLinkReferences": {}
}